:020000040800F2
:10000000000003207D660008B1180008B31800083E
:10001000B5180008B7180008B9180008000000005B
:100020000000000000000000000000002162000845
:10003000BB18000800000000C1620008ED64000861
:10004000CD660008CD660008CD660008CD660008C4
:10005000CD660008CD660008CD660008CD660008B4
:10006000CD660008CD660008CD660008CD660008A4
:10007000CD660008CD660008CD660008CD66000894
:10008000BD180008CD660008CD660008CD660008E2
:10009000CD660008CD660008CD660008CD66000874
:1000A000CD660008CD180008CD660008CD660008B2
:1000B000CD660008CD660008DD180008CD66000892
:1000C000CD660008CD660008CD660008CD66000844
:1000D000CD660008ED180008CD660008CD66000862
:1000E000CD660008CD660008CD660008CD66000824
:1000F000CD660008CD660008CD660008CD66000814
:10010000CD660008CD660008FD180008CD66000821
:10011000CD660008CD660008CD660008CD660008F3
:10012000CD660008CD66000819190008CD660008E4
:10013000CD660008CD660008CD660008CD660008D3
:10014000CD660008CD660008CD660008CD660008C3
:10015000CD660008CD66000829190008CD660008A4
:10016000CD660008CD660008CD660008CD660008A3
:10017000CD660008CD660008CD66000800000000CE
:10018000CD660008CD660008CD660008CD66000883
:10019000CD660008CD660008CD660008CD66000873
:0C01A000CD660008CD660008CD660008A2
:1001B00010B5054C237833B9044B13B10448AFF3A1
:1001C00000800123237010BD840000200000000087
:1001D000C487000808B5034B1BB103490348AFF3BC
:1001E000008008BD0000000088000020C4870008CF
:1001F000034613F8012B002AFBD1181A0138704767
:1002000001F0FF01102A2BDB10F0070F08D010F8C7
:10021000013B013A8B422DD010F0070F42B3F6D1CB
:10022000F0B441EA012141EA014122F007047FF0E4
:1002300000070023F0E80256083C85EA010586EA3B
:10024000010685FA47F5A3FA87F586FA47F6A5FA77
:1002500087F68EB9EED1F0BC01F0FF0102F0070283
:1002600032B110F8013B013A83EA010313B1F8D12E
:100270000020704701387047002D06BF354603380F
:10028000073815F0010F07D1013015F4807F02BF48
:10029000013015F4C03F0130F0BC0138704700BF99
:1002A00081F0004102E000BF83F0004330B54FEA27
:1002B00041044FEA430594EA050F08BF90EA020F94
:1002C0001FBF54EA000C55EA020C7FEA645C7FEA27
:1002D000655C00F0E2804FEA5454D4EB5555B8BF4A
:1002E0006D420CDD2C4480EA020281EA030382EABB
:1002F000000083EA010180EA020281EA0303362D4D
:1003000088BF30BD11F0004F4FEA01314FF4801C1F
:100310004CEA113102D0404261EB410113F0004F31
:100320004FEA03334CEA133302D0524263EB4303E8
:1003300094EA050F00F0A780A4F10104D5F1200E86
:100340000DDB02FA0EFC22FA05F2801841F10001E1
:1003500003FA0EF2801843FA05F359410EE0A5F1B5
:1003600020050EF1200E012A03FA0EFC28BF4CF0E6
:10037000020C43FA05F3C01851EBE37101F000459C
:1003800007D54FF0000EDCF1000C7EEB00006EEBA9
:100390000101B1F5801F1BD3B1F5001F0CD3490833
:1003A0005FEA30004FEA3C0C04F101044FEA44528A
:1003B00012F5800F80F09A80BCF1004F08BF5FEA11
:1003C000500C50F1000041EB045141EA050130BDF1
:1003D0005FEA4C0C404141EB0101013C28BFB1F503
:1003E000801FE9D291F0000F04BF01460020B1FA4E
:1003F00081F308BF2033A3F10B03B3F120020CDA21
:100400000C3208DD02F1140CC2F10C0201FA0CF0FE
:1004100021FA02F10CE002F11402D8BFC2F1200C63
:1004200001FA02F120FA0CFCDCBF41EA0C01904019
:10043000E41AA2BF01EB0451294330BD6FEA040462
:100440001F3C1CDA0C340EDC04F11404C4F120024D
:1004500020FA04F001FA02F340EA030021FA04F35F
:1004600045EA030130BDC4F10C04C4F1200220FAB6
:1004700002F001FA04F340EA0300294630BD21FAF4
:1004800004F0294630BD94F0000F83F4801306BFBA
:1004900081F480110134013D4EE77FEA645C18BFAE
:1004A0007FEA655C29D094EA050F08BF90EA020F45
:1004B00005D054EA000C04BF1946104630BD91EA3D
:1004C000030F1EBF0021002030BD5FEA545C05D140
:1004D0004000494128BF41F0004130BD14F580047F
:1004E0003CBF01F5801130BD01F0004545F0FE41F3
:1004F00041F470014FF0000030BD7FEA645C1ABF28
:10050000194610467FEA655C1CBF0B46024650EA5E
:10051000013406BF52EA033591EA030F41F400218A
:1005200030BD00BF90F0000F04BF0021704730B510
:100530004FF4806404F132044FF000054FF00001E5
:1005400050E700BF90F0000F04BF0021704730B5A6
:100550004FF4806404F1320410F0004548BF40427B
:100560004FF000013EE700BF42004FEAE2014FEAD0
:1005700031014FEA02701FBF12F07F4393F07F4FAB
:1005800081F06051704732F07F4208BF704793F0AE
:100590007F4F04BF41F40021704730B54FF46074C1
:1005A00001F0004521F000411CE700BF50EA0102C4
:1005B00008BF704730B54FF000050AE050EA01026D
:1005C00008BF704730B511F0004502D5404261EBDD
:1005D00041014FF4806404F132045FEA915C3FF41E
:1005E000D8AE4FF003025FEADC0C18BF03325FEABB
:1005F000DC0C18BF033202EBDC02C2F1200300FA6C
:1006000003FC20FA02F001FA03FE40EA0E0021FA90
:1006100002F11444BDE600BF70B54FF0FF0C4CF47E
:10062000E06C1CEA11541DBF1CEA135594EA0C0F30
:1006300095EA0C0F00F0DEF82C4481EA030621EA6B
:100640004C5123EA4C5350EA013518BF52EA0335A6
:1006500041F4801143F4801338D0A0FB02CE4FF058
:100660000005E1FB02E506F00042E0FB03E54FF088
:100670000006E1FB03569CF0000F18BF4EF0010E80
:10068000A4F1FF04B6F5007F64F5407404D25FEA7C
:100690004E0E6D4146EB060642EAC62141EA55512F
:1006A0004FEAC52040EA5E504FEACE2EB4F1FD0C71
:1006B00088BFBCF5E06F1ED8BEF1004F08BF5FEAEF
:1006C000500E50F1000041EB045170BD06F00046A1
:1006D00046EA010140EA020081EA0301B4EB5C044E
:1006E000C2BFD4EB0C0541EA045170BD41F4801146
:1006F0004FF0000E013C00F3AB8014F1360FDEBF6B
:10070000002001F0004170BDC4F10004203C35DA46
:100710000C341BDC04F11404C4F1200500FA05F3C9
:1007200020FA04F001FA05F240EA020001F000426A
:1007300021F0004110EBD37021FA04F642EB0601E0
:100740005EEA430E08BF20EAD37070BDC4F10C040A
:10075000C4F1200500FA04F320FA05F001FA04F2CE
:1007600040EA020001F0004110EBD37041F10001BA
:100770005EEA430E08BF20EAD37070BDC4F12005C5
:1007800000FA05F24EEA020E20FA04F301FA05F22D
:1007900043EA020321FA04F001F0004121FA04F2D5
:1007A00020EA020000EBD3705EEA430E08BF20EAA5
:1007B000D37070BD94F0000F0FD101F000464000DF
:1007C00041EB010111F4801F08BF013CF7D041EA61
:1007D000060195F0000F18BF704703F00046520065
:1007E00043EB030313F4801F08BF013DF7D043EA36
:1007F0000603704794EA0C0F0CEA135518BF95EAEC
:100800000C0F0CD050EA410618BF52EA4306D1D172
:1008100081EA030101F000414FF0000070BD50EA91
:10082000410606BF1046194652EA430619D094EA1B
:100830000C0F02D150EA013613D195EA0C0F05D105
:1008400052EA03361CBF104619460AD181EA030159
:1008500001F0004141F0FE4141F470014FF0000011
:1008600070BD41F0FE4141F4780170BD70B54FF0AC
:10087000FF0C4CF4E06C1CEA11541DBF1CEA13552C
:1008800094EA0C0F95EA0C0F00F0A7F8A4EB05040E
:1008900081EA030E52EA03354FEA013100F0888005
:1008A0004FEA03334FF0805545EA131343EA1263CE
:1008B0004FEA022245EA111545EA10654FEA002683
:1008C0000EF000419D4208BF964244F1FD0404F53C
:1008D000407402D25B084FEA3202B61A65EB030598
:1008E0005B084FEA32024FF480104FF4002CB6EB55
:1008F000020E75EB030E22BFB61A754640EA0C00D5
:100900005B084FEA3202B6EB020E75EB030E22BF14
:10091000B61A754640EA5C005B084FEA3202B6EB55
:10092000020E75EB030E22BFB61A754640EA9C0014
:100930005B084FEA3202B6EB020E75EB030E22BFE4
:10094000B61A754640EADC0055EA060E18D04FEAA2
:10095000051545EA16754FEA06164FEAC30343EA42
:1009600052734FEAC2025FEA1C1CC0D111F4801F0F
:100970000BD141EA00014FF000004FF0004CB6E708
:1009800011F4801F04BF01430020B4F1FD0C88BFA7
:10099000BCF5E06F3FF6AFAEB5EB030C04BFB6EBB2
:1009A000020C5FEA500C50F1000041EB045170BDA5
:1009B0000EF0004E4EEA113114EB5C04C2BFD4EBD2
:1009C0000C0541EA045170BD41F480114FF0000E56
:1009D000013C90E645EA060E8DE60CEA135594EAD2
:1009E0000C0F08BF95EA0C0F3FF43BAF94EA0C0FD5
:1009F0000AD150EA01347FF434AF95EA0C0F7FF44A
:100A000025AF104619462CE795EA0C0F06D152EA9D
:100A100003353FF4FDAE1046194622E750EA410681
:100A200018BF52EA43067FF4C5AE50EA41047FF492
:100A30000DAF52EA43057FF4EBAE12E74FF0FF3CF7
:100A400006E000BF4FF0010C02E000BF4FF0010CC8
:100A50004DF804CD4FEA410C7FEA6C5C4FEA430C41
:100A600018BF7FEA6C5C1BD001B050EA410C0CBF90
:100A700052EA430C91EA030F02BF90EA020F0020F2
:100A8000704710F1000F91EA030F58BF994208BF59
:100A900090422CBFD8176FEAE37040F00100704716
:100AA0004FEA410C7FEA6C5C02D150EA013C07D16D
:100AB0004FEA430C7FEA6C5CD6D152EA033CD3D0B8
:100AC0005DF8040B704700BF8446104662468C46B2
:100AD0001946634600E000BF01B5FFF7B7FF0028E5
:100AE00048BF10F1000F01BD4DF808EDFFF7F4FF0E
:100AF0000CBF012000205DF808FB00BF4DF808ED99
:100B0000FFF7EAFF34BF012000205DF808FB00BFBB
:100B10004DF808EDFFF7E0FF94BF012000205DF8DD
:100B200008FB00BF4DF808EDFFF7CEFF94BF012092
:100B300000205DF808FB00BF4DF808EDFFF7C4FF8B
:100B400034BF012000205DF808FB00BF4FEA410CD4
:100B50007FEA6C5C02D150EA013C0AD14FEA430CB7
:100B60007FEA6C5C02D152EA033C02D14FF00000F4
:100B700070474FF0010070474FEA410212F5001232
:100B800015D211D56FF47873B3EB625212D94FEAD4
:100B9000C12343F0004343EA505311F0004F23FABE
:100BA00002F018BF404270474FF00000704750EA13
:100BB000013005D111F0004008BF6FF000407047D0
:100BC0004FF00000704700BF4FEA4102B2F1E0432E
:100BD00024BFB3F5001CDCF1FE5C0DD901F0004C24
:100BE0004FEAC0024CEA5070B2F1004F40EB830074
:100BF00008BF20F00100704711F0804F21D113F1A0
:100C00003872BCBF01F00040704741F480114FEAD8
:100C10005252C2F11802C2F1200C10FA0CF320FA61
:100C200002F018BF40F001004FEAC1234FEAD3237E
:100C300003FA0CFC40EA0C0023FA02F34FEA4303E8
:100C4000CCE77FEA625307D150EA01331EBF4FF071
:100C5000FE4040F44000704701F0004040F0FE408C
:100C600040F40000704700BF53B94AB9002908BFDB
:100C700000281CBF4FF0FF314FF0FF3000F074B977
:100C8000ADF1080C6DE904CE00F006F8DDF804E0E3
:100C9000DDE9022304B070472DE9F047089D0446C2
:100CA0008E46002B4DD18A42944669D9B2FA82F21F
:100CB00052B101FA02F3C2F1200120FA01F10CFA5B
:100CC00002FC41EA030E94404FEA1C48210CBEFB93
:100CD000F8F61FFA8CF708FB16E341EA034306FB1C
:100CE00007F199420AD91CEB030306F1FF3080F0AB
:100CF0001F81994240F21C81023E63445B1AA4B2F8
:100D0000B3FBF8F008FB103344EA034400FB07F799
:100D1000A7420AD91CEB040400F1FF3380F00A81DA
:100D2000A74240F207816444023840EA0640E41BCF
:100D300000261DB1D4400023C5E900433146BDE87B
:100D4000F0878B4209D9002D00F0EF800026C5E91D
:100D5000000130463146BDE8F087B3FA83F6002E35
:100D60004AD18B4202D3824200F2F980841A61EBAD
:100D7000030301209E46002DE0D0C5E9004EDDE7CB
:100D800002B9FFDEB2FA82F2002A40F09280A1EBB3
:100D90000C014FEA1C471FFA8CFE0126200CB1FB08
:100DA000F7F307FB131140EA01410EFB03F0884201
:100DB00008D91CEB010103F1FF3802D2884200F28E
:100DC000CB804346091AA4B2B1FBF7F007FB101120
:100DD00044EA01440EFB00FEA64508D91CEB0404BE
:100DE00000F1FF3102D2A64500F2BB800846A4EB19
:100DF0000E0440EA03409CE7C6F12007B34022FA04
:100E000007FC4CEA030C20FA07F401FA06F31C4332
:100E1000F9404FEA1C4900FA06F3B1FBF9F8200C3F
:100E20001FFA8CFE09FB181140EA014108FB0EF085
:100E3000884202FA06F20BD91CEB010108F1FF3AD5
:100E400080F08880884240F28580A8F102086144E1
:100E5000091AA4B2B1FBF9F009FB101144EA0141EF
:100E600000FB0EFE8E4508D91CEB010100F1FF349A
:100E70006CD28E456AD90238614440EA0840A0FB32
:100E80000294A1EB0E01A142C846A64656D353D008
:100E90005DB1B3EB080261EB0E0101FA07F722FA2C
:100EA00006F3F1401F43C5E9007100263146BDE855
:100EB000F087C2F12003D8400CFA02FC21FA03F3B8
:100EC000914001434FEA1C471FFA8CFEB3FBF7F039
:100ED00007FB10360B0C43EA064300FB0EF69E425E
:100EE00004FA02F408D91CEB030300F1FF382FD2F7
:100EF0009E422DD9023863449B1B89B2B3FBF7F69F
:100F000007FB163341EA034106FB0EF38B4208D977
:100F10001CEB010106F1FF3816D28B4214D9023EB8
:100F20006144C91A46EA004638E72E46284605E7D6
:100F30000646E3E61846F8E64B45A9D2B9EB0208A7
:100F400064EB0C0E0138A3E74646EAE7204694E737
:100F50004046D1E7D0467BE7023B614432E730466A
:100F600009E76444023842E7704700BF08B50268E9
:100F7000034B9A4200D008BD02F0EEF8FBE700BF39
:100F80000000014072B6FEE700B595B030220021A6
:100F900008A805F0CFFB0023039304930593069361
:100FA00007930193234A116C41F080511164126C34
:100FB00002F080520192019A02931F4B1A6842F488
:100FC00040421A601B6803F440430293029B0123D2
:100FD00008934FF48033099302230E934FF4800259
:100FE0000F92192210924FF4B472119212930423AB
:100FF000139308A801F054F9B0B901F0FDFFA8B9A6
:101000000F23039302230493002305934FF4A0536B
:1010100006934FF480530793052103A801F08EFB3C
:1010200030B915B05DF804FBFFF7ACFFFFF7AAFF7E
:10103000FFF7A8FF003802400070004008B502F03A
:1010400071F8FFF7A1FF00F025F800F0A9F800F013
:1010500095FB00F07DF902F095FB00F0DBF802F063
:10106000FFFD0B4C204600F053FD0021204601F00F
:101070004DF80421204601F049F80821204601F0EE
:1010800045F805F03FFA03F0F1FA05F04DFAFEE7F6
:10109000A00000202DE9F0418AB0002405940694B8
:1010A0000794089409940094394B1A6B42F010028B
:1010B0001A631A6B02F010020092009A01941A6BE4
:1010C00042F004021A631A6B02F004020192019AC0
:1010D00002941A6B42F080021A631A6B02F08002CB
:1010E0000292029A03941A6B42F001021A631A6B7D
:1010F00002F001020392039A04941A6B42F0020276
:101100001A631B6B03F002030493049B214F2246D6
:101110001821384601F004FDDFF8808022460821BE
:10112000404601F0FDFC1C4E01220221304601F038
:10113000F7FC22462021304601F0F2FC18230593EB
:10114000012506950794089505A9384601F0EAFBA4
:1011500008230593069507940227089705A940469A
:1011600001F0E0FB059706950795089505A930461F
:1011700001F0D8FB202305930695079403230893D9
:1011800005A9304601F0CEFB0AB0BDE8F08100BFF2
:10119000003802400010024000040240001C0240DF
:1011A00010B582B000240094164B1A6B42F48002F2
:1011B0001A631A6B02F480020092009A01941A6B6F
:1011C00042F400121A631B6B03F400130193019B9A
:1011D00022460521102001F05FFF102001F094FF4E
:1011E000224605213A2001F057FF3A2001F08CFFFA
:1011F00022460521462001F04FFF462001F084FFE2
:1012000002B010BD00380240014B01221A70704735
:10121000340B002000B587B000230293039304939E
:101220000593009301931548154A02600822426015
:1012300083600922C26003618023836100F0CCFDDA
:1012400090B94FF48053029302A90C4800F0CFFEEE
:1012500068B90023009301936946084800F0D8FF5D
:1012600040B907B05DF804FBFFF78CFEE9E7FFF734
:1012700089FEEEE7FFF786FEF3E700BFE8000020F7
:10128000000C004000B583B00368184A934205D0B3
:10129000174A934216D003B05DF804FB0022009277
:1012A000144B196C41F0040119641B6C03F0040326
:1012B0000093009B05211E2001F0EEFE1E2001F090
:1012C00023FFE8E7002201920A4B196C41F0080164
:1012D00019641B6C03F008030193019B0521322064
:1012E00001F0DAFE322001F00FFFD4E700080040E1
:1012F000000C00400038024000B587B00023019385
:10130000029303930493059302680E4B9A4202D012
:1013100007B05DF804FB002300930B4B1A6B42F0FF
:1013200002021A631B6B03F002030093009B4FF44D
:10133000E073019302230293059301A9034801F08E
:10134000F1FAE5E7000800400038024000040240DE
:1013500000B58FB000230A930B930C930D93089361
:1013600009930193029303930493059306930793C0
:101370002D482E4A026008224260836040F2F31238
:10138000C26003618023836100F026FD002835D10F
:101390004FF480530A930AA9234800F028FE80BB2B
:1013A000214800F045FD78BB00230893099308A964
:1013B0001D4800F02DFF50BB60230193FA230293D8
:1013C000022303930423059300220DEB0301164827
:1013D00000F092FDF0B904220DEB0201124800F07A
:1013E0008BFDD0B9082201A90F4800F085FDB8B9DE
:1013F0000D48FFF781FF0FB05DF804FBFFF7C2FD5A
:10140000C6E7FFF7BFFDCBE7FFF7BCFDCCE7FFF773
:10141000B9FDD1E7FFF7B6FDDDE7FFF7B3FDE1E783
:10142000FFF7B0FDE4E700BFA00000200008004087
:1014300007EE900AF8EEE77A27EE800A7047000080
:1014400008B510EE100AFFF78FF89FED0B1B41EC6B
:10145000100B05F0C1FE51EC100BFFF7B5FB00EED1
:10146000100AB5EEC00AF1EE10FA00DB08BDDFEDA0
:10147000047A30EE270AF9E700000060FB211940EA
:10148000DB0FC94010B5344B93ED007AC0EE077AFC
:10149000F5EEC07AF1EE10FA09D4F7EE006AF4EE38
:1014A000E67AF1EE10FA04DDF0EE667A01E0DFEDA7
:1014B0002B7A2B4BC3ED007AC0EE877AF5EEC07A1B
:1014C000F1EE10FA09D4F7EE006AF4EEE67AF1EEE6
:1014D00010FA04DDF0EE667A01E0DFED207A214BB0
:1014E000C3ED007AC1EE077AF5EEC07AF1EE10FA9C
:1014F00009D4B7EE007AF4EEC77AF1EE10FA04DD03
:10150000F0EE477A01E0DFED157A174CC4ED007A72
:1015100001222021154801F003FB114B93ED007AC5
:10152000DFED136A27EE267A124B1B68BCEEC77AF2
:1015300083ED0D7A0B4A92ED007A27EE267ABCEE07
:10154000C77A83ED0E7AD4ED007A67EEA67AFCEEC8
:10155000E77AC3ED0F7A10BD000000200000000004
:1015600044010020480100204C01002000040240FA
:1015700000007A43A00000202DE9F0472DED028BFA
:1015800010EE104A4A4B93ED000A31EE000AFFF7C5
:1015900057FF10EE105A84F00040FEF7E5FF0646B4
:1015A0000F462846FEF7E0FF41EC180B41EC100B0C
:1015B00005F0CAFD53EC102B30463946FFF72CF8E6
:1015C000FFF702FB82463B4B1860B0EE480AF0EE94
:1015D000680A05F021FD57EC106B2046FEF7C4FFAA
:1015E00032463B46FFF718F8FFF7EEFA324B186029
:1015F000324B93ED008AF6EE007A28EE278A07EE4A
:1016000090AA77EE888A2E4BC3ED008AFEF7ACFFD6
:1016100025A3D3E90023FEF7FFFF06460F465046F9
:10162000FEF7A2FF02460B4630463946FEF73CFE67
:101630000022244BFEF7F0FF8046894618EE100A80
:10164000FEF792FF04460D4602460B4640464946C9
:10165000FEF72CFEFFF7B8FA08EE100A1A4B1860D6
:101660008AF00040FEF780FF32463B46FEF71CFE44
:101670000022144BFEF7D0FF02460B4620462946B7
:10168000FEF714FEFFF7A0FA01EE100A0F4B1860E8
:10169000F0EE480AB0EE680AFFF7F4FEBDEC028BEC
:1016A000BDE8F087AFF30080AA4C58E87AB6FB3F5C
:1016B00058010020340100203C01002000000020DF
:1016C000300100200000E03F3801002040010020F0
:1016D00010B52DED028BF0EE408A00F02DF908EEEA
:1016E000100AB8EE488A1F4BD3ED007A78EE677A7D
:1016F0009FED1D0A67EE807AF5EEC07AF1EE10FAE2
:1017000009D9B6EE007AF4EEC77AF1EE10FA04DDEC
:10171000DFED167A01E0DFED157A67EEA87A144C5A
:1017200094ED000A37EE800AFFF78AFE84ED000A86
:10173000104B93ED007AF0EE087AC7EE278A072067
:10174000FFF776FEB0EE401ADFED0B0AB0EE680A46
:10175000FFF712FF034B83ED008AB0EE680ABDEC81
:10176000028B10BD50010020BD3786356F12833AC1
:1017700054010020000000200000000008B50A48C5
:101780000A4B03604FF4E133436000238360C3607E
:1017900003610C2242618361C36101F0E9FD00B97C
:1017A00008BDFFF7EFFBFBE71C0200200010014023
:1017B00030B589B0002303930493059306930793F0
:1017C000026803F1804303F588339A4201D009B0DF
:1017D00030BD04460025019503F594335A6C42F060
:1017E00010025A645A6C02F010020192019A02959A
:1017F0001A6B42F001021A631B6B03F001030293A0
:10180000029B4FF4C06303930223049303230693C4
:101810000723079303A9214801F084F82048214BAE
:1018200003604FF00063436040238360C5604FF462
:101830008063036145618561C5610562456201F0B0
:10184000F5F920BB164BA3639C631748174B036045
:101850004FF00063436000238360C3604FF48062F5
:101860000261436183614FF48072C261036243622B
:1018700001F0DCF970B90C4BE3639C630022052195
:10188000252001F009FC252001F03EFC9FE7FFF731
:1018900079FBD7E7FFF776FBEDE700BF00000240DA
:1018A000BC010020B86402405C010020406402409A
:1018B000FEE7FEE7FEE7FEE7FEE7704708B50248F1
:1018C00001F0ACFA08BD00BF7C0A002008B5024850
:1018D00000F067F908BD00BF380B002008B50248CA
:1018E00000F05FF908BD00BFA000002008B5024865
:1018F00001F0FAFD08BD00BF1C02002008B5044835
:1019000000F04FF9034A13680133136008BD00BFAC
:10191000E80000206402002008B5024801F07EFAC9
:1019200008BD00BF5C01002008B5024801F076FA4E
:1019300008BD00BFBC010020014B1868704700BF04
:101940006402002000B583B0002200920D4B596C58
:1019500041F480415964596C01F48041009100992F
:101960000192196C41F0805119641B6C03F0805393
:101970000193019B0F216FF0010001F08DFB03B07B
:101980005DF804FB0038024030B4036A026A22F0BA
:10199000010202624268846924F073040D682C43DA
:1019A00023F0020C8B6843EA0C03104DA84203D0CD
:1019B00005F58065A84205D123F00803CD682B43C7
:1019C00023F00403094DA84203D005F58065A84221
:1019D00005D122F440724D692A438D692A43426041
:1019E00084614A684263036230BC70470000014072
:1019F00030B4036A026A22F4807202624268C469E7
:101A000024F0730C0C6844EA0C0523F400738C6812
:101A100043EA0423114CA04203D004F58064A042A1
:101A200006D123F40063CC6843EA042323F48063E3
:101A30000A4CA04203D004F58064A04207D122F4EE
:101A400040524C6942EA04128C6942EA0412426034
:101A5000C5614A68C263036230BC70470000014040
:101A600030B4036A026A22F4805202624468C26996
:101A700022F4E6420D6842EA052223F400538D6801
:101A800043EA0533094DA84203D005F58065A84215
:101A900004D124F480444D6944EA85144460C26151
:101AA0004A680264036230BC704700BF0000014016
:101AB00010B4036A046A24F001040462846924F007
:101AC000F00C4CEA021223F00A030B43826103621A
:101AD0005DF8044B704710B4036A046A24F01004E4
:101AE0000462846924F4704C4CEA023223F0A003AF
:101AF00043EA0113826103625DF8044B7047836817
:101B000023F070030B4343F007038360704700002A
:101B100090F83D30DBB2012B37D1022380F83D3005
:101B20000268D36843F00103D3600368194A934203
:101B300020D0B3F1804F1DD0A2F57C42934219D042
:101B400002F58062934215D002F58062934211D073
:101B500002F5784293420DD002F57052934209D0BB
:101B6000A2F59432934205D01A6842F001021A603D
:101B7000002070479A6802F00702062A07D01A6808
:101B800042F001021A6000207047012070470020D7
:101B9000704700BF000001407047704770477047B2
:101BA000704770B504460368DE681D6915F0020FC2
:101BB00010D016F0020F0DD06FF002021A6101234F
:101BC000037703689B6913F0030F5ED0FFF7E6FF0E
:101BD0000023237715F0040F12D016F0040F0FD056
:101BE00023686FF004021A610223237723689B693C
:101BF00013F4407F4FD02046FFF7D0FF0023237718
:101C000015F0080F12D016F0080F0FD023686FF0F0
:101C100008021A61042323772368DB6913F0030F9A
:101C200040D02046FFF7BAFF0023237715F0100FAE
:101C300012D016F0100F0FD023686FF010021A6147
:101C4000082323772368DB6913F4407F31D02046D3
:101C5000FFF7A4FF0023237715F0010F02D016F041
:101C6000010F2DD115F0800F02D016F0800F2FD16B
:101C700015F0400F02D016F0400F31D115F0200FB3
:101C800002D016F0200F33D170BDFFF786FF20463B
:101C9000FFF785FF9CE72046FFF77FFF2046FFF711
:101CA0007EFFABE72046FFF778FF2046FFF777FF80
:101CB000BAE72046FFF771FF2046FFF770FFC9E73C
:101CC00023686FF001021A612046FFF74FF9C9E758
:101CD00023686FF080021A61204600F0E0FAC7E73F
:101CE00023686FF040021A612046FFF759FFC5E7ED
:101CF00023686FF020021A61204600F0CFFAC3E794
:101D00000368344A904212D0B0F1804F0FD0A2F550
:101D10007C4290420BD002F58062904207D002F5DF
:101D20008062904203D002F57842904203D123F0C2
:101D300070034A681343274A90422AD0B0F1804F7B
:101D400027D0A2F57C42904223D002F580629042D7
:101D50001FD002F5806290421BD002F5784290427B
:101D600017D002F57052904213D002F58062904273
:101D70000FD002F5806290420BD0A2F598329042CB
:101D800007D002F58062904203D002F58062904253
:101D900003D123F44073CA68134323F080034A69D4
:101DA000134303608B68C3620B688362094B9842DC
:101DB00003D003F58063984201D10B6903630123CB
:101DC0004361036913F0010F03D0036923F001039A
:101DD000036170470000014040B310B5044690F81D
:101DE0003D30F3B1022384F83D30214651F8040B15
:101DF000FFF786FF012384F8463084F83E3084F8EC
:101E00003F3084F8403084F8413084F8423084F820
:101E1000433084F8443084F8453084F83D30002065
:101E200010BD80F83C30FFF72DFADBE7012070474A
:101E300040B310B5044690F83D30F3B1022384F866
:101E40003D30214651F8040BFFF75AFF012384F877
:101E5000463084F83E3084F83F3084F8403084F8CF
:101E6000413084F8423084F8433084F8443084F8B8
:101E7000453084F83D30002010BD80F83C30FFF73D
:101E80008BFEDBE70120704730B4036A026A22F060
:101E9000100202624468826922F4E6420D6842EA56
:101EA000052223F020038D6843EA0513114DA84253
:101EB00003D005F58065A84206D123F08003CD68E4
:101EC00043EA051323F040030A4DA84203D005F569
:101ED0008065A84207D124F440644D6944EA850432
:101EE0008D6944EA8504446082614A6882630362C2
:101EF00030BC70470000014038B590F83C30012BF1
:101F000066D004460D46012380F83C300C2A5AD88E
:101F1000DFE802F0075959591B5959593059595995
:101F200044000068FFF730FD2268936943F008031E
:101F300093612268936923F0040393612268936993
:101F400029690B43936100203EE00068FFF79CFF86
:101F50002268936943F4006393612268936923F4D0
:101F60008063936122689369296943EA012393613D
:101F7000002029E00068FFF73BFD2268D36943F0A9
:101F80000803D3612268D36923F00403D361226874
:101F9000D36929690B43D361002015E00068FFF77E
:101FA0005FFD2268D36943F40063D3612268D3697B
:101FB00023F48063D3612268D369296943EA01234A
:101FC000D361002000E00120002384F83C3038BDBC
:101FD0000220FCE710B4846824F47F4C42EA032218
:101FE0000A4342EA0C0282605DF8044B704790F8A5
:101FF0003C30012B78D010B50446012380F83C30EA
:10200000022380F83D300268936823F47F4323F075
:10201000770393600B68602B4CD029D8402B54D0A9
:102020000CD9502B22D1CA6849680068FFF740FDDF
:1020300050212068FFF763FD002005E0202B0DD024
:1020400009D9302B0AD00120012384F83D30002328
:1020500084F83C3010BD0BB1102B05D11946206817
:10206000FFF74DFD0020EFE70120EDE70120EBE752
:10207000B3F5805F34D0B3F5005F0CD1CB684A680C
:1020800089680068FFF7A6FF2268936843F48043DD
:1020900093600020D8E7702B24D1CB684A68896808
:1020A0000068FFF797FF2268936843F07703936017
:1020B0000020C9E7CA6849680068FFF70CFD602185
:1020C0002068FFF71CFD0020BEE7CA684968006869
:1020D000FFF7EEFC40212068FFF711FD0020B3E779
:1020E0000020B1E70120AFE70220704701F01F0197
:1020F000012303FA01FC036A23EA0C030362036A67
:1021000002FA01F10B4303627047000010B5044668
:102110000846002942D194F83E30DBB2013B18BF9B
:102120000123002B6ED1002851D1022384F83E30C8
:10213000012201462068FFF7D9FF2368334A934202
:1021400003D002F58062934203D15A6C42F40042FC
:102150005A6423682D4A934249D0B3F1804F46D048
:10216000A2F57C42934242D002F5806293423ED077
:1021700002F5806293423AD002F57842934236D01B
:1021800002F57052934232D0A2F5943293422ED08F
:102190001A6842F001021A60002032E0042908D0D7
:1021A00008290DD094F84130DBB2013B18BF012360
:1021B000B7E794F83F30DBB2013B18BF0123B0E72B
:1021C00094F84030DBB2013B18BF0123A9E7042893
:1021D00005D0082807D0022384F84130A8E702235D
:1021E00084F83F30A4E7022384F84030A0E79A68DF
:1021F00002F00702062A07D01A6842F001021A60AC
:10220000002010BD0120FCE70020FAE7000001409B
:1022100090F83C30012B3DD010B4012380F83C30C5
:10222000022380F83D3003685A689C6822F0700CE5
:102230000A6842EA0C025A600368174A93421AD0AD
:10224000B3F1804F17D0A2F57C42934213D002F530
:10225000806293420FD002F5806293420BD002F568
:102260007842934207D002F57052934203D0A2F510
:102270009432934204D124F080044A6814439C6051
:10228000012380F83D30002380F83C3018465DF88B
:10229000044B7047022070470000014070477047B0
:1022A000002800F0E08170B582B00446036813F0A6
:1022B000010F3BD09F4B9B6803F00C03042B2CD0E9
:1022C0009C4B9B6803F00C03082B21D06368B3F58B
:1022D000803F4FD0B3F5A02F52D0964B1A6822F40E
:1022E00080321A601A6822F480221A606368002B18
:1022F00050D000F03DFF05468E4B1B6813F4003FA5
:1023000014D100F035FF401B6428F5D90320B1E15A
:10231000884B5B6813F4800FD8D0864B1B6813F48E
:10232000003F03D06368002B00F09F81236813F007
:10233000020F54D07F4B9B6813F00C0F3ED07D4BA7
:102340009B6803F00C03082B33D0E368002B68D0A4
:10235000794B01221A6000F00BFF0546754B1B6894
:1023600013F0020F54D100F003FF401B0228F5D9EF
:1023700003207FE16F4A136843F480331360B5E7AD
:102380006C4B1A6842F480221A601A6842F4803258
:102390001A60ABE700F0ECFE0546664B1B6813F4D1
:1023A000003FC3D000F0E4FE401B6428F5D90320B1
:1023B00060E1604B5B6813F4800FC6D15D4B1B6816
:1023C00013F0020F03D0E368012B40F05081594A0B
:1023D000136823F0F803216943EAC10313602368FB
:1023E00013F0080F42D063696BB3534B0122C3F85B
:1023F000802E00F0BDFE05464E4B5B6F13F0020FC2
:1024000034D100F0B5FE401B0228F5D9032031E19C
:10241000484A136823F0F803216943EAC1031360B3
:10242000DDE7454B00221A6000F0A2FE0546414B55
:102430001B6813F0020FD2D000F09AFE401B022856
:10244000F5D9032016E13C4B0022C3F8802E00F0A2
:102450008FFE0546374B5B6F13F0020F06D000F07E
:1024600087FE401B0228F5D9032003E1236813F0FF
:10247000040F77D02F4B1B6C13F0805F33D10023F8
:1024800001932C4B1A6C42F080521A641B6C03F0BF
:1024900080530193019B0125284B1B6813F4807F17
:1024A00023D0A368012B34D0052B38D0214B1A6FD1
:1024B00022F001021A671A6F22F004021A67A36859
:1024C000002B3DD000F054FE06461A4B1B6F13F054
:1024D000020F46D100F04CFE801B41F28833984237
:1024E000F3D90320C6E00025D6E7144A136843F465
:1024F0008073136000F03CFE0646104B1B6813F41B
:10250000807FCED100F034FE801B0228F5D9032055
:10251000B0E0084A136F43F001031367CFE7054BA0
:102520001A6F42F004021A671A6F42F001021A672A
:10253000C5E700BF0038024000004742007000407D
:1025400000F016FE0646524B1B6F13F0020F08D028
:1025500000F00EFE801B41F288339842F3D903202D
:1025600088E0EDB9A369002B00F08380484A9268A7
:1025700002F00C02082A51D0022B17D0454B002242
:102580001A6600F0F5FD0446414B1B6813F0007F0E
:1025900042D000F0EDFD001B0228F5D9032069E0D0
:1025A0003B4A136C23F080531364DBE7394B002262
:1025B0001A6600F0DDFD0546354B1B6813F0007F01
:1025C00006D000F0D5FD401B0228F5D9032051E0CC
:1025D000E369226A1343626A43EA8213A26A5208D9
:1025E000013A43EA0243E26A43EA0263284A53603B
:1025F000284B01221A6600F0BBFD0446244B1B68E1
:1026000013F0007F06D100F0B3FD001B0228F5D9BE
:1026100003202FE000202DE000202BE0012B2BD009
:102620001B4B5B6803F48001E269914226D103F001
:102630003F02216A8A4223D1616A47F6C0721A407A
:10264000B2EB811F1ED103F44031A26A5208013A55
:10265000B1EB024F18D103F07063E26AB3EB026F83
:1026600014D1002006E001207047012002E0012083
:1026700000E0002002B070BD0120FBE70120F9E777
:102680000120F7E70120F5E70120F3E70120F1E75A
:10269000003802400000474208B5254B9B6803F014
:1026A0000C03042B3FD0082B3FD1214B5A6802F07A
:1026B0003F025B6813F4800F12D01D4B5968C1F3C1
:1026C00088111C480023A1FB0001FEF7CDFA184B2E
:1026D0005B68C3F3014301335B00B0FBF3F025E01B
:1026E000134B5968C1F3881C4FEA4C11B1EB0C0035
:1026F0006EEB0E0E4FEA8E1343EA90638101091AC6
:1027000063EB0E03DB0043EA5173C90011EB0C0CC1
:1027100043F10003990200234FEA8C2041EA9C51C7
:10272000FEF7A2FAD3E7034800E0034808BD00BF64
:102730000038024040787D010024F400002800F0B9
:102740009B8070B50D4604464F4B1B6803F00F038A
:102750008B4208D2CBB24C4A1370136803F00F03BC
:102760008B4240F08B80236813F0020F17D013F0D8
:10277000040F04D0454A936843F4E0539360236800
:1027800013F0080F04D0414A936843F46043936008
:102790003E4A936823F0F003A1680B4393602368DB
:1027A00013F0010F32D06368012B21D09A1E012A49
:1027B00025D9364A126812F0020F61D033498A686F
:1027C00022F0030213438B6000F0D2FC06462F4B2D
:1027D0009B6803F00C036268B3EB820F16D000F025
:1027E000C7FC801B41F288339842F0D9032042E0B5
:1027F000264A126812F4003FE0D101203BE0234A50
:10280000126812F0007FD9D1012034E01E4B1B6802
:1028100003F00F03AB4207D9EAB21B4B1A701B68D7
:1028200003F00F03AB422DD1236813F0040F06D041
:10283000164A936823F4E053E1680B4393602368DE
:1028400013F0080F07D0114A936823F460432169FD
:1028500043EAC1039360FFF71FFF0C4B9B68C3F370
:1028600003130B4AD35CD8400A4B18600A4B186814
:1028700001F074FE002070BD012070470120FAE7CE
:102880000120F8E70120F6E7003C02400038024052
:10289000E88700080C00002008000020014B1868A1
:1028A000704700BF0C00002008B5FFF7F7FF044B8E
:1028B0009B68C3F38223034AD35CD84008BD00BFA2
:1028C00000380240F887000808B5FFF7E7FF044B1F
:1028D0009B68C3F34233034AD35CD84008BD00BFB2
:1028E00000380240F88700080F2303600B4B9A68FA
:1028F00002F0030242609A6802F0F00282609A6875
:1029000002F4E052C2609B68DB0803F4E053036109
:10291000034B1B6803F00F030B6070470038024045
:10292000003C024000230F2B00F2F18070B582B012
:1029300061E085685E000324B44025EA0405CC68A4
:10294000B4402C438460456825EA02054C68C4F312
:1029500000129A402A4342605BE0DC08083450F8D9
:10296000246003F0070295000F22AA4026EA020E17
:102970000A69AA4042EA0E0240F824205DE00922DA
:1029800000E0002202FA0EF22A430234604D45F8BC
:102990002420604A94686FEA0C0224EA0C054E6811
:1029A00016F4801F01D04CEA04055A4CA560E46877
:1029B00002EA04054E6816F4001F01D04CEA040533
:1029C000544CE560646802EA04054E6816F4003F62
:1029D00001D04CEA04054F4C6560246822404D68E4
:1029E00015F4803F01D04CEA04024A4C22600133C6
:1029F0000F2B00F28A8001229A400C6804EA020C34
:102A000032EA0404F3D14C6804F00304013C012CC5
:102A10008FD94A6802F00302032A09D0C4685D0016
:102A20000322AA4024EA02048A68AA402243C26020
:102A30004A6802F00302022A8FD004684FEA430E6C
:102A4000032202FA0EF224EA02044A6802F00302A8
:102A500002FA0EF2224302604A6812F4403FC6D0E6
:102A6000002201922C4A546C44F480445464526C09
:102A700002F480420192019A9C08A51C244A52F853
:102A8000255003F003024FEA820E0F2202FA0EF2E3
:102A900025EA0205214A90423FF473AF02F58062B5
:102AA000904222D002F58062904220D002F58062EE
:102AB00090421ED002F5806290421CD002F58062E6
:102AC00090421AD002F58062904218D002F58062DE
:102AD000904216D002F58062904214D002F58062D6
:102AE00090423FF44CAF0A224CE701224AE702220F
:102AF00048E7032246E7042244E7052242E706228C
:102B000040E707223EE708223CE702B070BD70476D
:102B100000380140003C0140003802400000024003
:102B20000AB18161704709048161704730B405685A
:102B30002C6824F480242C60046863608368402B34
:102B400005D0036899600368DA6030BC7047036899
:102B50009A600368D960F8E710B40368D9B21039F5
:102B60000C4AA2FB014212090B4CA25CC2655F2910
:102B700009D923F47F7323F0030304338365806D45
:102B80005DF8044B704723F47F7323F003038365E0
:102B9000F5E700BFABAAAAAAE0870008836A8269AA
:102BA00092B9012B0AD0022B02D00BB10020704742
:102BB000C36A13F0807F28D100207047C36AB3F145
:102BC000C07F24D000207047B2F5005F09D0022BEF
:102BD00025D9032B25D1C36A13F0807F23D1002090
:102BE0007047032B03D8DFE803F01404140A002015
:102BF0007047C36A13F0807F0DD100207047C36A0D
:102C0000B3F1C07F09D00020704701207047012038
:102C10007047012070470120704701207047012054
:102C200070470020704701207047000070B50446CF
:102C300000F09EFA002C5BD00546022384F8353064
:102C4000002384F834302268136823F001031360F2
:102C500023681A6812F0010F0AD000F089FA431BAA
:102C6000052BF5D920236365032084F8350070BD5A
:102C70001A68204810406168A2680A43E1680A4364
:102C800021690A4361690A43A1690A43E1690A4368
:102C9000216A0A430243616A04291ED01A60266829
:102CA000756925F00705636A1D43042B07D1A36AE4
:102CB0001D43E36A1BB12046FFF770FF90B97561B1
:102CC0002046FFF749FFE26D3F23934083600020D9
:102CD0006065012384F83530C9E7E16A206B014360
:102CE0000A43DBE740236365012084F83500BEE733
:102CF0000120BCE73F8010F038B50446856D90F8A0
:102D0000340001282BD0012084F8340094F83500D9
:102D1000C0B2012804D0002384F83430022038BD2A
:102D2000022084F83500002060652046FFF7FEFE93
:102D3000E26D3F239340AB602268136843F01603B3
:102D40001360236C23B12268136843F008031360F7
:102D50002268136843F0010313600020DFE70220BC
:102D6000DDE770B50446866D00F002FA94F8353060
:102D7000DBB2022B06D080236365002384F8343055
:102D8000012070BD05462268136823F01603136006
:102D90002268536923F080035361236CE3B12268F6
:102DA000136823F0080313602268136823F00103FB
:102DB000136023681B6813F0010F11D000F0D8F9DD
:102DC000431B052BF5D920236365032084F83500C8
:102DD000002384F83430D4E7A36C002BDFD1E3E781
:102DE000E26D3F239340B360012384F83530002027
:102DF00084F83400C5E790F83530DBB2022B03D0FD
:102E00008023436501207047052380F83530026830
:102E1000136823F00103136000207047F0B583B0FE
:102E2000044600230193724B1D68724BA3FB0535CA
:102E3000AD0A876D3E68C26D08239340334210D0BF
:102E400003681A6812F0040F0BD01A6822F004020B
:102E50001A60C26D08239340BB60436D43F00103C9
:102E60004365E26D01239340334209D022685269E1
:102E700012F0800F04D0BB60636D43F00203636502
:102E8000E26D04239340334209D02268126812F0A5
:102E9000020F04D0BB60636D43F004036365E26D11
:102EA00010239340334224D02268126812F0080F96
:102EB0001FD0BB6023681A6812F4802F0DD01B68E6
:102EC00013F4002F04D1236C9BB12046984710E0E7
:102ED000A36C73B1204698470BE01A6812F4807F08
:102EE00003D11A6822F008021A60236C0BB1204645
:102EF0009847E26D20239340334255D022681268F0
:102F000012F0100F50D0BB6094F83530DBB2052BB7
:102F10000ED023681A6812F4802F33D01B6813F484
:102F2000002F2AD1636C002B3ED0204698473BE00F
:102F30002268136823F0160313602268536923F094
:102F400080035361236CA3B12268136823F0080344
:102F50001360E26D3F239340BB60012384F835305A
:102F6000002384F83430236D002B3FD0204698474F
:102F70003CE0A36C002BE7D1EBE7E36BA3B1204669
:102F8000984711E01A6812F4807F09D11A6822F07C
:102F900010021A60012384F83530002384F834309D
:102FA000E36B0BB120469847636DFBB1636D13F083
:102FB000010F17D0052384F835302268136823F0F9
:102FC00001031360019B01330193AB4204D82368D2
:102FD0001B6813F0010FF5D1012384F8353000236D
:102FE00084F83430E36C0BB12046984703B0F0BD51
:102FF0000C000020B5814E1B10B582B00023019358
:10300000194B1A6C42F080521A641B6C03F0805307
:103010000193019B154B01221A6400F0A9F80446A4
:10302000134B5B6813F4803F08D100F0A1F8001B3C
:10303000B0F57A7FF4D9032002B010BD0B4B01220A
:103040005A6400F095F80446094B5B6813F4003F9E
:1030500007D100F08DF8001BB0F57A7FF4D903207A
:10306000EAE70020E8E700BF0038024000000E4217
:1030700000700040074AD36823F4E0631B041B0C74
:10308000000200F4E060034343F0BF6343F4003305
:10309000D360704700ED00E000B5194BDB68C3F367
:1030A0000223C3F1070CBCF1040F28BF4FF0040C3E
:1030B00003F1040EBEF1060F18D9033B4FF0FF3E9B
:1030C0000EFA0CFC21EA0C0199400EFA03F322EAF5
:1030D0000303194300280BDB0901C9B200F160406A
:1030E00000F5614080F800135DF804FB0023E5E77C
:1030F00000F00F000901C9B2024B1954F4E700BFF8
:1031000000ED00E014ED00E0002807DB00F01F02F6
:10311000400901239340024A42F82030704700BF23
:1031200000E100E008B50B4B1A6842F400721A6027
:103130001A6842F480621A601A6842F480721A6057
:103140000320FFF797FF0F2001F008FAFEF7FAFBC4
:10315000002008BD003C0240034A1168034B1B7865
:103160000B441360704700BF680200200400002079
:10317000014B1868704700BF6802002038B504464C
:10318000FFF7F6FF0546B4F1FF3F02D0044B1B7872
:103190001C44FFF7EDFF401BA042FAD338BD00BF2F
:1031A00004000020026802F10C0353E8003F23F4FE
:1031B00090730C3242E800310029F3D1026802F129
:1031C000140353E8003F23F00103143242E80031B6
:1031D0000029F3D1036B012B05D0202380F8423066
:1031E000002303637047026802F10C0353E8003FB9
:1031F00023F010030C3242E800310029F3D1ECE750
:1032000090F84130DBB2212B01D002207047836857
:10321000B3F5805F17D0036A5A1C02621A780368FC
:103220005A60C38C9BB2013B9BB2C3844BB902680A
:10323000D36823F08003D3600268D36843F040036F
:10324000D360002070470369002BE4D1036A1B8818
:103250000268C3F308035360036A02330362E0E7C2
:1032600038B504460268136923F44053C1680B4320
:10327000136183680269134342691343C2691A43A5
:103280000168CB6823F4164323F00C031343CB608F
:103290000268536923F4407381690B4353610368E7
:1032A000314A934206D002F58062934202D0FFF782
:1032B000FBFA01E0FFF708FBE369B3F5004F29D003
:1032C0000021031849411B1841F10001C90041EADE
:1032D0005371DB00181863684FEA83024FEA937357
:1032E00041F10001FDF7C0FC204DA5FB0032510962
:1032F000642303FB11031B013233A5FB03235B098A
:1033000003F0F00202EB011203F00F0321681344F3
:103310008B6038BD0023021843EB0301121841F102
:103320000001C90041EA5271D200101841F10001B8
:10333000626892185B41FDF797FC0C4DA5FB0032CB
:103340005109642303FB1103DB003233A5FB032384
:103350005B095A0002F4F87202EB011203F0070352
:10336000216813448B60D4E7001001401F85EB51A6
:1033700060B310B5044690F8413013B3242384F8A9
:1033800041302268D36823F40053D3602046FFF70E
:1033900067FF2268136923F490431361226853691D
:1033A00023F02A0353612268D36843F40053D360A7
:1033B00000206064202384F8413084F84230606348
:1033C00010BD80F84030FEF7F3F9D7E701207047D1
:1033D000704708B50168CA6822F04002CA6020221E
:1033E00080F84120FFF7F4FF002008BD70477047C8
:1033F00008B5806B0023C385C384FFF7F8FF08BDC1
:10340000704790F84230DBB2222B69D18368B3F564
:10341000805F4FD0826AB3F5805F04D0002B56D115
:103420000369002B53D103685B681370836A01330F
:103430008362C38D9BB2013B9BB2C385002B51D1EC
:1034400000B583B00268D36823F02003D36002681C
:10345000D36823F48073D3600268536923F00103B7
:103460005361202380F8423000234363036B012B18
:1034700033D100230363026802F10C0353E8003FD9
:1034800023F010030C3242E800310029F3D1036825
:103490001A6812F0100F06D0002201921A680192E9
:1034A0005B680193019B818DFFF7AAFF002003B0A9
:1034B0005DF804FB0269002AACD1826A03685B688C
:1034C000C3F308031380836A02338362B1E703689E
:1034D0005B6803F07F031370A8E7FFF787FFE5E75A
:1034E000022070470020704730B583B00446026860
:1034F0001368D068516913F00F0505D113F0200F40
:1035000002D010F0200F19D12DB111F0010119D105
:1035100010F4907F16D1216B01297DD013F0800F1C
:1035200003D010F0800F40F0198113F0400F03D04A
:1035300010F0400F40F0168103B030BD2046FFF779
:1035400060FFF9E713F0010F06D010F4807F03D07D
:10355000626C42F00102626413F0040F04D019B1EE
:10356000626C42F00202626413F0020F04D019B1DF
:10357000626C42F00402626413F0080F07D010F08E
:10358000200F00D119B1626C42F008026264626CD3
:10359000002AD1D013F0200F02D010F0200F29D133
:1035A00023685B6903F04003626C12F0080F00D1DE
:1035B00063B32046FFF7F6FD23685B6913F0400F05
:1035C00020D0226802F1140353E8003F23F04003A7
:1035D000143242E800310029F3D1E36B73B1634A3E
:1035E0001A65E06BFFF707FC0028A5D0E06B036DC0
:1035F0009847A1E72046FFF704FFD1E72046FFF7F1
:10360000F6FE99E72046FFF7F2FE95E72046FFF722
:10361000EEFE002363648FE713F0100F3FF47EAFDC
:1036200010F0100F3FF47AAF002301931368019359
:1036300053680193019B536913F0400F52D0E26B22
:1036400013685B689BB2002B3FF476AFA18D994263
:103650007FF672AFE385D369B3F5807F37D02268F8
:1036600002F10C0353E8003F23F480730C3242E86C
:1036700000310029F3D1226802F1140353E8003F1E
:1036800023F00103143242E800310029F3D122680B
:1036900002F1140353E8003F23F04003143242E8E0
:1036A00000310029F3D1202384F842300023236322
:1036B000226802F10C0353E8003F23F010030C32A0
:1036C00042E800310029F3D1E06BFFF74AFB022307
:1036D0006363A18DE38D9BB2C91A89B22046FFF7BF
:1036E0008FFE29E7A18DE38D9BB2C91A89B2E38DC4
:1036F0009BB2002B3FF420AF00293FF41DAF22689E
:1037000002F10C0353E8003F23F490730C3242E8BB
:1037100000300028F3D1226802F1140353E8003F7F
:1037200023F00103143242E800300028F3D12023B3
:1037300084F8423000232363226802F10C0353E82B
:10374000003F23F010030C3242E800300028F3D190
:10375000022363632046FFF753FEEDE62046FFF7A2
:103760004FFDE9E62046FFF734FEE5E6F1330008B9
:10377000034AD2F8883043F47003C2F888307047A7
:1037800000ED00E008B50D480D4B03604FF4827367
:10379000436000238360C360036143614FF4802270
:1037A0008261C3610362436283620A23C36200F0E1
:1037B000DDFC00B908BDFDF7E5FBFBE7DC0A0020F6
:1037C000003C00402DE9F0418AB0002305930693A8
:1037D0000793089309930268434B9A4202D00AB0B8
:1037E000BDE8F08104460025009503F5FE331A6B11
:1037F00042F010021A631A6B02F010020092009A53
:1038000001951A6B42F010021A631A6B02F0100253
:103810000192019A02951A6C42F400421A641A6CE1
:1038200002F400420292029A03951A6B42F00102DE
:103830001A631A6B02F001020392039A04951A6B41
:1038400042F004021A631B6B03F004030493049B0D
:10385000102305934FF00208CDF81880032708972E
:103860000626099605A92148FFF75CF84FF4A053F6
:103870000593CDF8188007950897099605A91C4867
:10388000FFF750F81B481C4B0360456040238360E2
:10389000C5604FF48063036145618561C5614FF484
:1038A000803303624562FFF7C1F9C8B9114BA364C5
:1038B0009C630823059301260696022307930024A0
:1038C00008940E4D05A92846FFF72CF81023059300
:1038D00006960794089405A92846FFF723F87EE783
:1038E000FDF750FBE2E700BF003C00400000024053
:1038F000000802407C0A002088600240001002405C
:1039000000B583B08DF80700002210210648FFF7AC
:1039100007F94FF47A7301220DF10701034800F013
:1039200084FC03B05DF804FB00100240DC0A0020B8
:1039300000B583B08DF80700012210210648FFF77B
:10394000EFF84FF47A7301220DF10701034800F0FC
:103950006CFC03B05DF804FB00100240DC0A0020A0
:1039600000B583B0030A8DF804308DF805000122FC
:1039700010210948FFF7D4F8022201A9074800F0F6
:1039800031FD074B1B78002BFBD0054B00221A7032
:1039900003B05DF804FB00BF00100240DC0A002009
:1039A000340B002038B505460C460122102108488A
:1039B000FFF7B6F8620092B22946064800F012FD01
:1039C000054B1B78002BFBD0034B00221A7038BD2F
:1039D00000100240DC0A0020340B00202DE9F041E9
:1039E00080460E4617461D462A20FFF789FF0F4CDA
:1039F000A37A03EB080080B2FFF7B2FFA07A384445
:103A000080B2FFF7ADFF2B20FFF77AFFE07A30445A
:103A100080B2FFF7A5FFE07A284480B2FFF7A0FF4D
:103A20002C20FFF76DFFBDE8F08100BF6C02002085
:103A3000014B1880704700BF6C020020014B58807A
:103A4000704700BF6C02002008B5274B587130B199
:103A5000022815D0012824D0032833D008BD3620F1
:103A6000FFF74EFF7020FFF763FF1F4B14229A727F
:103A70000022DA724FF4A072DA80F0221A81EDE7A8
:103A80003620FFF73DFF0020FFF752FF164B0022C4
:103A90009A721422DA72F022DA804FF4A0721A813C
:103AA000DCE73620FFF72CFFA020FFF741FF0E4B8D
:103AB00014229A720022DA724FF4A072DA80F02295
:103AC0001A81CBE73620FFF71BFFC020FFF730FF3E
:103AD000054B00229A721422DA72F022DA804FF437
:103AE000A0721A81BAE700BF6C020020014B186077
:103AF000704700BF7802002010B5002305E0164A89
:103B00005188164A22F813100133B3F5806FF6DBA3
:103B1000114BDA881B89013B013A9BB292B200211A
:103B20000846FFF75BFF012210210D48FEF7F8FF62
:103B300000240DE04FF4006208490A4800F052FCEE
:103B4000094B1B78002BFBD0074B00221A70013465
:103B50004A2CEFDD10BD00BF6C0200207C0200206B
:103B600000100240DC0A0020340B00202DE9F04157
:103B7000A2F12007FFB200239E461E4623E0244AFE
:103B8000B2F80280234A22F81E8064080EF1010E6A
:103B90001FFA8EFE01339BB2AA889A4210D00CF114
:103BA000010C1FFA8CFCBCF1070F0AD814F0010FAE
:103BB000E5D0174AB2F80080164A22F81E80E4E7E2
:103BC00000230136B6B2144A15682C89B44206D9CE
:103BD0002A6804FB0764145D4FF0000CE3E7AA8831
:103BE000024492B2EB880B449BB2013B013A9BB278
:103BF00092B2FFF7F3FE084B1B689988DB8811FB34
:103C000003F189B20348FFF7CDFEBDE8F08100BFA4
:103C10006C0200207C0200207802002070B504466F
:103C20000E46154609E031462046FFF79FFF074B39
:103C30001B6898880444A4B20135054BDB88A34275
:103C400002D92A78002AEED170BD00BF7802002088
:103C50006C020020014B1871704700BF6C020020FD
:103C600008B5FFF78FFD0A20FFF788FA3620FFF727
:103C700047FE0020FFF75CFE3A20FFF741FE0520DB
:103C8000FFF756FEB220FFF73BFE0C20FFF750FE79
:103C90000C20FFF74DFE0020FFF74AFE3320FFF710
:103CA00047FE3320FFF744FEB720FFF729FE3520FB
:103CB000FFF73EFEBB20FFF723FE1920FFF738FE7B
:103CC000C020FFF71DFE2C20FFF732FEC220FFF7B9
:103CD00017FE0120FFF72CFEC320FFF711FE122074
:103CE000FFF726FEC420FFF70BFE2020FFF720FE83
:103CF000C620FFF705FE0F20FFF71AFED020FFF7C2
:103D0000FFFDA420FFF714FEA120FFF711FEE02025
:103D1000FFF7F6FDD020FFF70BFE0420FFF708FEAB
:103D20000D20FFF705FE1120FFF702FE1320FFF71D
:103D3000FFFD2B20FFF7FCFD3F20FFF7F9FD54208E
:103D4000FFF7F6FD4C20FFF7F3FD1820FFF7F0FD1D
:103D50000D20FFF7EDFD0B20FFF7EAFD1F20FFF719
:103D6000E7FD2320FFF7E4FDE120FFF7C9FDD020A8
:103D7000FFF7DEFD0420FFF7DBFD0C20FFF7D8FD89
:103D80001120FFF7D5FD1320FFF7D2FD2C20FFF700
:103D9000CFFD3F20FFF7CCFD4420FFF7C9FD5120A8
:103DA000FFF7C6FD2F20FFF7C3FD1F20FFF7C0FD63
:103DB0001F20FFF7BDFD2020FFF7BAFD2320FFF7EE
:103DC000B7FD2120FFF79CFD1120FFF799FD78201A
:103DD000FFF7D4F92920FFF793FD0020FFF734FE09
:103DE0000020FFF72BFE4FF6FF70FFF721FEFFF7D5
:103DF00083FE0648FFF77AFE0020FFF72BFF012223
:103E000008210348FEF78CFE08BD00BF100000200B
:103E10000010024030B585B004460D4611461A46E2
:103E20000A4B1B795BB90B460949684602F08AFCCC
:103E30006A4629462046FFF7F1FE05B030BD0B4625
:103E40000449684602F07EFCF2E700BF6C020020E5
:103E500000880008088800082DE9F0412DED028B4C
:103E6000A8B007468846B0EE408A16461D464FF079
:103E7000000C0AE00CF1A0030DEB0304202304F86E
:103E8000283C0CF1010C5FFA8CFCBCF1130FF1D94A
:103E900000238DF88C30B5EEC08AF1EE10FA0DD407
:103EA000F0EE487AFDEEE78AB8EEE87A77EEC77A68
:103EB00017EE900AFCF758FB002408E0F1EE487A70
:103EC000F0E700224E4BFCF7A7FB0134E4B2AC4212
:103ED000F7D341EC100B03F0E7F851EC100BFCF7B3
:103EE0004BFE044618EE902A46490FA802F02AFC21
:103EF00023462A4644490AA802F024FCCDB10AAB65
:103F00000FAA4249684602F01DFC414B1C79002C67
:103F100040D16846FCF76CF9B5EEC08AF1EE10FAB4
:103F200025D5301A00F1A0036B442D2203F8502C44
:103F30000CE00FA9684602F025FCE6E704F1A003B7
:103F40006B44302203F8502C0134E4B2A042F5DC7B
:103F50006B4614AA2F491EA802F0F4FB10E004F1EE
:103F6000A0036B44302203F8502C0134E4B2331A1E
:103F70009C42F4DB6B4614AA26491EA802F0E2FB21
:103F80001EAA41463846FFF749FE28B0BDEC028B19
:103F9000BDE8F0816846FCF72BF9B5EEC08AF1EE7A
:103FA00010FA01D4002321E0301A00F1A0036B4481
:103FB0002D2203F8502C002307E003F1A0026A44ED
:103FC000202102F8501C0133DBB29842F5DC6B462D
:103FD00014AA10491EA802F0B5FBD1E703F1A00214
:103FE0006A44202102F8501C0133DBB2321A93429A
:103FF000F4DB6B4614AA07491EA802F0A3FBBFE737
:10400000000024400C880008108800081888000868
:104010006C020020208800082DE9F04782B0054698
:10402000884617461E46FFF7A3F80A9B1B1A03EBA8
:104030000609FFF79DF882462B4B1B68C3F3CB3371
:1040400009FB03F301932B689C6838EA04030CBF57
:104050004FF0010C4FF0000CBC4540D0B6F1FF3FD3
:10406000F1D0FFF785F8A0EB0A0048450AD2B9F174
:10407000000F07D0019A02B14A46019B013B019310
:104080009146E0E72A68536823F0E00353606B68C9
:10409000B3F5827F0BD0AB6AB3F5005F14D0012378
:1040A00085F85130002385F85030032018E0AB68C4
:1040B000B3F5004F02D0B3F5806FECD12A681368D6
:1040C00023F040031360E6E72A68136823F40053E3
:1040D00013602A68136843F400531360DFE700207D
:1040E00002B0BDE8F08700BF0C00002070B584B0BE
:1040F00004460D46164600920B4601220221FFF7A8
:104100008BFFD0B9174B1B68174AA2FB03235B0D2B
:104110004FF47A7202FB03F303936368B3F5827F73
:1041200011D0039B3BB1039B013B039323689B6826
:1041300013F0800FF5D104B070BD636D43F0200320
:1041400063650320F7E700962B4600228021204676
:10415000FFF762FF0028EED0636D43F02003636534
:104160000320E8E70C000020819F5E1600285AD04B
:1041700010B50446436A33B94368B3F5827F05D06E
:104180000023C36102E00023036143610023A362B3
:1041900094F85130002B40D0022384F8513022682B
:1041A000136823F040031360636803F48273A2680A
:1041B00002F404421343E26802F4006213432269EA
:1041C00002F002021343626902F001021343A26982
:1041D00002F400721343E26902F038021343226AC8
:1041E00002F080021343A26A02F4005221681343D2
:1041F0000B60638B03F00403626A02F01002216813
:1042000013434B602268D36923F40063D361002019
:104210006065012384F8513010BD84F85030204689
:10422000FFF7D0FAB8E7012070472DE9F04383B0DB
:104230001D4690F85030012B00F0D180044688468E
:104240009146012380F85030FEF792FF074694F81C
:104250005160F6B2012E40F0BA80B8F1000F00F0C4
:10426000B780B9F1000F00F0B380032384F8513018
:1042700000236365C4F83080A4F83490A4F8369025
:10428000A363A387E38763642364A368B3F5004F44
:104290001ED023681A6812F0400F03D11A6842F04A
:1042A00040021A60E368B3F5006F1CD0636813B175
:1042B000B9F1010F55D1226B236812781A73236B61
:1042C00001332363E38E9BB2013B9BB2E38648E05C
:1042D0002268136823F0400313602268136843F4D4
:1042E00080431360D5E7636813B1B9F1010F15D1AD
:1042F000226B23681288DA60236B02332363E38E18
:104300009BB2013B9BB2E38608E0FEF731FFC01B86
:10431000A84202D3B5F1FF3F15D1A5B1E38E9BB200
:10432000002B3CD023689A6812F0020FEDD0226B6C
:104330001288DA60236B02332363E38E9BB2013B66
:104340009BB2E386EAE7012384F8513003263FE07D
:10435000FEF70EFFC01BA84202D3B5F1FF3F19D1F3
:10436000C5B1E38E9BB2D3B123689A6812F0020FF5
:10437000EED0226B12781A73236B01332363B4F8E7
:1043800036C01FFA8CFC0CF1FF3C1FFA8CFCA4F821
:1043900036C0E6E7012384F85130032618E03A4698
:1043A00029462046FFF7A2FE08B120236365A368D3
:1043B00033B901932368DA6801929B680193019BEA
:1043C000636D2BB9012384F85130002600E00226EA
:1043D000002384F85030304603B0BDE8F083022655
:1043E000F9E7000038B590F85030012B5ED0044654
:1043F000012380F8503090F85150EDB29D424FD1DA
:1044000000294ED0002A4CD0032380F851300023DD
:10441000436501638286C286836343640364838742
:10442000C3878368B3F5004F2AD0A36C204A1A646F
:10443000A36C204ADA63A36C1F4ADA64A36C0022DF
:104440001A652268E38E9BB20C32216BA06CFEF7DA
:1044500053FC0146F8B923681A6812F0400F03D1E3
:104460001A6842F040021A602268536843F0200341
:1044700053602268536843F0020353600D4610E016
:104480000268136823F0400313600268136843F462
:1044900080431360C9E7636D43F01003636500E078
:1044A0000225002384F85030284638BD0225FBE75A
:1044B000BF440008ED440008CB440008704708B52D
:1044C000806BFFF7FBFF08BD704708B5806B026883
:1044D000536823F003035360436D43F010034365B7
:1044E000012380F85130FFF7EFFF08BD30B583B0EE
:1044F0000546846BFEF73CFE2B681B6813F4807F37
:1045000023D1024621684B6823F020034B602168C9
:104510004B6823F002034B6064212046FFF7E6FD61
:1045200018B1636D43F020036365A36833B9019349
:104530002368DA6801929B680193019B0023E3865C
:10454000012384F85130636D23B92046FCF75CFEEB
:1045500003B030BD2046FFF7B7FFF9E730B589B0AB
:104560000546002401941E4B5A6C42F001025A6425
:104570005B6C03F001030193019B02A903A8FEF702
:10458000B3F9FEF7A1F943001648A0FB03239B0CE7
:10459000013B1548154A026040F2E732C2604360B1
:1045A000046184608461FDF717FC044610B1204665
:1045B00009B030BD0C48FDF7ABFA04460028F6D12F
:1045C0001920FEF7A1FD0F2D01D90124EFE70022EC
:1045D00029461920FEF760FD054B1D60E7E700BF87
:1045E0000038024083DE1B43380B002000000140EE
:1045F0000800002000B583B001F024FE0F4B0193AA
:104600000123009300234FF480720D490D4800F000
:1046100096FE0D4B01930223009300234FF480720A
:104620000A490B4800F08BFE0A4B186801F0F6FFB0
:1046300001F02AFE03B05DF804FB00BF800B0020F0
:10464000F899000879480008840B0020049A0008B3
:1046500059460008880B002008B5B2EE040AFDF7A1
:1046600037F8012001F0A8F8F7E7000008B5044A80
:104670000021044801F074FF034B186008BD00BF1F
:104680004C9A0008F5450008880B002010B5002062
:10469000FFF7DAF90020FFF7CBF900240BE04FF425
:1046A0007840FFF7CBF9FFF727FA4FF47A7001F063
:1046B00083F80134E4B2042C21D8042CF3D801A3EC
:1046C00053F824F09F460008D9460008E346000846
:1046D000EB460008F54600084FF4FC60FFF7AEF922
:1046E000E1E71F20FFF7AAF9DDE74EF65D70FFF75F
:1046F000A5F9D8E74FF6FF70FFF7A0F9D3E710BD93
:10470000F8B50020FFF79AF9FFF7F6F91F20FFF739
:104710008FF9534A1E210020FFF780FA514A3C21AD
:104720000020FFF77BFA4FF4FC60FFF781F94E4A57
:1047300064210020FFF772FA4C4A82210020FFF723
:104740006DFA4FF47840FFF773F9494AAA21002027
:10475000FFF764FA474AC8210020FFF75FFA0024F8
:104760006AE01F20FFF764F90120FFF773FA04EBFA
:104770008402042352001E215020FFF74BFB042328
:104780006FF0090204FB02F23C215020FFF742FBCC
:104790004FF4FC60FFF74CF90120FFF75BFA962518
:1047A00004FB05F508232A4664218220FFF732FB2B
:1047B0000020FFF74FFA08232A4682210846FFF718
:1047C00029FB4FF47840FFF733F90120FFF742FA55
:1047D0002046FBF7B7FE06460F461BA3D3E900238E
:1047E000FBF71AFF1AA3D3E90023FBF75FFDFCF7E1
:1047F000EBF903230A2200EE100AAA216420FFF736
:104800002BFB15A3D3E9002330463946FBF704FF01
:104810000FA3D3E90023FBF747FDFCF7D5F90423E9
:104820000A2200EE100AC8216420FFF715FB0F20B2
:1048300000F0C2FF0134A4B2632C92D940F6C41038
:1048400000F0BAFFF8BD00BF9A9999999999B93FBC
:104850001D5A643BDFC75E407B14AE47E17A843F5C
:10486000109A0008189A0008209A0008289A000850
:10487000309A0008389A000808B5FFF707FFFFF7DD
:104880003FFFFAE700F1080343604FF0FF32826018
:10489000C360036100230360704700230361704716
:1048A00043684B609A688A60516099600861036848
:1048B00001330360704730B40D68B5F1FF3F11D08C
:1048C00000F108031C465B681A68AA42FAD96368BB
:1048D0004B6099608C60616008610368013303601C
:1048E00030BC70470469F2E70369416882688A60F6
:1048F000416851605A68824206D0002202611A68FB
:10490000013A1A601868704782685A60F5E710B576
:10491000044601F097FCA26BE36B9A4204D000249A
:1049200001F0B2FC204610BD0124F9E710B50446A1
:1049300001F088FCA36B23B9012401F0A5FC2046FB
:1049400010BD0024F9E770B504461546866B026C6D
:104950005AB903681BB100200136A66370BD806898
:1049600001F078F80023A360F6E76DB9406801F024
:10497000D3FE226C636813446360A268934219D328
:10498000236863602846E7E7C06801F0C5FE226C33
:104990005142E3689B1AE3602268934202D2A36803
:1049A0000B44E360022D01D00020D5E726B1013E83
:1049B0000020D1E72846CFE70020CDE70346026C70
:1049C0006AB110B50846D9681144D9609C68A14203
:1049D00001D31968D960D96801F09EFE10BD7047F7
:1049E00038B5054601F02EFC95F8454064B201E06B
:1049F000013C64B2002C0ADD6B6A43B105F124006E
:104A000000F07EFF0028F3D001F00EF8F0E7FF235E
:104A100085F8453001F038FC01F014FC95F844406D
:104A200064B201E0013C64B2002C0ADD2B6943B1A1
:104A300005F1100000F064FF0028F3D000F0F4FF4F
:104A4000F0E7FF2385F8443001F01EFC38BD38B58F
:104A5000E0B10D46044601F0F5FB2368E26B216CE2
:104A600001FB0230A0600020A0636360013A02FBFA
:104A70000133E360FF2384F8443084F84530FDB906
:104A8000236963B901F000FC012038BD4FF05003E9
:104A900083F31188BFF36F8FBFF34F8FFEE704F1ED
:104AA000100000F02DFF0028ECD04FF0E0234FF075
:104AB0008052C3F8042DBFF34F8FBFF36F8FE1E730
:104AC00004F11000FFF7DEFE04F12400FFF7DAFE28
:104AD000D8E738B51D46049C0B4649B92460E0630D
:104AE000236401212046FFF7B2FF84F84C5038BD03
:104AF0002260F4E740B94FF0500383F31188BFF30D
:104B00006F8FBFF34F8FFEE710B584B01C4684460D
:104B100053B192B189B94FF0500383F31188BFF3B9
:104B20006F8FBFF34F8FFEE74FF0500383F3118871
:104B3000BFF36F8FBFF34F8FFEE76AB1502303932C
:104B4000039B502B13D04FF0500383F31188BFF316
:104B50006F8FBFF34F8FFEE70029EFD04FF0500368
:104B600083F31188BFF36F8FBFF34F8FFEE7039B73
:104B7000012384F8463000949DF818306046FFF712
:104B8000A8FF204604B010BDF0B585B0019288B1F1
:104B90000F461D460446B1B1022D20D1E36B012B17
:104BA0001DD04FF0500383F31188BFF36F8FBFF315
:104BB0004F8FFEE74FF0500383F31188BFF36F8FE1
:104BC000BFF34F8FFEE7036C002BE5D04FF050038F
:104BD00083F31188BFF36F8FBFF34F8FFEE700F0B1
:104BE00029FF064658B9019B002B48D04FF05003CF
:104BF00083F31188BFF36F8FBFF34F8FFEE700265B
:104C00003DE02A4639462046FFF79DFE636A7BB9A0
:104C100048B14FF0E0234FF08052C3F8042DBFF3AA
:104C20004F8FBFF36F8F01F02FFB012005B0F0BD58
:104C300004F1240000F064FE0028F4D04FF0E023DB
:104C40004FF08052C3F8042DBFF34F8FBFF36F8F27
:104C5000E9E701F019FB0020E8E702A800F096FE62
:104C6000012619E0002384F8443021E0002384F871
:104C7000453023E02046FFF7B3FE00F021FD01F0B0
:104C8000E1FAA26BE36B9A42BBD3022DB9D0019B30
:104C9000002BDED0002EE0D001F0F6FA00F076FC1A
:104CA00001F0D0FA94F8442052B2B2F1FF3FD9D0CB
:104CB00094F8452052B2B2F1FF3FD7D001F0E4FAA8
:104CC00001A902A800F06EFED8B92046FFF71FFE2A
:104CD0000028CFD0019904F1100000F0DDFD20463E
:104CE000FFF77EFE00F0ECFC0028C8D14FF0E02377
:104CF0004FF08052C3F8042DBFF34F8FBFF36F8F77
:104D0000BDE72046FFF76CFE00F0DAFC00208DE7DF
:104D10002DE9F84390B10F4616461C460546B1B141
:104D2000022C20D1EB6B012B1DD04FF0500383F3ED
:104D30001188BFF36F8FBFF34F8FFEE74FF0500323
:104D400083F31188BFF36F8FBFF34F8FFEE7036CC0
:104D5000002BE5D04FF0500383F31188BFF36F8F22
:104D6000BFF34F8FFEE701F093FBEFF311894FF094
:104D7000500383F31188BFF36F8FBFF34F8FAA6B7C
:104D8000EB6B9A4206D3022C04D0002089F31188E1
:104D9000BDE8F88395F845804FFA88F8AB6B22465A
:104DA00039462846FFF7CFFDB8F1FF3F06D008F19E
:104DB00001035BB285F845300120E7E76B6A0BB968
:104DC0000120E3E705F1240000F09AFD18B126B1B7
:104DD00001203060DAE70120D8E70120D6E7F0B5FE
:104DE00085B0019290B10F460446C1B100F022FE99
:104DF000064600BB019B002B5ED04FF0500383F3AF
:104E00001188BFF36F8FBFF34F8FFEE74FF0500352
:104E100083F31188BFF36F8FBFF34F8FFEE7036CEF
:104E2000002BE3D04FF0500383F31188BFF36F8F53
:104E3000BFF34F8FFEE700263EE039462046FFF7DE
:104E4000BDFD013DA563236923B901F01DFA0120D1
:104E500005B0F0BD04F1100000F052FD0028F4D0C0
:104E60004FF0E0234FF08052C3F8042DBFF34F8F73
:104E7000BFF36F8FE9E701F007FA0020E8E702A827
:104E800000F084FD012621E0002384F8443029E06D
:104E9000002384F845302BE02046FFF7A1FD00F009
:104EA0000FFC09E02046FFF79BFD00F009FC2046BF
:104EB000FFF73CFD00283FD101F0C4F9A56B002DA0
:104EC000BBD1019B002BD6D0002ED8D001F0DCF94D
:104ED00000F05CFB01F0B6F994F844305BB2B3F13A
:104EE000FF3FD1D094F845305BB2B3F1FF3FCFD054
:104EF00001F0CAF901A902A800F054FD0028D1D19F
:104F00002046FFF713FD0028C6D0019904F12400C4
:104F100000F0C2FC2046FFF763FD00F0D1FB002843
:104F2000CAD14FF0E0234FF08052C3F8042DBFF3F5
:104F30004F8FBFF36F8FBFE7002089E70023072B58
:104F40000CD8074A52F833200AB10133F7E7044A74
:104F500042F8331002EBC30358607047704700BF3C
:104F60008C0B002070B504460D46164601F06AF918
:104F700094F844305BB2B3F1FF3F0DD094F8453064
:104F80005BB2B3F1FF3F0BD001F07EF9A36B5BB1D5
:104F90002046FFF725FD70BD002384F84430EDE77F
:104FA000002384F84530EFE73246294604F1240017
:104FB00000F08AFCECE70000084B1B681B6823B973
:104FC000074B4FF0FF321A607047044B1B68DB68D9
:104FD000DB685A68024B1A60704700BFD00B002094
:104FE000781000202DE9F04780460D461746994677
:104FF000089EDDF824A00A9C9200A521206B01F0F8
:1050000099FB236B07F18042013A03EB820727F0FB
:105010000707B5B34FF0000CBCF10F0F0BD815F814
:105020000C2004EB0C0383F8342015F80C3013B17A
:105030000CF1010CF0E7002384F84330372E00D93F
:105040003726E662E66400252565201DFFF725FC6E
:1050500004F11800FFF721FC2461C6F13806A661AF
:105060006462656584F858504A464146384601F006
:10507000C1F82060BAF1000F01D0CAF80040BDE8C5
:10508000F087002384F83430D8E7000038B50024D6
:1050900007E004EB840293000E481844FFF7F2FB8C
:1050A0000134372CF5D90C4D2846FFF7EBFB0B4CA0
:1050B0002046FFF7E7FB0A48FFF7E4FB0948FFF744
:1050C000E1FB0948FFF7DEFB084B1D60084B1C6045
:1050D00038BD00BFD80B00204C100020601000200D
:1050E00084100020B01000209C100020D00B002065
:1050F000D40B002010B5044601F0A4F8224A13682E
:1051000001331360214B1B685BB1214B1B686BB9EA
:105110001E4B1B68DA6AE36A9A4207D81B4B1C6075
:1051200004E01A4B1C601368012B29D0194A13683C
:10513000013313606364E06A174B1B68984201D91E
:10514000154B186000EB8000211D144B03EB800011
:10515000FFF7A6FB01F098F80D4B1B687BB10B4BDA
:105160001B68DA6AE36A9A4209D24FF0E0234FF0F3
:105170008052C3F8042DBFF34F8FBFF36F8F10BD64
:10518000FFF784FFD2E700BF38100020CC0B0020CF
:10519000981000204410002048100020D80B002058
:1051A00010B5044690F8593063B1012B11D0022B91
:1051B0000ED04FF0500383F31188BFF36F8FBFF30E
:1051C0004F8FFEE7006B00F099FF204600F096FF3E
:1051D00010BD00F093FFFBE70F4B1B68D3B110B578
:1051E00001F030F80D4BDB68DC68201DFFF77CFB1D
:1051F0000B4A1368013B1360074A1368013B1360B5
:1052000001F042F82046FFF7CBFF034B1B68002B51
:10521000E6D110BD704700BF3C100020B010002048
:105220003810002008B5FFF7D7FF074B1B68012B8C
:10523000F9D94FF0E0234FF08052C3F8042DBFF3AB
:105240004F8FBFF36F8FEEE7D80B002070B5044689
:105250000D46174B1E68174B18680430FFF744FBC8
:10526000B4F1FF3F0DD03444124B1B685C60A64282
:1052700010D9114B18680F4B19680431FFF71BFB4D
:1052800070BD002DEFD00B4B196804310B48FFF7B0
:1052900007FBF5E70A4B1868064B19680431FFF75E
:1052A0000AFB084B1B68A342EAD9064B1C60E7E7E0
:1052B000C4100020CC0B0020D40B00209C10002038
:1052C000D00B00207810002030B587B00B9C7CB14B
:1052D0000C9DB5B15C250495049D5C2D1AD04FF052
:1052E000500383F31188BFF36F8FBFF34F8FFEE737
:1052F0004FF0500383F31188BFF36F8FBFF34F8FCD
:10530000FEE74FF0500383F31188BFF36F8FBFF3B5
:105310004F8FFEE7049D0C9D2C63022485F85940B5
:1053200000240394029505AC01940A9C0094FFF7B5
:1053300059FE0C98FFF7DEFE059807B030BD2DE949
:10534000F04385B00746884614461E46900000F09C
:1053500057FE00B381465C2000F052FE0546B0B116
:10536000C0F83090E5B1002385F8593003930295D9
:105370000D9B01930C9B00933346224641463846D1
:10538000FFF730FE2846FFF7B5FE012005E048464E
:1053900000F0B4FEE6E74FF0FF3005B0BDE8F08363
:1053A0004FF0FF30F9E7000038B5044600F04AFF3F
:1053B00024B3251D2846FFF797FAA36A1BB104F111
:1053C0001800FFF791FA1F4A1368013313601E4B50
:1053D0001B68A34215D01D4A1368013B1360204689
:1053E000FFF7DEFEFFF7E8FD00F04EFF184B1B68ED
:1053F0001BB1154B1B68A3420CD038BD124B1C6867
:10540000D7E729461348FFF74BFA134A13680133CD
:105410001360E9E7114B1B6843B14FF0500383F36E
:105420001188BFF36F8FBFF34F8FFEE74FF0E0237C
:105430004FF08052C3F8042DBFF34F8FBFF36F8F2F
:10544000DBE700BF44100020CC0B00203810002008
:1054500098100020B01000203C10002040100020C8
:10546000F8B5D0B104461D4B1B6883422DD000F027
:10547000E9FE65691A4B1E681A4B1F6800F004FFAD
:10548000B54224D0BD4224D0174B9D420ED0174BBD
:105490009D4220D0BDB1012018E04FF0500383F3AE
:1054A0001188BFF36F8FBFF34F8FFEE7A36A0BB175
:1054B00002200BE094F85830DBB2012B01D003201E
:1054C00004E0022002E0042000E00020F8BD0220F9
:1054D000FCE70220FAE70420F8E700BFCC0B00202D
:1054E000D00B0020D40B00209C100020B010002016
:1054F00010B588B000240594069407AA06A905A84B
:1055000001F0A4F8059B0293069B019300942346A7
:10551000079A18491848FFF7D7FE184B186040B192
:1055200000F04CFB012806D0B0F1FF3F18D008B0C6
:1055300010BD0020F6E74FF0500383F31188BFF34E
:105540006F8FBFF34F8F0E4B4FF0FF321A600D4B32
:1055500001221A600C4B00221A6000F00DFFE6E7F2
:105560004FF0500383F31188BFF36F8FBFF34F8F5A
:10557000FEE700BF709A0008255200087410002052
:105580007810002098100020C4100020024A1368F0
:1055900001331360704700BF40100020014B1868B2
:1055A000704700BFC4100020F8B53A4B1B68002BB1
:1055B00069D1394B1D6801351D60C5B9374B1B6872
:1055C0001B6843B14FF0500383F31188BFF36F8F13
:1055D000BFF34F8FFEE7314A1168314B18681060F6
:1055E0001960304A136801331360FFF7E5FC2E4B56
:1055F0001B68AB423DD900272C4B1B68DB6A03EBD1
:1056000083039A002A4B9B58012B00D90127294B71
:105610001B68002B3CD001273AE001271F4B1B6879
:105620001B6843B31D4B1B68DB68DC6863689D42E5
:1056300026D3261D3046FFF757F9A36A1BB104F1A4
:105640001800FFF751F9E36A1B4A1268934201D927
:10565000194A136003EB83039A003146144810443F
:10566000FFF71EF9E26A114B1B68DB6A9A42D4D23B
:10567000D4E70027D2E70C4B4FF0FF321A60BBE7AC
:10568000094A1360B8E70D4A136801331360002715
:105690003846F8BD40100020C4100020D00B002078
:1056A000D40B00207C10002078100020CC0B0020B0
:1056B000D80B0020C81000204810002080100020C7
:1056C00038B5354B1B6843B94FF0500383F311884D
:1056D000BFF36F8FBFF34F8FFEE700F0B3FD2E4B8C
:1056E0001A68013A1A601B68002B4FD12B4B1B68BC
:1056F0000BB900244BE00024294B1B681BB3284B3B
:10570000DB68DC6804F11800FFF7EEF8251D284679
:10571000FFF7EAF8E06A234B1B68984201D9214B56
:10572000186000EB800029461F4B03EB8000FFF759
:10573000B7F8E26A1D4B1B68DB6A9A42DCD31C4B4C
:1057400001221A60D8E70CB1FFF736FC194B1C6830
:1057500084B9174B1C68D4B14FF0E0234FF080524E
:10576000C3F8042DBFF34F8FBFF36F8F01240EE0FA
:10577000013C07D0FFF718FF0028F9D00C4B01229D
:105780001A60F5E70B4B00221A60E2E7002400F0F4
:105790007BFD204638BD00BF40100020381000209F
:1057A0008410002048100020D80B0020CC0B0020D3
:1057B000C81000208010002010B5A8B10446104B7E
:1057C0001B6843B14FF0500383F31188BFF36F8F11
:1057D000BFF34F8FFEE7FFF7D9FE00212046FFF70A
:1057E00035FDFFF76DFF48B94FF0E0234FF08052D1
:1057F000C3F8042DBFF34F8FBFF36F8F10BD00BFF1
:10580000401000201F4B1B681BB11F4B01221A6068
:1058100070471D4B00221A601C4B1B6803EB830171
:105820008A001B498A585AB90BB1013BF6E74FF081
:10583000500383F31188BFF36F8FBFF34F8FFEE7E1
:1058400003EB830082000A4450684068506003EB19
:10585000830C4FEA8C020832114488420BD003EBD0
:10586000830291000A4A0A445268D168094A1160C9
:10587000064A13607047406862469100044A0A4431
:105880005060ECE740100020C810002048100020B5
:10589000D80B0020CC0B002058B110B50C46094A9B
:1058A00011681831FFF707F801212046FFF7CEFCF9
:1058B00010BD4FF0500383F31188BFF36F8FBFF318
:1058C0004F8FFEE7CC0B002038B570B10D46144663
:1058D0000A4A11681831FEF7E3FF0CB14FF0FF35AB
:1058E00021462846FFF7B2FC38BD4FF0500383F342
:1058F0001188BFF36F8FBFF34F8FFEE7CC0B0020F3
:1059000038B5C368DC6824B304F118052846FEF7EF
:10591000EBFF184B1B682BBB251D2846FEF7E4FF49
:10592000E06A154B1B68984201D9134B186000EBD5
:1059300080002946114B03EB8000FEF7B1FFE26ABD
:105940000F4B1B68DB6A9A4211D901200D4B18607E
:1059500038BD4FF0500383F31188BFF36F8FBFF34F
:105960004F8FFEE729460848FEF79AFFE7E7002039
:10597000EEE700BF4010002048100020D80B0020A8
:10598000CC0B0020C810002084100020034B1B68A3
:105990000360034B1B684360704700BF7C1000200E
:1059A000C4100020F8B5C8B10C460546F9B100F0A6
:1059B00049FC1B4B19686B68C81A2268B2F1FF3F9B
:1059C00026D0184E36682F68B74201D08B4224D9B2
:1059D000824215D80023236001241AE04FF05003BF
:1059E00083F31188BFF36F8FBFF34F8FFEE74FF044
:1059F000500383F31188BFF36F8FBFF34F8FFEE720
:105A00005B1A134423602846FFF7C0FF002400E020
:105A1000002400F039FC2046F8BD0124F9E700BF5E
:105A2000C41000207C100020014B01221A60704736
:105A3000C8100020054B1B6833B1054B1B680BB128
:105A40000020704702207047012070479810002006
:105A50004010002000283BD038B504461E4B1B6880
:105A6000834208D04FF0500383F31188BFF36F8F48
:105A7000BFF34F8FFEE7036D43B94FF0500383F33D
:105A80001188BFF36F8FBFF34F8FFEE7013B0365B4
:105A9000C16AC26C91421DD00BB1002038BD051DFA
:105AA0002846FEF721FFE06CE062C0F13803A361F5
:105AB0000A4B1B68984201D9084B186000EB800024
:105AC0002946074B03EB8000FEF7EAFE0120E5E7DD
:105AD000002070470020E1E7CC0B00204810002098
