:020000040800F2
:1000000000000320C93B00085112000853120008E9
:10001000551200085712000859120008000000008D
:100020000000000000000000000000005B1200085B
:100030005D120008000000005F1200086112000855
:10004000193C0008193C0008193C0008193C00083C
:10005000193C0008193C0008193C0008193C00082C
:10006000193C0008193C0008193C0008193C00081C
:10007000193C0008193C0008193C0008193C00080C
:1000800069120008193C0008193C0008193C0008D6
:10009000193C0008193C0008193C0008193C0008EC
:1000A000193C0008193C0008193C0008193C0008DC
:1000B000193C0008193C000879120008193C000896
:1000C000193C0008193C0008193C0008193C0008BC
:1000D000193C000889120008193C0008193C000866
:1000E000193C0008193C0008193C0008193C00089C
:1000F000193C0008193C0008193C0008193C00088C
:10010000193C0008193C0008193C0008193C00087B
:10011000193C0008193C0008193C0008193C00086B
:10012000193C0008193C000899120008193C000805
:10013000193C0008193C0008193C0008193C00084B
:10014000193C0008193C0008193C0008193C00083B
:10015000193C0008193C0008A9120008193C0008C5
:10016000193C0008193C0008193C0008193C00081B
:10017000193C0008193C0008193C00080000000068
:10018000193C0008193C0008193C0008193C0008FB
:10019000193C0008193C0008193C0008193C0008EB
:0C01A000193C0008193C0008193C00083C
:1001B00010B5054C237833B9044B13B10448AFF3A1
:1001C00000800123237010BD70000020000000009B
:1001D0006C45000808B5034B1BB103490348AFF356
:1001E000008008BD00000000740000206C4500087D
:1001F00001F0FF01102A2BDB10F0070F08D010F8D8
:10020000013B013A8B422DD010F0070F42B3F6D1DB
:10021000F0B441EA012141EA014122F007047FF0F4
:1002200000070023F0E80256083C85EA010586EA4B
:10023000010685FA47F5A3FA87F586FA47F6A5FA87
:1002400087F68EB9EED1F0BC01F0FF0102F0070293
:1002500032B110F8013B013A83EA010313B1F8D13E
:100260000020704701387047002D06BF354603381F
:10027000073815F0010F07D1013015F4807F02BF58
:10028000013015F4C03F0130F0BC0138704700BFA9
:1002900070B54FF0FF0C4CF4E06C1CEA11541DBF1C
:1002A0001CEA135594EA0C0F95EA0C0F00F0DEF8E7
:1002B0002C4481EA030621EA4C5123EA4C5350EACC
:1002C000013518BF52EA033541F4801143F480131D
:1002D00038D0A0FB02CE4FF00005E1FB02E506F0AE
:1002E0000042E0FB03E54FF00006E1FB03569CF003
:1002F000000F18BF4EF0010EA4F1FF04B6F5007F09
:1003000064F5407404D25FEA4E0E6D4146EB06067A
:1003100042EAC62141EA55514FEAC52040EA5E5003
:100320004FEACE2EB4F1FD0C88BFBCF5E06F1ED8AD
:10033000BEF1004F08BF5FEA500E50F1000041EBE4
:10034000045170BD06F0004646EA010140EA020091
:1003500081EA0301B4EB5C04C2BFD4EB0C0541EAB3
:10036000045170BD41F480114FF0000E013C00F3C8
:10037000AB8014F1360FDEBF002001F0004170BDEC
:10038000C4F10004203C35DA0C341BDC04F1140405
:10039000C4F1200500FA05F320FA04F001FA05F291
:1003A00040EA020001F0004221F0004110EBD3705E
:1003B00021FA04F642EB06015EEA430E08BF20EA8A
:1003C000D37070BDC4F10C04C4F1200500FA04F32D
:1003D00020FA05F001FA04F240EA020001F00041BF
:1003E00010EBD37041F100015EEA430E08BF20EA32
:1003F000D37070BDC4F1200500FA05F24EEA020E7A
:1004000020FA04F301FA05F243EA020321FA04F0A8
:1004100001F0004121FA04F220EA020000EBD3705F
:100420005EEA430E08BF20EAD37070BD94F0000F5F
:100430000FD101F00046400041EB010111F4801F93
:1004400008BF013CF7D041EA060195F0000F18BF44
:10045000704703F00046520043EB030313F4801F80
:1004600008BF013DF7D043EA0603704794EA0C0F3A
:100470000CEA135518BF95EA0C0F0CD050EA410650
:1004800018BF52EA4306D1D181EA030101F00041CD
:100490004FF0000070BD50EA410606BF10461946F5
:1004A00052EA430619D094EA0C0F02D150EA013601
:1004B00013D195EA0C0F05D152EA03361CBF104642
:1004C00019460AD181EA030101F0004141F0FE41E1
:1004D00041F470014FF0000070BD41F0FE4141F465
:1004E000780170BD81F0004102E000BF83F000435D
:1004F00030B54FEA41044FEA430594EA050F08BFBF
:1005000090EA020F1FBF54EA000C55EA020C7FEA82
:10051000645C7FEA655C00F0E2804FEA5454D4EBFF
:100520005555B8BF6D420CDD2C4480EA020281EAC9
:10053000030382EA000083EA010180EA020281EA01
:100540000303362D88BF30BD11F0004F4FEA013153
:100550004FF4801C4CEA113102D0404261EB410162
:1005600013F0004F4FEA03334CEA133302D05242E8
:1005700063EB430394EA050F00F0A780A4F10104A4
:10058000D5F1200E0DDB02FA0EFC22FA05F28018DE
:1005900041F1000103FA0EF2801843FA05F35941C4
:1005A0000EE0A5F120050EF1200E012A03FA0EFC43
:1005B00028BF4CF0020C43FA05F3C01851EBE3716D
:1005C00001F0004507D54FF0000EDCF1000C7EEB8A
:1005D00000006EEB0101B1F5801F1BD3B1F5001FC8
:1005E0000CD349085FEA30004FEA3C0C04F10104E7
:1005F0004FEA445212F5800F80F09A80BCF1004F10
:1006000008BF5FEA500C50F1000041EB045141EA91
:10061000050130BD5FEA4C0C404141EB0101013C5A
:1006200028BFB1F5801FE9D291F0000F04BF014649
:100630000020B1FA81F308BF2033A3F10B03B3F11B
:1006400020020CDA0C3208DD02F1140CC2F10C02AB
:1006500001FA0CF021FA02F10CE002F11402D8BF09
:10066000C2F1200C01FA02F120FA0CFCDCBF41EAD5
:100670000C019040E41AA2BF01EB0451294330BDA4
:100680006FEA04041F3C1CDA0C340EDC04F1140481
:10069000C4F1200220FA04F001FA02F340EA030058
:1006A00021FA04F345EA030130BDC4F10C04C4F19E
:1006B000200220FA02F001FA04F340EA030029467E
:1006C00030BD21FA04F0294630BD94F0000F83F4C8
:1006D000801306BF81F480110134013D4EE77FEAAB
:1006E000645C18BF7FEA655C29D094EA050F08BFF7
:1006F00090EA020F05D054EA000C04BF19461046D8
:1007000030BD91EA030F1EBF0021002030BD5FEA1B
:10071000545C05D14000494128BF41F0004130BD43
:1007200014F580043CBF01F5801130BD01F0004597
:1007300045F0FE4141F470014FF0000030BD7FEA0A
:10074000645C1ABF194610467FEA655C1CBF0B4605
:10075000024650EA013406BF52EA033591EA030F1C
:1007600041F4002130BD00BF90F0000F04BF002114
:10077000704730B54FF4806404F132044FF0000547
:100780004FF0000150E700BF90F0000F04BF0021C0
:10079000704730B54FF4806404F1320410F0004526
:1007A00048BF40424FF000013EE700BF42004FEA21
:1007B000E2014FEA31014FEA02701FBF12F07F439E
:1007C00093F07F4F81F06051704732F07F4208BF55
:1007D000704793F07F4F04BF41F40021704730B55C
:1007E0004FF4607401F0004521F000411CE700BFA8
:1007F00050EA010208BF704730B54FF000050AE02B
:1008000050EA010208BF704730B511F0004502D52B
:10081000404261EB41014FF4806404F132045FEA2D
:10082000915C3FF4D8AE4FF003025FEADC0C18BFD6
:1008300003325FEADC0C18BF033202EBDC02C2F1C8
:10084000200300FA03FC20FA02F001FA03FE40EA5A
:100850000E0021FA02F11444BDE600BF53B94AB9B3
:10086000002908BF00281CBF4FF0FF314FF0FF30B8
:1008700000F074B9ADF1080C6DE904CE00F006F893
:10088000DDF804E0DDE9022304B070472DE9F0470C
:10089000089D04468E46002B4DD18A42944669D964
:1008A000B2FA82F252B101FA02F3C2F1200120FA47
:1008B00001F10CFA02FC41EA030E94404FEA1C4895
:1008C000210CBEFBF8F61FFA8CF708FB16E341EA91
:1008D000034306FB07F199420AD91CEB030306F117
:1008E000FF3080F01F81994240F21C81023E634438
:1008F0005B1AA4B2B3FBF8F008FB103344EA0344DC
:1009000000FB07F7A7420AD91CEB040400F1FF33F0
:1009100080F00A81A74240F207816444023840EA2D
:100920000640E41B00261DB1D4400023C5E9004366
:100930003146BDE8F0878B4209D9002D00F0EF80E9
:100940000026C5E9000130463146BDE8F087B3FA1C
:1009500083F6002E4AD18B4202D3824200F2F98004
:10096000841A61EB030301209E46002DE0D0C5E907
:10097000004EDDE702B9FFDEB2FA82F2002A40F053
:100980009280A1EB0C014FEA1C471FFA8CFE012656
:10099000200CB1FBF7F307FB131140EA01410EFBFA
:1009A00003F0884208D91CEB010103F1FF3802D2A1
:1009B000884200F2CB804346091AA4B2B1FBF7F09B
:1009C00007FB101144EA01440EFB00FEA64508D9BE
:1009D0001CEB040400F1FF3102D2A64500F2BB80FB
:1009E0000846A4EB0E0440EA03409CE7C6F120074A
:1009F000B34022FA07FC4CEA030C20FA07F401FA90
:100A000006F31C43F9404FEA1C4900FA06F3B1FB18
:100A1000F9F8200C1FFA8CFE09FB181140EA01417D
:100A200008FB0EF0884202FA06F20BD91CEB01011A
:100A300008F1FF3A80F08880884240F28580A8F172
:100A400002086144091AA4B2B1FBF9F009FB1011C4
:100A500044EA014100FB0EFE8E4508D91CEB010162
:100A600000F1FF346CD28E456AD90238614440EA05
:100A70000840A0FB0294A1EB0E01A142C846A64685
:100A800056D353D05DB1B3EB080261EB0E0101FA0E
:100A900007F722FA06F3F1401F43C5E9007100266B
:100AA0003146BDE8F087C2F12003D8400CFA02FCC1
:100AB00021FA03F3914001434FEA1C471FFA8CFED1
:100AC000B3FBF7F007FB10360B0C43EA064300FBC1
:100AD0000EF69E4204FA02F408D91CEB030300F15F
:100AE000FF382FD29E422DD9023863449B1B89B216
:100AF000B3FBF7F607FB163341EA034106FB0EF39F
:100B00008B4208D91CEB010106F1FF3816D28B424B
:100B100014D9023E6144C91A46EA004638E72E4617
:100B2000284605E70646E3E61846F8E64B45A9D20F
:100B3000B9EB020864EB0C0E0138A3E74646EAE77E
:100B4000204694E74046D1E7D0467BE7023B61442C
:100B500032E7304609E76444023842E7704700BF95
:100B600010B5002002F042FC002002F033FC00240B
:100B700007E04FF4784002F033FC02F089FC0134C6
:100B8000E4B2042C21D8042CF7D801A353F824F0A4
:100B9000730B0008A50B0008AF0B0008B70B00088B
:100BA000C10B00084FF4FC6002F01AFCE5E71F20BF
:100BB00002F016FCE1E74EF65D7002F011FCDCE796
:100BC0004FF6FF7002F00CFCD7E710BD00000000EC
:100BD000F8B5002002F004FC02F05AFC1F2002F0DD
:100BE000F9FB534A1E21002002F0E4FC514A3C214B
:100BF000002002F0DFFC4FF4FC6002F0EBFB4E4AF9
:100C00006421002002F0D6FC4C4A8221002002F030
:100C1000D1FC4FF4784002F0DDFB494AAA210020C4
:100C200002F0C8FC474AC821002002F0C3FC00249F
:100C300066E01F2002F0CEFB012002F0D7FC04EB9F
:100C40008402042352001E21502002F0D5FC04230C
:100C50006FF0090204FB02F23C21502002F0CCFCB0
:100C60004FF4FC6002F0B6FB012002F0BFFC9625B9
:100C700004FB05F508232A466421822002F0BCFC0F
:100C8000002002F0B3FC08232A468221084602F025
:100C9000B3FC4FF4784002F09DFB012002F0A6FC6B
:100CA0002046FFF771FD06460F4619A3D3E900233E
:100CB000FFF7EEFA18A3D3E90023FFF719FC03238B
:100CC000062241EC100BAA21642002F0B7FC14A309
:100CD000D3E9002330463946FFF7DAFA12A3D3E905
:100CE0000023FFF703FC04230B2241EC100BC82167
:100CF000642002F0A3FC0F2001F012FF0134A4B223
:100D0000632C96D940F6C41001F00AFFF8BD00BF6D
:100D10009A9999999999B93F4AD8124DFB2109405E
:100D20007B14AE47E17A843F4ED1915C7E4893407C
:100D3000844500088C450008944500089C4500083F
:100D4000A4450008AC45000872B6FEE700B595B0B2
:100D50003022002108A802F085FF002303930493AA
:100D60000593069307930193234A116C41F0805138
:100D70001164126C02F080520192019A02931F4B8F
:100D80001A6842F440421A601B6803F4404302931D
:100D9000029B012308934FF48033099302230E939F
:100DA0004FF480020F92192210924FF4B4721192F4
:100DB00012930423139308A800F028FFB0B901F0A0
:100DC000B3FDA8B90F2303930223049300230593D3
:100DD0004FF4A05306934FF480530793052103A8C3
:100DE00001F062F930B915B05DF804FBFFF7ACFF14
:100DF000FFF7AAFFFFF7A8FF00380240007000408D
:100E000008B5FFF7ADFEFFF7E3FE01F05DFEFFF76B
:100E10009DFF00F01BF800F08FF800F07FF900F064
:100E20000BF902F081F9084C204600F025FB002167
:100E3000204600F021FE0421204600F01DFE08217E
:100E4000204600F019FEFEE78C0000202DE9F0415D
:100E50008AB0002405940694079408940994009499
:100E6000314B1A6B42F010021A631A6B02F0100237
:100E70000092009A01941A6B42F004021A631A6BF2
:100E800002F004020192019A02941A6B42F080026D
:100E90001A631A6B02F080020292029A03941A6B90
:100EA00042F001021A631A6B02F001020392039AE4
:100EB00004941A6B42F002021A631B6B03F00203E4
:100EC0000493049BDFF86C8022461821404601F011
:100ED000BFFA164F22460821384601F0B9FA144EDF
:100EE00001220221304601F0B3FA182305930125AF
:100EF00006950794089505A9404601F0ABF908232B
:100F00000593069507940224089405A9384601F034
:100F1000A1F9059406950795089505A9304601F0B5
:100F200099F90AB0BDE8F08100380240001C024087
:100F3000000402400010024010B582B0002400946A
:100F4000164B1A6B42F480021A631A6B02F4800289
:100F50000092009A01941A6B42F400121A631B6B00
:100F600003F400130193019B22462146102001F057
:100F70002BFD102001F060FD224621463A2001F0B1
:100F800023FD3A2001F058FD22462146462001F07B
:100F90001BFD462001F050FD02B010BD003802409C
:100FA00002680E4B9A4200D0704700B583B0002112
:100FB000019103F50C331A6C42F004021A641B6CA5
:100FC00003F004030193019B0A461E2001F0FCFC80
:100FD0001E2001F031FD03B05DF804FB0008004065
:100FE00000B587B000230193029303930493059304
:100FF00002680E4B9A4202D007B05DF804FB002352
:1010000000930B4B1A6B42F002021A631B6B03F046
:1010100002030093009B4FF4E073019302230293B9
:10102000059301A9034801F015F9E5E70008004020
:10103000003802400004024000B58FB000230A933C
:101040000B930C930D9308930993019302930393CD
:1010500004930593069307932E482F4A0260592262
:101060004260836040F2E732C260036180238361A3
:1010700000F068FB002837D14FF480530A930AA987
:10108000244800F06AFC002831D1224800F086FB99
:1010900080BB00230893099308A91E4800F06EFD49
:1010A00058BB602301934FF4FA7302930223039316
:1010B0000423059300220DEB0301164800F0D2FB38
:1010C000F0B904220DEB0201124800F0CBFBD0B9BD
:1010D000082201A90F4800F0C5FBB8B90D48FFF779
:1010E0007FFF0FB05DF804FBFFF72EFEC4E7FFF7AC
:1010F0002BFECAE7FFF728FECBE7FFF725FED0E778
:10110000FFF722FEDDE7FFF71FFEE1E7FFF71CFE1A
:10111000E4E700BF8C0000200008004008B50A4842
:101120000A4B03604FF4E133436000238360C360E4
:1011300003610C2242618361C36101F0EBFD00B9E0
:1011400008BDFFF701FEFBE79401002000100140FD
:1011500030B589B000230393049305930693079356
:10116000026803F1804303F588339A4201D009B045
:1011700030BD04460025019503F594335A6C42F0C6
:1011800010025A645A6C02F010020192019A029500
:101190001A6B42F001021A631B6B03F00103029306
:1011A000029B4FF4C063039302230493032306932B
:1011B0000723079303A9214801F04CF82048214B4D
:1011C00003604FF00063436040238360C5604FF4C9
:1011D0008063036145618561C5610562456201F017
:1011E000BDF920BB164BA3639C631748174B0360E4
:1011F0004FF00063436000238360C3604FF480625C
:101200000261436183614FF48072C2610362436291
:1012100001F0A4F970B90C4BE3639C630022114602
:10122000252001F0D1FB252001F006FC9FE7FFF708
:101230008BFDD7E7FFF788FDEDE700BF0000024018
:1012400034010020B8640240D40000204064024011
:10125000FEE7FEE7FEE7FEE7FEE7704770477047F0
:1012600008B501F04BFC08BD08B5024801F06EFA64
:1012700008BD00BFF009002008B5024800F046F99B
:1012800008BD00BF8C00002008B5024801F0FEFD3B
:1012900008BD00BF9401002008B5024801F056FACD
:1012A00008BD00BFD400002008B5024801F04EFA86
:1012B00008BD00BF3401002082B0002100910B4B1B
:1012C0005A6C42F480425A645A6C02F48042009292
:1012D000009A01911A6C42F080521A641B6C03F060
:1012E00080530193019B02B0704700BF0038024059
:1012F00030B4036A026A22F0010202624268846921
:1013000024F073040D682C4323F0020C8B6843EA2D
:101310000C03104DA84203D005F58065A84205D105
:1013200023F00803CD682B4323F00403094DA842A2
:1013300003D005F58065A84205D122F440724D69BD
:101340002A438D692A43426084614A68426303628A
:1013500030BC70470000014030B4036A026A22F4D6
:10136000807202624268C46924F0730C0C6844EA1B
:101370000C0523F400738C6843EA0423114CA0424B
:1013800003D004F58064A04206D123F40063CC6846
:1013900043EA042323F480630A4CA04203D004F5FB
:1013A0008064A04207D122F440524C6942EA041200
:1013B0008C6942EA04124260C5614A68C2630362F2
:1013C00030BC70470000014030B4036A026A22F466
:1013D000805202624468C26922F4E6420D6842EA21
:1013E000052223F400538D6843EA0533094DA842D2
:1013F00003D005F58065A84204D124F480444D69EA
:1014000044EA85144460C2614A680264036230BCE5
:10141000704700BF0000014010B4036A046A24F062
:1014200001040462846924F0F00C4CEA021223F0F7
:101430000A030B43826103625DF8044B704710B4EA
:10144000036A046A24F010040462846924F4704C72
:101450004CEA023223F0A00343EA011382610362E3
:101460005DF8044B7047836823F070030B4343F02F
:10147000070383607047000090F83D30DBB2012B1A
:1014800037D1022380F83D300268D36843F001036E
:10149000D3600368194A934220D0B3F1804F1DD026
:1014A000A2F57C42934219D002F58062934215D096
:1014B00002F58062934211D002F5784293420DD03A
:1014C00002F57052934209D0A2F59432934205D0AE
:1014D0001A6842F001021A60002070479A6802F010
:1014E0000702062A07D01A6842F001021A6000209B
:1014F0007047012070470020704700BF0000014086
:1015000070477047704770477047704770B5044622
:101510000368DE681D6915F0020F10D016F0020F87
:101520000DD06FF002021A610123037703689B69F3
:1015300013F0030F5ED0FFF7E6FF0023237715F0CB
:10154000040F12D016F0040F0FD023686FF00402BE
:101550001A610223237723689B6913F4407F4FD0DD
:101560002046FFF7D0FF0023237715F0080F12D095
:1015700016F0080F0FD023686FF008021A610423D9
:1015800023772368DB6913F0030F40D02046FFF771
:10159000BAFF0023237715F0100F12D016F0100FAA
:1015A0000FD023686FF010021A6108232377236895
:1015B000DB6913F4407F31D02046FFF7A4FF0023FE
:1015C000237715F0010F02D016F0010F2DD115F081
:1015D000800F02D016F0800F2FD115F0400F02D0EF
:1015E00016F0400F31D115F0200F02D016F0200F69
:1015F00033D170BDFFF786FF2046FFF785FF9CE7DC
:101600002046FFF77FFF2046FFF77EFFABE720462F
:10161000FFF778FF2046FFF777FFBAE72046FFF78E
:1016200071FF2046FFF770FFC9E723686FF00102E2
:101630001A612046FFF765FFC9E723686FF0800253
:101640001A61204600F0E1FAC7E723686FF0400214
:101650001A612046FFF759FFC5E723686FF02002A3
:101660001A61204600F0D0FAC3E700000368344A4C
:10167000904212D0B0F1804F0FD0A2F57C42904240
:101680000BD002F58062904207D002F58062904252
:1016900003D002F57842904203D123F070034A68E8
:1016A0001343274A90422AD0B0F1804F27D0A2F5A9
:1016B0007C42904223D002F5806290421FD002F516
:1016C000806290421BD002F57842904217D002F51A
:1016D0007052904213D002F5806290420FD002F512
:1016E000806290420BD0A2F59832904207D002F56A
:1016F0008062904203D002F58062904203D123F4CD
:101700004073CA68134323F080034A69134303609C
:101710008B68C3620B688362094B984203D003F560
:101720008063984201D10B6903630123436103691C
:1017300013F0010F03D0036923F001030361704725
:101740000000014040B310B5044690F83D30F3B1BD
:10175000022384F83D30214651F8040BFFF786FF41
:10176000012384F8463084F83E3084F83F3084F812
:10177000403084F8413084F8423084F8433084F8B3
:10178000443084F8453084F83D30002010BD80F8A6
:101790003C30FFF705FCDBE70120704740B310B594
:1017A000044690F83D30F3B1022384F83D302146E1
:1017B00051F8040BFFF75AFF012384F8463084F8F0
:1017C0003E3084F83F3084F8403084F8413084F86B
:1017D000423084F8433084F8443084F8453084F84B
:1017E0003D30002010BD80F83C30FFF789FEDBE77C
:1017F0000120704730B4036A026A22F010020262CC
:101800004468826922F4E6420D6842EA052223F028
:1018100020038D6843EA0513114DA84203D005F556
:101820008065A84206D123F08003CD6843EA051302
:1018300023F040030A4DA84203D005F58065A84275
:1018400007D124F440644D6944EA85048D6944EA73
:101850008504446082614A688263036230BC7047D9
:101860000000014038B590F83C30012B66D00446AA
:101870000D46012380F83C300C2A5AD8DFE802F0EC
:10188000075959591B595959305959594400006839
:10189000FFF72EFD2268936943F0080393612268E5
:1018A000936923F0040393612268936929690B43C8
:1018B000936100203EE00068FFF79CFF2268936977
:1018C00043F4006393612268936923F48063936116
:1018D00022689369296943EA01239361002029E082
:1018E0000068FFF739FD2268D36943F00803D3612C
:1018F0002268D36923F00403D3612268D36929697C
:101900000B43D361002015E00068FFF75DFD2268FE
:10191000D36943F40063D3612268D36923F48063FD
:10192000D3612268D369296943EA0123D361002086
:1019300000E00120002384F83C3038BD0220FCE7A1
:1019400010B4846824F47F4C42EA03220A4342EA3A
:101950000C0282605DF8044B704790F83C30012B1C
:1019600078D010B50446012380F83C30022380F87B
:101970003D300268936823F47F4323F0770393603C
:101980000B68602B4CD029D8402B54D00CD9502B4D
:1019900022D1CA6849680068FFF73EFD50212068DF
:1019A000FFF761FD002005E0202B0DD009D9302B79
:1019B0000AD00120012384F83D30002384F83C3014
:1019C00010BD0BB1102B05D119462068FFF74BFD58
:1019D0000020EFE70120EDE70120EBE7B3F5805FA2
:1019E00034D0B3F5005F0CD1CB684A6889680068D1
:1019F000FFF7A6FF2268936843F4804393600020BA
:101A0000D8E7702B24D1CB684A6889680068FFF753
:101A100097FF2268936843F0770393600020C9E73B
:101A2000CA6849680068FFF70AFD60212068FFF76F
:101A30001AFD0020BEE7CA6849680068FFF7ECFCA1
:101A400040212068FFF70FFD0020B3E70020B1E739
:101A50000120AFE70220704701F01F01012303FAC4
:101A600001FC036A23EA0C030362036A02FA01F130
:101A70000B4303627047000010B504460846002976
:101A800042D194F83E30DBB2013B18BF0123002B5A
:101A90006ED1002851D1022384F83E300122014644
:101AA0002068FFF7D9FF2368334A934203D002F539
:101AB0008062934203D15A6C42F400425A64236814
:101AC0002D4A934249D0B3F1804F46D0A2F57C42D3
:101AD000934242D002F5806293423ED002F580628A
:101AE00093423AD002F57842934236D002F57052D2
:101AF000934232D0A2F5943293422ED01A6842F02B
:101B000001021A60002032E0042908D008290DD013
:101B100094F84130DBB2013B18BF0123B7E794F8DA
:101B20003F30DBB2013B18BF0123B0E794F84030EF
:101B3000DBB2013B18BF0123A9E7042805D0082820
:101B400007D0022384F84130A8E7022384F83F300D
:101B5000A4E7022384F84030A0E79A6802F0070265
:101B6000062A07D01A6842F001021A60002010BD50
:101B70000120FCE70020FAE70000014090F83C302B
:101B8000012B3DD010B4012380F83C30022380F8B3
:101B90003D3003685A689C6822F0700C0A6842EA7B
:101BA0000C025A600368174A93421AD0B3F1804F6F
:101BB00017D0A2F57C42934213D002F58062934283
:101BC0000FD002F5806293420BD002F57842934227
:101BD00007D002F57052934203D0A2F5943293429B
:101BE00004D124F080044A6814439C60012380F8E7
:101BF0003D30002380F83C3018465DF8044B7047B8
:101C0000022070470000014070477047002800F034
:101C1000E08170B582B00446036813F0010F3BD039
:101C20009F4B9B6803F00C03042B2CD09C4B9B68B0
:101C300003F00C03082B21D06368B3F5803F4FD02D
:101C4000B3F5A02F52D0964B1A6822F480321A6056
:101C50001A6822F480221A606368002B50D000F0CA
:101C600059FF05468E4B1B6813F4003F14D100F05A
:101C700051FF401B6428F5D90320B1E1884B5B6814
:101C800013F4800FD8D0864B1B6813F4003F03D0A9
:101C90006368002B00F09F81236813F0020F54D07B
:101CA0007F4B9B6813F00C0F3ED07D4B9B6803F07D
:101CB0000C03082B33D0E368002B68D0794B01224A
:101CC0001A6000F027FF0546754B1B6813F0020FE2
:101CD00054D100F01FFF401B0228F5D903207FE1FB
:101CE0006F4A136843F480331360B5E76C4B1A688E
:101CF00042F480221A601A6842F480321A60ABE71C
:101D000000F008FF0546664B1B6813F4003FC3D084
:101D100000F000FF401B6428F5D9032060E1604B10
:101D20005B6813F4800FC6D15D4B1B6813F0020F84
:101D300003D0E368012B40F05081594A136823F027
:101D4000F803216943EAC1031360236813F0080F05
:101D500042D063696BB3534B0122C3F8802E00F06D
:101D6000D9FE05464E4B5B6F13F0020F34D100F0E5
:101D7000D1FE401B0228F5D9032031E1484A1368FF
:101D800023F0F803216943EAC1031360DDE7454B03
:101D900000221A6000F0BEFE0546414B1B6813F09E
:101DA000020FD2D000F0B6FE401B0228F5D9032066
:101DB00016E13C4B0022C3F8802E00F0ABFE054636
:101DC000374B5B6F13F0020F06D000F0A3FE401BF1
:101DD0000228F5D9032003E1236813F0040F77D01C
:101DE0002F4B1B6C13F0805F33D1002301932C4BDE
:101DF0001A6C42F080521A641B6C03F080530193FA
:101E0000019B0125284B1B6813F4807F23D0A36816
:101E1000012B34D0052B38D0214B1A6F22F0010250
:101E20001A671A6F22F004021A67A368002B3DD0CC
:101E300000F070FE06461A4B1B6F13F0020F46D1DE
:101E400000F068FE801B41F288339842F3D90320EA
:101E5000C6E00025D6E7144A136843F48073136084
:101E600000F058FE0646104B1B6813F4807FCED15D
:101E700000F050FE801B0228F5D90320B0E0084A8C
:101E8000136F43F001031367CFE7054B1A6F42F05E
:101E900004021A671A6F42F001021A67C5E700BF11
:101EA00000380240000047420070004000F032FE5F
:101EB0000646524B1B6F13F0020F08D000F02AFEAB
:101EC000801B41F288339842F3D9032088E0EDB9B2
:101ED000A369002B00F08380484A926802F00C024C
:101EE000082A51D0022B17D0454B00221A6600F069
:101EF00011FE0446414B1B6813F0007F42D000F0F6
:101F000009FE001B0228F5D9032069E03B4A136C47
:101F100023F080531364DBE7394B00221A6600F08C
:101F2000F9FD0546354B1B6813F0007F06D000F025
:101F3000F1FD401B0228F5D9032051E0E369226A34
:101F40001343626A43EA8213A26A5208013A43EADF
:101F50000243E26A43EA0263284A5360284B0122A3
:101F60001A6600F0D7FD0446244B1B6813F0007F6F
:101F700006D100F0CFFD001B0228F5D903202FE089
:101F800000202DE000202BE0012B2BD01B4B5B68A9
:101F900003F48001E269914226D103F03F02216AF5
:101FA0008A4223D1616A47F6C0721A40B2EB811FA0
:101FB0001ED103F44031A26A5208013AB1EB024F3C
:101FC00018D103F07063E26AB3EB026F14D1002002
:101FD00006E001207047012002E0012000E000201F
:101FE00002B070BD0120FBE70120F9E70120F7E70F
:101FF0000120F5E70120F3E70120F1E70038024076
:102000000000474208B5254B9B6803F00C03042BE6
:102010003FD0082B3FD1214B5A6802F03F025B684A
:1020200013F4800F12D01D4B5968C1F388111C485E
:102030000023A1FB0001FEF711FC184B5B68C3F302
:10204000014301335B00B0FBF3F025E0134B59680B
:10205000C1F3881C4FEA4C11B1EB0C006EEB0E0E75
:102060004FEA8E1343EA90638101091A63EB0E0372
:10207000DB0043EA5173C90011EB0C0C43F1000380
:10208000990200234FEA8C2041EA9C51FEF7E6FBBF
:10209000D3E7034800E0034808BD00BF0038024012
:1020A00040787D010024F400002800F09B8070B58A
:1020B0000D4604464F4B1B6803F00F038B4208D2BA
:1020C000CBB24C4A1370136803F00F038B4240F0FD
:1020D0008B80236813F0020F17D013F0040F04D085
:1020E000454A936843F4E0539360236813F0080F64
:1020F00004D0414A936843F4604393603E4A936836
:1021000023F0F003A1680B439360236813F0010FE1
:1021100032D06368012B21D09A1E012A25D9364A74
:10212000126812F0020F61D033498A6822F003026C
:1021300013438B6000F0EEFC06462F4B9B6803F0C8
:102140000C036268B3EB820F16D000F0E3FC801B37
:1021500041F288339842F0D9032042E0264A1268BF
:1021600012F4003FE0D101203BE0234A126812F054
:10217000007FD9D1012034E01E4B1B6803F00F0310
:10218000AB4207D9EAB21B4B1A701B6803F00F036E
:10219000AB422DD1236813F0040F06D0164A936882
:1021A00023F4E053E1680B439360236813F0080FB6
:1021B00007D0114A936823F46043216943EAC103BD
:1021C0009360FFF71FFF0C4B9B68C3F303130B4A8D
:1021D000D35CD8400A4B18600A4B186800F04EFCDC
:1021E000002070BD012070470120FAE70120F8E7C8
:1021F0000120F6E7003C024000380240BC450008E0
:102200000800002004000020014B1868704700BF40
:102210000800002008B5FFF7F7FF044B9B68C3F3E5
:102220008223034AD35CD84008BD00BF0038024077
:10223000CC45000808B5FFF7E7FF044B9B68C3F3E4
:102240004233034AD35CD84008BD00BF0038024087
:10225000CC45000800230F2B00F2F18070B582B04E
:1022600061E085685E000324B44025EA0405CC687B
:10227000B4402C438460456825EA02054C68C4F3E9
:1022800000129A402A4342605BE0DC08083450F8B0
:10229000246003F0070295000F22AA4026EA020EEE
:1022A0000A69AA4042EA0E0240F824205DE00922B1
:1022B00000E0002202FA0EF22A430234604D45F893
:1022C0002420604A94686FEA0C0224EA0C054E68E8
:1022D00016F4801F01D04CEA04055A4CA560E4684E
:1022E00002EA04054E6816F4001F01D04CEA04050A
:1022F000544CE560646802EA04054E6816F4003F39
:1023000001D04CEA04054F4C6560246822404D68BA
:1023100015F4803F01D04CEA04024A4C226001339C
:102320000F2B00F28A8001229A400C6804EA020C0A
:1023300032EA0404F3D14C6804F00304013C012C9C
:102340008FD94A6802F00302032A09D0C4685D00ED
:102350000322AA4024EA02048A68AA402243C260F7
:102360004A6802F00302022A8FD004684FEA430E43
:10237000032202FA0EF224EA02044A6802F003027F
:1023800002FA0EF2224302604A6812F4403FC6D0BD
:10239000002201922C4A546C44F480445464526CE0
:1023A00002F480420192019A9C08A51C244A52F82A
:1023B000255003F003024FEA820E0F2202FA0EF2BA
:1023C00025EA0205214A90423FF473AF02F580628C
:1023D000904222D002F58062904220D002F58062C5
:1023E00090421ED002F5806290421CD002F58062BD
:1023F00090421AD002F58062904218D002F58062B5
:10240000904216D002F58062904214D002F58062AC
:1024100090423FF44CAF0A224CE701224AE70222E5
:1024200048E7032246E7042244E7052242E7062262
:1024300040E707223EE708223CE702B070BD704744
:1024400000380140003C01400038024000000240DA
:102450000AB18161704709048161704730B4056831
:102460002C6824F480242C60046863608368402B0B
:1024700005D0036899600368DA6030BC7047036870
:102480009A600368D960F8E710B40368D9B21039CC
:102490000C4AA2FB014212090B4CA25CC2655F29E7
:1024A00009D923F47F7323F0030304338365806D1C
:1024B0005DF8044B704723F47F7323F003038365B7
:1024C000F5E700BFABAAAAAAB4450008836A8269EF
:1024D00092B9012B0AD0022B02D00BB10020704719
:1024E000C36A13F0807F28D100207047C36AB3F11C
:1024F000C07F24D000207047B2F5005F09D0022BC6
:1025000025D9032B25D1C36A13F0807F23D1002066
:102510007047032B03D8DFE803F01404140A0020EB
:102520007047C36A13F0807F0DD100207047C36AE3
:10253000B3F1C07F09D0002070470120704701200F
:10254000704701207047012070470120704701202B
:1025500070470020704701207047000070B50446A6
:1025600000F0D8FA002C5BD00546022384F8353001
:10257000002384F834302268136823F001031360C9
:1025800023681A6812F0010F0AD000F0C3FA431B47
:10259000052BF5D920236365032084F8350070BD31
:1025A0001A68204810406168A2680A43E1680A433B
:1025B00021690A4361690A43A1690A43E1690A433F
:1025C000216A0A430243616A04291ED01A60266800
:1025D000756925F00705636A1D43042B07D1A36ABB
:1025E0001D43E36A1BB12046FFF770FF90B9756188
:1025F0002046FFF749FFE26D3F23934083600020B0
:102600006065012384F83530C9E7E16A206B014336
:102610000A43DBE740236365012084F83500BEE709
:102620000120BCE73F8010F038B50446856D90F876
:10263000340001282BD0012084F8340094F83500B0
:10264000C0B2012804D0002384F83430022038BD01
:10265000022084F83500002060652046FFF7FEFE6A
:10266000E26D3F239340AB602268136843F016038A
:102670001360236C23B12268136843F008031360CE
:102680002268136843F0010313600020DFE7022093
:10269000DDE770B50446866D00F03CFA94F83530FD
:1026A000DBB2022B06D080236365002384F834302C
:1026B000012070BD05462268136823F016031360DD
:1026C0002268536923F080035361236CE3B12268CD
:1026D000136823F0080313602268136823F00103D2
:1026E000136023681B6813F0010F11D000F012FA79
:1026F000431B052BF5D920236365032084F835009F
:10270000002384F83430D4E7A36C002BDFD1E3E757
:10271000E26D3F239340B360012384F835300020FD
:1027200084F83400C5E790F83530DBB2022B03D0D3
:102730008023436501207047052380F83530026807
:10274000136823F00103136000207047F0B583B0D5
:10275000044600230193724B1D68724BA3FB0535A1
:10276000AD0A876D3E68C26D08239340334210D096
:1027700003681A6812F0040F0BD01A6822F00402E2
:102780001A60C26D08239340BB60436D43F00103A0
:102790004365E26D01239340334209D022685269B8
:1027A00012F0800F04D0BB60636D43F002036365D9
:1027B000E26D04239340334209D02268126812F07C
:1027C000020F04D0BB60636D43F004036365E26DE8
:1027D00010239340334224D02268126812F0080F6D
:1027E0001FD0BB6023681A6812F4802F0DD01B68BD
:1027F00013F4002F04D1236C9BB12046984710E0BE
:10280000A36C73B1204698470BE01A6812F4807FDE
:1028100003D11A6822F008021A60236C0BB120461B
:102820009847E26D20239340334255D022681268C6
:1028300012F0100F50D0BB6094F83530DBB2052B8E
:102840000ED023681A6812F4802F33D01B6813F45B
:10285000002F2AD1636C002B3ED0204698473BE0E6
:102860002268136823F0160313602268536923F06B
:1028700080035361236CA3B12268136823F008031B
:102880001360E26D3F239340BB60012384F8353031
:10289000002384F83430236D002B3FD02046984726
:1028A0003CE0A36C002BE7D1EBE7E36BA3B1204640
:1028B000984711E01A6812F4807F09D11A6822F053
:1028C00010021A60012384F83530002384F8343074
:1028D000E36B0BB120469847636DFBB1636D13F05A
:1028E000010F17D0052384F835302268136823F0D0
:1028F00001031360019B01330193AB4204D82368A9
:102900001B6813F0010FF5D1012384F83530002343
:1029100084F83430E36C0BB12046984703B0F0BD27
:1029200008000020B5814E1B10B582B00023019332
:10293000194B1A6C42F080521A641B6C03F08053DE
:102940000193019B154B01221A6400F0E3F8044641
:10295000134B5B6813F4803F08D100F0DBF8001BD9
:10296000B0F57A7FF4D9032002B010BD0B4B0122E1
:102970005A6400F0CFF80446094B5B6813F4003F3B
:1029800007D100F0C7F8001BB0F57A7FF4D9032017
:10299000EAE70020E8E700BF0038024000000E42EE
:1029A00000700040074AD36823F4E0631B041B0C4B
:1029B000000200F4E060034343F0BF6343F40033DC
:1029C000D360704700ED00E000B5194BDB68C3F33E
:1029D0000223C3F1070CBCF1040F28BF4FF0040C15
:1029E00003F1040EBEF1060F18D9033B4FF0FF3E72
:1029F0000EFA0CFC21EA0C0199400EFA03F322EACC
:102A00000303194300280BDB0901C9B200F1604040
:102A100000F5614080F800135DF804FB0023E5E752
:102A200000F00F000901C9B2024B1954F4E700BFCE
:102A300000ED00E014ED00E0002807DB00F01F02CD
:102A4000400901239340024A42F82030704700BFFA
:102A500000E100E00138B0F1807F0BD24FF0E023BD
:102A60005861054AF02182F823100020986107225E
:102A70001A6170470120704700ED00E010B5044670
:102A80000E4B18784FF47A73B3FBF0F30C4A1068CE
:102A9000B0FBF3F0FFF7DEFF68B90F2C01D901207E
:102AA0000AE0002221464FF0FF30FFF78DFF054B73
:102AB0001C60002000E0012010BD00BF00000020CD
:102AC000080000200400002008B50B4B1A6842F4EF
:102AD00000721A601A6842F480621A601A6842F43E
:102AE00080721A600320FFF75DFF0F20FFF7C6FF1B
:102AF000FEF7E2FB002008BD003C0240034A1168DB
:102B0000034B1B780B441360704700BFDC010020AF
:102B100000000020014B1868704700BFDC01002056
:102B200038B50446FFF7F6FF0546B4F1FF3F02D083
:102B3000044B1B781C44FFF7EDFF401BA042FAD367
:102B400038BD00BF00000020026802F10C0353E80A
:102B5000003F23F490730C3242E800310029F3D196
:102B6000026802F1140353E8003F23F0010314321A
:102B700042E800310029F3D1036B012B05D020235B
:102B800080F84230002303637047026802F10C03AF
:102B900053E8003F23F010030C3242E800310029D3
:102BA000F3D1ECE790F84130DBB2212B01D00220C9
:102BB00070478368B3F5805F17D0036A5A1C0262BE
:102BC0001A7803685A60C38C9BB2013B9BB2C384E2
:102BD0004BB90268D36823F08003D3600268D368DE
:102BE00043F04003D360002070470369002BE4D119
:102BF000036A1B880268C3F308035360036A023345
:102C00000362E0E738B504460268136923F44053D1
:102C1000C1680B431361836802691343426913431C
:102C2000C2691A430168CB6823F4164323F00C03EE
:102C30001343CB600268536923F4407381690B43EB
:102C400053610368314A934206D002F58062934291
:102C500002D0FFF7DFFA01E0FFF7ECFAE369B3F522
:102C6000004F29D00021031849411B1841F10001F0
:102C7000C90041EA5371DB00181863684FEA830208
:102C80004FEA937341F10001FDF7E8FD204DA5FBEC
:102C900000325109642303FB11031B013233A5FBEE
:102CA00003235B0903F0F00202EB011203F00F03B0
:102CB000216813448B6038BD0023021843EB0301E5
:102CC000121841F10001C90041EA5271D2001018F6
:102CD00041F10001626892185B41FDF7BFFD0C4DA8
:102CE000A5FB00325109642303FB1103DB003233DF
:102CF000A5FB03235B095A0002F4F87202EB0112F0
:102D000003F00703216813448B60D4E700100140EF
:102D10001F85EB5160B310B5044690F8413013B3F2
:102D2000242384F841302268D36823F40053D3600D
:102D30002046FFF767FF2268136923F4904313616D
:102D40002268536923F02A0353612268D36843F44D
:102D50000053D36000206064202384F8413084F85D
:102D60004230606310BD80F84030FEF7F1F9D7E7DC
:102D700001207047704708B50168CA6822F0400218
:102D8000CA60202280F84120FFF7F4FF002008BD30
:102D90007047704708B5806B0023C385C384FFF775
:102DA000F8FF08BD704790F84230DBB2222B69D1A2
:102DB0008368B3F5805F4FD0826AB3F5805F04D03B
:102DC000002B56D10369002B53D103685B68137045
:102DD000836A01338362C38D9BB2013B9BB2C3857F
:102DE000002B51D100B583B00268D36823F02003D3
:102DF000D3600268D36823F48073D3600268536998
:102E000023F001035361202380F842300023436301
:102E1000036B012B33D100230363026802F10C031F
:102E200053E8003F23F010030C3242E80031002940
:102E3000F3D103681A6812F0100F06D00022019235
:102E40001A6801925B680193019B818DFFF7AAFFCD
:102E5000002003B05DF804FB0269002AACD1826A4D
:102E600003685B68C3F308031380836A02338362D9
:102E7000B1E703685B6803F07F031370A8E7FFF70F
:102E800087FFE5E7022070470020704730B583B028
:102E9000044602681368D068516913F00F0505D124
:102EA00013F0200F02D010F0200F19D12DB111F026
:102EB000010119D110F4907F16D1216B01297DD029
:102EC00013F0800F03D010F0800F40F0198113F041
:102ED000400F03D010F0400F40F0168103B030BD1A
:102EE0002046FFF760FFF9E713F0010F06D010F45A
:102EF000807F03D0626C42F00102626413F0040F21
:102F000004D019B1626C42F00202626413F0020F45
:102F100004D019B1626C42F00402626413F0080F2D
:102F200007D010F0200F00D119B1626C42F00802F6
:102F30006264626C002AD1D013F0200F02D010F02E
:102F4000200F29D123685B6903F04003626C12F003
:102F5000080F00D163B32046FFF7F6FD23685B69D5
:102F600013F0400F20D0226802F1140353E8003F11
:102F700023F04003143242E800310029F3D1E36B1F
:102F800073B1634A1A65E06BFFF7CDFB0028A5D04B
:102F9000E06B036D9847A1E72046FFF704FFD1E7F8
:102FA0002046FFF7F6FE99E72046FFF7F2FE95E789
:102FB0002046FFF7EEFE002363648FE713F0100F47
:102FC0003FF47EAF10F0100F3FF47AAF002301936F
:102FD0001368019353680193019B536913F0400FE9
:102FE00052D0E26B13685B689BB2002B3FF476AF64
:102FF000A18D99427FF672AFE385D369B3F5807FE7
:1030000037D0226802F10C0353E8003F23F48073A9
:103010000C3242E800310029F3D1226802F1140396
:1030200053E8003F23F00103143242E80031002945
:10303000F3D1226802F1140353E8003F23F0400368
:10304000143242E800310029F3D1202384F84230C1
:1030500000232363226802F10C0353E8003F23F0AE
:1030600010030C3242E800310029F3D1E06BFFF786
:1030700010FB02236363A18DE38D9BB2C91A89B251
:103080002046FFF78FFE29E7A18DE38D9BB2C91A79
:1030900089B2E38D9BB2002B3FF420AF00293FF4AF
:1030A0001DAF226802F10C0353E8003F23F4907334
:1030B0000C3242E800300028F3D1226802F11403F8
:1030C00053E8003F23F00103143242E800300028A7
:1030D000F3D1202384F8423000232363226802F1D5
:1030E0000C0353E8003F23F010030C3242E8003099
:1030F0000028F3D1022363632046FFF753FEEDE679
:103100002046FFF74FFDE9E62046FFF734FEE5E6EF
:10311000952D0008034AD2F8883043F47003C2F8B2
:103120008830704700ED00E008B50D480D4B036096
:103130004FF48273436000238360C3600361436183
:103140004FF480228261C3610362436283620A2377
:10315000C36200F03FFB00B908BDFDF7F5FDFBE7DA
:10316000500A0020003C00402DE9F0418AB00023C5
:10317000059306930793089309930268434B9A4279
:1031800002D00AB0BDE8F08104460025009503F5A1
:10319000FE331A6B42F010021A631A6B02F010022F
:1031A0000092009A01951A6B42F010021A631A6B92
:1031B00002F010020192019A02951A6C42F4004248
:1031C0001A641A6C02F400420292029A03951A6B76
:1031D00042F001021A631A6B02F001020392039A91
:1031E00004951A6B42F004021A631B6B03F004038C
:1031F0000493049B102305934FF00208CDF8188028
:10320000032708970626099605A92148FFF722F803
:103210004FF4A0530593CDF81880079508970996A9
:1032200005A91C48FFF716F81B481C4B03604560B6
:1032300040238360C5604FF480630361456185610D
:10324000C5614FF4803303624562FFF787F9C8B95F
:10325000114BA3649C630823059301260696022361
:103260000793002408940E4D05A92846FEF7F2FFA7
:103270001023059306960794089405A92846FEF79F
:10328000E9FF7EE7FDF760FDE2E700BF003C00409C
:103290000000024000080240F0090020886002405F
:1032A0000010024000B583B08DF807000022102105
:1032B0000648FFF7CDF84FF47A7301220DF10701AC
:1032C000034800F0E6FA03B05DF804FB001002408A
:1032D000500A002000B583B08DF8070001221021AC
:1032E0000648FFF7B5F84FF47A7301220DF1070194
:1032F000034800F0CEFA03B05DF804FB0010024072
:10330000500A002000B583B0030A8DF804308DF810
:103310000500012210210948FFF79AF8022201A9AD
:10332000074800F093FB074B1B78002BFBD0054BA5
:1033300000221A7003B05DF804FB00BF00100240C9
:10334000500A0020A80A002038B505460C46012284
:1033500010210848FFF77CF8620092B2294606481F
:1033600000F074FB054B1B78002BFBD0034B0022B5
:103370001A7038BD00100240500A0020A80A002030
:103380002DE9F04180460E4617461D462A20FFF7DC
:1033900089FF0F4CA37A03EB080080B2FFF7B2FF5E
:1033A000A07A384480B2FFF7ADFF2B20FFF77AFFF9
:1033B000E07A304480B2FFF7A5FFE07A284480B27B
:1033C000FFF7A0FF2C20FFF76DFFBDE8F08100BFE5
:1033D000E0010020014B1880704700BFE001002091
:1033E000014B5880704700BFE001002008B5274B13
:1033F000587130B1022815D0012824D0032833D0C9
:1034000008BD3620FFF74EFF7020FFF763FF1F4B0C
:1034100014229A720022DA724FF4A072DA80F0223B
:103420001A81EDE73620FFF73DFF0020FFF752FF3E
:10343000164B00229A721422DA72F022DA804FF4CC
:10344000A0721A81DCE73620FFF72CFFA020FFF7DF
:1034500041FF0E4B14229A720022DA724FF4A072CE
:10346000DA80F0221A81CBE73620FFF71BFFC0205D
:10347000FFF730FF054B00229A721422DA72F02215
:10348000DA804FF4A0721A81BAE700BFE001002091
:1034900010B5002305E0164A5188164A22F8131089
:1034A0000133B3F5806FF6DB114BDA881B89013BE2
:1034B000013A9BB292B200210846FFF761FF012258
:1034C00010210D48FEF7C4FF00240DE04FF4006208
:1034D00008490A4800F0BAFA094B1B78002BFBD0C8
:1034E000074B00221A7001344A2CEFDD10BD00BFDB
:1034F000E0010020F001002000100240500A0020EE
:10350000A80A00202DE9F041A2F12007FFB2002314
:103510009E461E4623E0244AB2F80280234A22F83F
:103520001E8064080EF1010E1FFA8EFE01339BB25D
:10353000AA889A4210D00CF1010C1FFA8CFCBCF145
:10354000070F0AD814F0010FE5D0174AB2F800802F
:10355000164A22F81E80E4E700230136B6B2144A68
:1035600015682C89B44206D92A6804FB0764145DE7
:103570004FF0000CE3E7AA88024492B2EB880B44B8
:103580009BB2013B013A9BB292B2FFF7F9FE084BA6
:103590001B689988DB8811FB03F189B20348FFF7A8
:1035A000D3FEBDE8F08100BFE0010020F001002063
:1035B000EC01002070B504460E46154609E0314680
:1035C0002046FFF79FFF074B1B6898880444A4B26E
:1035D0000135054BDB88A34202D92A78002AEED1B7
:1035E00070BD00BFEC010020E0010020014B18710C
:1035F000704700BFE001002030B585B004460D469D
:1036000011461A460A4B1B795BB90B4609496846B5
:1036100000F030FB6A4629462046FFF7CBFF05B095
:1036200030BD0B460449684600F024FBF2E700BFBA
:10363000E0010020D4450008DC45000830B589B021
:1036400004460D460B49097961B98DED000B0A4915
:1036500003A800F00FFB03AA29462046FFF7AAFFA4
:1036600009B030BD8DED000B044903A800F002FB4A
:10367000F1E700BFE0010020E0450008E845000850
:103680002DE9F04782B00546884617461E46FFF7EB
:1036900041FA0A9B1B1A03EB0609FFF73BFA824625
:1036A0002B4B1B68C3F3CB3309FB03F301932B684C
:1036B0009C6838EA04030CBF4FF0010C4FF0000C7B
:1036C000BC4540D0B6F1FF3FF1D0FFF723FAA0EBA5
:1036D0000A0048450AD2B9F1000F07D0019A02B199
:1036E0004A46019B013B01939146E0E72A685368F3
:1036F00023F0E00353606B68B3F5827F0BD0AB6AB5
:10370000B3F5005F14D0012385F85130002385F80C
:103710005030032018E0AB68B3F5004F02D0B3F58A
:10372000806FECD12A68136823F040031360E6E74A
:103730002A68136823F4005313602A68136843F45B
:1037400000531360DFE7002002B0BDE8F08700BF40
:103750000800002070B584B004460D46164600925D
:103760000B4601220221FFF78BFFD0B9174B1B68D4
:10377000174AA2FB03235B0D4FF47A7202FB03F39B
:1037800003936368B3F5827F11D0039B3BB1039B26
:10379000013B039323689B6813F0800FF5D104B0BD
:1037A00070BD636D43F0200363650320F7E7009667
:1037B0002B46002280212046FFF762FF0028EED032
:1037C000636D43F0200363650320E8E708000020F1
:1037D000819F5E1600285AD010B50446436A33B95B
:1037E0004368B3F5827F05D00023C36102E0002364
:1037F000036143610023A36294F85130002B40D051
:10380000022384F851302268136823F040031360C8
:10381000636803F48273A26802F404421343E2680B
:1038200002F400621343226902F002021343626948
:1038300002F001021343A26902F400721343E26929
:1038400002F038021343226A02F080021343A26A94
:1038500002F40052216813430B60638B03F00403EE
:10386000626A02F01002216813434B602268D36938
:1038700023F40063D36100206065012384F8513094
:1038800010BD84F850302046FFF76EFCB8E70120E9
:1038900070472DE9F04383B01D4690F85030012B5E
:1038A00000F0D180044688469146012380F85030CC
:1038B000FFF730F9074694F85160F6B2012E40F058
:1038C000BA80B8F1000F00F0B780B9F1000F00F036
:1038D000B380032384F8513000236365C4F830803B
:1038E000A4F83490A4F83690A363A387E3876364B5
:1038F0002364A368B3F5004F1ED023681A6812F042
:10390000400F03D11A6842F040021A60E368B3F531
:10391000006F1CD0636813B1B9F1010F55D1226B50
:10392000236812781A73236B01332363E38E9BB2EF
:10393000013B9BB2E38648E02268136823F0400312
:1039400013602268136843F480431360D5E763680B
:1039500013B1B9F1010F15D1226B23681288DA6017
:10396000236B02332363E38E9BB2013B9BB2E3865E
:1039700008E0FFF7CFF8C01BA84202D3B5F1FF3F24
:1039800015D1A5B1E38E9BB2002B3CD023689A6879
:1039900012F0020FEDD0226B1288DA60236B023333
:1039A0002363E38E9BB2013B9BB2E386EAE70123EC
:1039B00084F8513003263FE0FFF7ACF8C01BA84263
:1039C00002D3B5F1FF3F19D1C5B1E38E9BB2D3B19C
:1039D00023689A6812F0020FEED0226B12781A73E5
:1039E000236B01332363B4F836C01FFA8CFC0CF14F
:1039F000FF3C1FFA8CFCA4F836C0E6E7012384F8EC
:103A00005130032618E03A4629462046FFF7A2FE29
:103A100008B120236365A36833B901932368DA688A
:103A200001929B680193019B636D2BB9012384F87C
:103A30005130002600E00226002384F85030304642
:103A400003B0BDE8F0830226F9E7000038B590F82E
:103A50005030012B5ED00446012380F8503090F89E
:103A60005150EDB29D424FD100294ED0002A4CD08A
:103A7000032380F851300023436501638286C286A8
:103A80008363436403648387C3878368B3F5004F0C
:103A90002AD0A36C204A1A64A36C204ADA63A36C70
:103AA0001F4ADA64A36C00221A652268E38E9BB277
:103AB0000C32216BA06CFEF7B7FD0146F8B9236804
:103AC0001A6812F0400F03D11A6842F040021A60DF
:103AD0002268536843F0200353602268536843F020
:103AE000020353600D4610E00268136823F04003A0
:103AF00013600268136843F480431360C9E7636D81
:103B000043F01003636500E00225002384F8503081
:103B1000284638BD0225FBE7293B0008573B000833
:103B2000353B00087047704708B5806BFFF7FBFF17
:103B300008BD704708B5806B0268536823F0030323
:103B40005360436D43F010034365012380F8513007
:103B5000FFF7EFFF08BD30B583B00546846BFEF775
:103B6000D9FF2B681B6813F4807F23D1024621689C
:103B70004B6823F020034B6021684B6823F002035D
:103B80004B6064212046FFF7E5FD18B1636D43F0FB
:103B900020036365A36833B901932368DA6801924F
:103BA0009B680193019B0023E386012384F8513035
:103BB000636D23B92046FFF7B5FF03B030BD204643
:103BC000FFF7B7FFF9E70000DFF834D0FFF7A2FAFC
:103BD0000C480D490D4A002302E0D458C450043368
:103BE000C4188C42F9D30A4A0A4C002301E013603E
:103BF0000432A242FBD300F011F8FDF701F970473F
:103C0000000003200000002070000020344600085F
:103C100070000020C00A0020FEE7000070B50D4DC6
:103C20000D4C641BA4100026A64209D10B4D0C4C70
:103C300000F09CFC641BA4100026A64205D170BDB8
:103C400055F8043B98470136EEE755F8043B984792
:103C50000136F2E72C4600082C4600082C460008E6
:103C60003046000802440346934200D1704703F8EF
:103C7000011BF9E70EB400B59CB01DAB0290069095
:103C80006FF00041094807910491094953F8042B4A
:103C900005910068019302A900F068F8029B0022D8
:103CA0001A701CB05DF804EB03B070470C000020E4
:103CB0000802FFFF2DE9F0478E689E4282460C46BF
:103CC00090461F4638D88A8912F4906F32D0256802
:103CD0000969A5EB0109656905EB450505EBD57596
:103CE00001334B446D109D4238BF1D46530531D5FD
:103CF000294600F063FB064650B90C23CAF8003091
:103D0000A38943F04003A3814FF0FF30BDE8F08763
:103D100021694A4600F0BEFAA38923F4906343F078
:103D20008003A381266165614E44A5EB09052660E9
:103D3000A5603E46BE4200D93E4620683246414616
:103D400000F0B6FAA3689B1BA3602368334423608A
:103D50000020DBE72A4600F0A5FB06460028E1D15B
:103D60002169504600F0BEFAC7E700002DE9F04F88
:103D700098468B891B069DB007460D4614460ED506
:103D80000B6963B9402100F019FB2860286120B954
:103D90000C233B604FF0FF30D1E040236B610023E8
:103DA000099320238DF82930CDF80C803023DFF8DB
:103DB000A8818DF82A304FF0010923469A4613F85E
:103DC000012B0AB1252AF9D1BAEB040B0BD05B46C3
:103DD000224629463846FFF76DFF013000F0AA80E1
:103DE000099A5A4409929AF80030002B00F0A280F8
:103DF00000234FF0FF32CDE905230AF1010A0493B5
:103E000007938DF853301A935446052214F8011B7A
:103E10005148FCF7EDF9049AD8B9D00644BF2023E5
:103E20008DF85330110744BF2B238DF853309AF887
:103E300000302A2B15D0079A544600204FF00A0C68
:103E4000214611F8013B303B092B4ED9B0B1079206
:103E500014E0A0EB080309FA03F313430493A2460A
:103E6000D2E7039B191D1B680391002BBBBF5B426C
:103E700042F0020207930793B8BF049223782E2BD7
:103E80000CD163782A2B35D1039B1A1D1B68039232
:103E9000002BB8BF4FF0FF3302340593DFF8C8A002
:103EA000217803225046FCF7A3F940B14023A0EB50
:103EB0000A0003FA00F0049B03430134049314F84E
:103EC000011B26488DF828100622FCF791F90028DE
:103ED00038D0234B1BBB039B073323F00703083366
:103EE0000393099B3344099367E70CFB02320C46AA
:103EF0000120A5E700230134059319464FF00A0C71
:103F0000204610F8012B303A092A03D9002BC5D0DE
:103F10000591C3E70CFB012104460123F0E703AB45
:103F200000932A460F4B04A93846AFF30080421C89
:103F30000646D6D1AB895B063FF52CAF09981DB07C
:103F4000BDE8F08F03AB00932A46064B04A9384620
:103F500000F07AF8EBE700BFEF450008F9450008EC
:103F600000000000B53C0008F54500082DE9F047C9
:103F7000164699468A680B69DDF820809342B8BFDF
:103F80001346336091F8432007460C460AB10133CB
:103F900033602368990642BF336802333360256873
:103FA00015F0060506D104F1190AE36832689B1A78
:103FB000AB4226DC94F84320131E226818BF01236D
:103FC00092062BD404F1430249463846C0470130DB
:103FD0001ED02368E568326803F00603042B08BF8F
:103FE000AD1AA36822690CBF25EAE5750025934246
:103FF000C4BF9B1AED1800261A34B5421AD100200E
:1040000008E00123524649463846C047013003D1F3
:104010004FF0FF30BDE8F0870135C6E7E1185A1CC4
:10402000302081F84300224494F8451082F8431070
:104030000233C7E70123224649463846C0470130CC
:10404000E6D00136D9E700002DE9FF470F7E0C9D31
:10405000782F914680460C469A4601F1430207D8D4
:10406000622F0AD8002F00F0D880582F00F0A380CC
:1040700004F1420584F842703AE0A7F16303152B7E
:10408000F6D801A151F823F0E1400008F5400008FE
:10409000714000087140000871400008714000083C
:1040A000F5400008714000087140000871400008A8
:1040B000714000080142000825410008E341000862
:1040C0007140000871400008234200087140000858
:1040D000254100087140000871400008EB410008CC
:1040E0002B681A1D1B682A6004F1420584F84230CF
:1040F0000123A3E020682968060601F104030AD51C
:104100000E682B60002E03DA2D23764284F84330AC
:104110005E480A2319E00E682B6010F0400F18BFAC
:1041200036B2EFE72B682068191D2960010601D51A
:104130001E6802E04606FBD51E8854486F2F0CBF50
:1041400008230A23002184F843106568A560002D28
:10415000A2BF216821F0040121600EB9002D4DD0CD
:104160001546B6FBF3F103FB1167C75D05F8017D4A
:104170003746BB420E46F4D9082B0BD12368DE0725
:1041800008D5236961689942DEBF302305F8013CF8
:1041900005F1FF35521B2261CDF800A04B4603AA62
:1041A00021464046FFF7E2FE01304CD14FF0FF3090
:1041B00004B0BDE8F087354881F845702968236868
:1041C00051F8046B29601D0614D5DF0744BF43F086
:1041D000200323601EB9236823F0200323601023EB
:1041E000B0E7236843F0200323607823284884F84D
:1041F0004530E3E7590648BFB6B2E6E71546BBE7E8
:104200002B6826686169181D286035061B6801D572
:10421000196002E07006FBD5198000232361154662
:10422000BAE72B681A1D2A601D68626800212846BB
:10423000FBF7DEFF08B1401B606063682361002369
:1042400084F84330A8E723692A4649464046D047C8
:104250000130ABD023689B0713D4E068039B9842DE
:10426000B8BF1846A4E70123324649464046D04726
:1042700001309BD00135E36803995B1AAB42F2DC55
:10428000EBE7002504F11906F5E700BF004600083A
:10429000114600080A44914200F1FF3300D17047F3
:1042A00010B511F8014B03F8014F9142F9D110BD3F
:1042B000884210B501EB020402D98442234607D894
:1042C000431EA14208D011F8012B03F8012FF8E793
:1042D000024401468A4200D110BD13F8014D02F894
:1042E000014DF7E737B5002944D051F8043C01905F
:1042F000002BA1F10404B8BFE41800F013F91E4A22
:104300000198136833B96360146003B0BDE83040AE
:1043100000F00EB9A34208D9256861198B4201BF8C
:1043200019685B6849192160EDE71A465B680BB1B3
:10433000A342FAD911685518A5420BD1246821442B
:104340005418A3421160E0D11C685B68536021449B
:104350001160DAE702D90C230360D6E725686119FA
:104360008B4204BF19685B68636004BF4919216010
:104370005460CAE703B030BDAC0A002070B50E4EE1
:104380000C463168054611B900F0BCF83060214692
:10439000284600F0B7F8431C0AD0C41C24F00304DC
:1043A000A04207D0211A284600F0ACF8013001D114
:1043B0004FF0FF34204670BDB00A00202DE9F041D7
:1043C000CD1C25F0030508350C2D38BF0C25002D1C
:1043D000074601DBA94205D90C233B600026304685
:1043E000BDE8F0812E4E00F09DF833681C4634BBCA
:1043F00029463846FFF7C2FF431C04464DD13468B6
:104400002646002E40D123683146384604EB030887
:1044100000F078F880453AD1216803356D1A25F00F
:10442000030508350C2D38BF0C2529463846FFF703
:10443000A5FF01302BD023682B4423600EE02268B7
:10444000521B1ED40B2A16D96119A342256018BF2E
:104450005960636808BF316062514B60384604F1AF
:104460000B0600F065F826F00706231DF21AB6D0F9
:104470009B1BA350B3E76268A3420CBF32605A6033
:10448000ECE723466468B2E734467668B9E70C2364
:104490003B60384600F04CF8A1E72560DEE700BF3E
:1044A000AC0A00202DE9F041804614460E4621B9A1
:1044B000BDE8F0411146FFF781BF2AB9FFF712FFAF
:1044C00025462846BDE8F08100F038F884420746CA
:1044D00002D8B4EB500F12D821464046FFF76EFFCA
:1044E00005460028EDD0BC422246314628BF3A4658
:1044F000FFF7D0FE31464046FFF7F4FEE1E73546D0
:10450000DFE7000038B5064D0023044608462B605F
:1045100000F01EF8431C02D12B6803B1236038BDA4
:10452000B40A0020014800F011B800BFB80A00200A
:10453000014800F00CB800BFB80A002051F8043C54
:10454000181F002BBCBF0B58C0187047704770472E
:10455000044A05491368002B08BF0B461844106035
:1045600018467047BC0A0020C00A0020F8B500BFFA
:10457000F8BC08BC9E467047F8B500BFF8BC08BC44
:044580009E4670479C
:1045840074657374202B3A0074657374202D3A009B
:1045940074657374203A000074657374303A0000D3
:1045A400746573742B2E3A00746573742D2E3A005F
:1045B400000610160006101600000000000000009F
:1045C40001020304060708090000000001020304B5
:1045D40025302E2A64000000252A640025302A2E66
:1045E4002A6C6600252A2E2A6C6600232D302B2087
:1045F40000686C4C006566674546470030313233CD
:104604003435363738394142434445460030313237
:1046140033343536373839616263646566000000C7
:0846240068C2FF7F01000000E5
:04462C00D5010008AC
:04463000B1010008CC
:1046340001000000100000000024F400100000201D
:104644000000000000000000000000000000000066
:104654000000000000000000000000000000000056
:104664000000000000000000000000000000000046
:104674000000000000000000000000000000000036
:104684000000000000000000000000000000000026
:104694000000000000000000000000000000000016
:0400000508003BC9EB
:00000001FF
