:020000040800F2
:1000000000000320FD5E0008911100089311000814
:1000100095110008971100089911000800000000D0
:10002000000000000000000000000000A15A0008CD
:100030009B11000800000000415B00086D5D000896
:100040004D5F00084D5F00084D5F00084D5F0008E0
:100050004D5F00084D5F00084D5F00084D5F0008D0
:100060004D5F00084D5F00084D5F00084D5F0008C0
:100070004D5F00084D5F00084D5F00084D5F0008B0
:100080009D1100084D5F00084D5F00084D5F00089E
:100090004D5F00084D5F00084D5F00084D5F000890
:1000A0004D5F0008AD1100084D5F00084D5F00086E
:1000B0004D5F00084D5F0008BD1100084D5F00084E
:1000C0004D5F00084D5F00084D5F00084D5F000860
:1000D0004D5F0008CD1100084D5F00084D5F00081E
:1000E0004D5F00084D5F00084D5F00084D5F000840
:1000F0004D5F00084D5F00084D5F00084D5F000830
:100100004D5F00084D5F00084D5F00084D5F00081F
:100110004D5F00084D5F00084D5F00084D5F00080F
:100120004D5F00084D5F0008DD1100084D5F0008BD
:100130004D5F00084D5F00084D5F00084D5F0008EF
:100140004D5F00084D5F00084D5F00084D5F0008DF
:100150004D5F00084D5F0008ED1100084D5F00087D
:100160004D5F00084D5F00084D5F00084D5F0008BF
:100170004D5F00084D5F00084D5F00080000000063
:100180004D5F00084D5F00084D5F00084D5F00089F
:100190004D5F00084D5F00084D5F00084D5F00088F
:0C01A0004D5F00084D5F00084D5F000837
:1001B00010B5054C237833B9044B13B10448AFF3A1
:1001C00000800123237010BD80000020000000008B
:1001D0005069000808B5034B1BB103490348AFF34E
:1001E000008008BD00000000840000205069000865
:1001F000034613F8012B002AFBD1181A0138704767
:1002000001F0FF01102A2BDB10F0070F08D010F8C7
:10021000013B013A8B422DD010F0070F42B3F6D1CB
:10022000F0B441EA012141EA014122F007047FF0E4
:1002300000070023F0E80256083C85EA010586EA3B
:10024000010685FA47F5A3FA87F586FA47F6A5FA77
:1002500087F68EB9EED1F0BC01F0FF0102F0070283
:1002600032B110F8013B013A83EA010313B1F8D12E
:100270000020704701387047002D06BF354603380F
:10028000073815F0010F07D1013015F4807F02BF48
:10029000013015F4C03F0130F0BC0138704700BF99
:1002A00070B54FF0FF0C4CF4E06C1CEA11541DBF0C
:1002B0001CEA135594EA0C0F95EA0C0F00F0DEF8D7
:1002C0002C4481EA030621EA4C5123EA4C5350EABC
:1002D000013518BF52EA033541F4801143F480130D
:1002E00038D0A0FB02CE4FF00005E1FB02E506F09E
:1002F0000042E0FB03E54FF00006E1FB03569CF0F3
:10030000000F18BF4EF0010EA4F1FF04B6F5007FF8
:1003100064F5407404D25FEA4E0E6D4146EB06066A
:1003200042EAC62141EA55514FEAC52040EA5E50F3
:100330004FEACE2EB4F1FD0C88BFBCF5E06F1ED89D
:10034000BEF1004F08BF5FEA500E50F1000041EBD4
:10035000045170BD06F0004646EA010140EA020081
:1003600081EA0301B4EB5C04C2BFD4EB0C0541EAA3
:10037000045170BD41F480114FF0000E013C00F3B8
:10038000AB8014F1360FDEBF002001F0004170BDDC
:10039000C4F10004203C35DA0C341BDC04F11404F5
:1003A000C4F1200500FA05F320FA04F001FA05F281
:1003B00040EA020001F0004221F0004110EBD3704E
:1003C00021FA04F642EB06015EEA430E08BF20EA7A
:1003D000D37070BDC4F10C04C4F1200500FA04F31D
:1003E00020FA05F001FA04F240EA020001F00041AF
:1003F00010EBD37041F100015EEA430E08BF20EA22
:10040000D37070BDC4F1200500FA05F24EEA020E69
:1004100020FA04F301FA05F243EA020321FA04F098
:1004200001F0004121FA04F220EA020000EBD3704F
:100430005EEA430E08BF20EAD37070BD94F0000F4F
:100440000FD101F00046400041EB010111F4801F83
:1004500008BF013CF7D041EA060195F0000F18BF34
:10046000704703F00046520043EB030313F4801F70
:1004700008BF013DF7D043EA0603704794EA0C0F2A
:100480000CEA135518BF95EA0C0F0CD050EA410640
:1004900018BF52EA4306D1D181EA030101F00041BD
:1004A0004FF0000070BD50EA410606BF10461946E5
:1004B00052EA430619D094EA0C0F02D150EA0136F1
:1004C00013D195EA0C0F05D152EA03361CBF104632
:1004D00019460AD181EA030101F0004141F0FE41D1
:1004E00041F470014FF0000070BD41F0FE4141F455
:1004F000780170BD81F0004102E000BF83F000434D
:1005000030B54FEA41044FEA430594EA050F08BFAE
:1005100090EA020F1FBF54EA000C55EA020C7FEA72
:10052000645C7FEA655C00F0E2804FEA5454D4EBEF
:100530005555B8BF6D420CDD2C4480EA020281EAB9
:10054000030382EA000083EA010180EA020281EAF1
:100550000303362D88BF30BD11F0004F4FEA013143
:100560004FF4801C4CEA113102D0404261EB410152
:1005700013F0004F4FEA03334CEA133302D05242D8
:1005800063EB430394EA050F00F0A780A4F1010494
:10059000D5F1200E0DDB02FA0EFC22FA05F28018CE
:1005A00041F1000103FA0EF2801843FA05F35941B4
:1005B0000EE0A5F120050EF1200E012A03FA0EFC33
:1005C00028BF4CF0020C43FA05F3C01851EBE3715D
:1005D00001F0004507D54FF0000EDCF1000C7EEB7A
:1005E00000006EEB0101B1F5801F1BD3B1F5001FB8
:1005F0000CD349085FEA30004FEA3C0C04F10104D7
:100600004FEA445212F5800F80F09A80BCF1004FFF
:1006100008BF5FEA500C50F1000041EB045141EA81
:10062000050130BD5FEA4C0C404141EB0101013C4A
:1006300028BFB1F5801FE9D291F0000F04BF014639
:100640000020B1FA81F308BF2033A3F10B03B3F10B
:1006500020020CDA0C3208DD02F1140CC2F10C029B
:1006600001FA0CF021FA02F10CE002F11402D8BFF9
:10067000C2F1200C01FA02F120FA0CFCDCBF41EAC5
:100680000C019040E41AA2BF01EB0451294330BD94
:100690006FEA04041F3C1CDA0C340EDC04F1140471
:1006A000C4F1200220FA04F001FA02F340EA030048
:1006B00021FA04F345EA030130BDC4F10C04C4F18E
:1006C000200220FA02F001FA04F340EA030029466E
:1006D00030BD21FA04F0294630BD94F0000F83F4B8
:1006E000801306BF81F480110134013D4EE77FEA9B
:1006F000645C18BF7FEA655C29D094EA050F08BFE7
:1007000090EA020F05D054EA000C04BF19461046C7
:1007100030BD91EA030F1EBF0021002030BD5FEA0B
:10072000545C05D14000494128BF41F0004130BD33
:1007300014F580043CBF01F5801130BD01F0004587
:1007400045F0FE4141F470014FF0000030BD7FEAFA
:10075000645C1ABF194610467FEA655C1CBF0B46F5
:10076000024650EA013406BF52EA033591EA030F0C
:1007700041F4002130BD00BF90F0000F04BF002104
:10078000704730B54FF4806404F132044FF0000537
:100790004FF0000150E700BF90F0000F04BF0021B0
:1007A000704730B54FF4806404F1320410F0004516
:1007B00048BF40424FF000013EE700BF42004FEA11
:1007C000E2014FEA31014FEA02701FBF12F07F438E
:1007D00093F07F4F81F06051704732F07F4208BF45
:1007E000704793F07F4F04BF41F40021704730B54C
:1007F0004FF4607401F0004521F000411CE700BF98
:1008000050EA010208BF704730B54FF000050AE01A
:1008100050EA010208BF704730B511F0004502D51B
:10082000404261EB41014FF4806404F132045FEA1D
:10083000915C3FF4D8AE4FF003025FEADC0C18BFC6
:1008400003325FEADC0C18BF033202EBDC02C2F1B8
:10085000200300FA03FC20FA02F001FA03FE40EA4A
:100860000E0021FA02F11444BDE600BF4FEA410236
:1008700012F5001215D211D56FF47873B3EB6252F2
:1008800012D94FEAC12343F0004343EA505311F019
:10089000004F23FA02F018BF404270474FF00000AB
:1008A000704750EA013005D111F0004008BF6FF0E9
:1008B000004070474FF00000704700BF4FEA410210
:1008C000B2F1E04324BFB3F5001CDCF1FE5C0DD9AE
:1008D00001F0004C4FEAC0024CEA5070B2F1004FF8
:1008E00040EB830008BF20F00100704711F0804FFB
:1008F00021D113F13872BCBF01F00040704741F4C0
:1009000080114FEA5252C2F11802C2F1200C10FAC3
:100910000CF320FA02F018BF40F001004FEAC123A7
:100920004FEAD32303FA0CFC40EA0C0023FA02F34B
:100930004FEA4303CCE77FEA625307D150EA013321
:100940001EBF4FF0FE4040F44000704701F00040F1
:1009500040F0FE4040F40000704700BF53B94AB970
:10096000002908BF00281CBF4FF0FF314FF0FF30B7
:1009700000F074B9ADF1080C6DE904CE00F006F892
:10098000DDF804E0DDE9022304B070472DE9F0470B
:10099000089D04468E46002B4DD18A42944669D963
:1009A000B2FA82F252B101FA02F3C2F1200120FA46
:1009B00001F10CFA02FC41EA030E94404FEA1C4894
:1009C000210CBEFBF8F61FFA8CF708FB16E341EA90
:1009D000034306FB07F199420AD91CEB030306F116
:1009E000FF3080F01F81994240F21C81023E634437
:1009F0005B1AA4B2B3FBF8F008FB103344EA0344DB
:100A000000FB07F7A7420AD91CEB040400F1FF33EF
:100A100080F00A81A74240F207816444023840EA2C
:100A20000640E41B00261DB1D4400023C5E9004365
:100A30003146BDE8F0878B4209D9002D00F0EF80E8
:100A40000026C5E9000130463146BDE8F087B3FA1B
:100A500083F6002E4AD18B4202D3824200F2F98003
:100A6000841A61EB030301209E46002DE0D0C5E906
:100A7000004EDDE702B9FFDEB2FA82F2002A40F052
:100A80009280A1EB0C014FEA1C471FFA8CFE012655
:100A9000200CB1FBF7F307FB131140EA01410EFBF9
:100AA00003F0884208D91CEB010103F1FF3802D2A0
:100AB000884200F2CB804346091AA4B2B1FBF7F09A
:100AC00007FB101144EA01440EFB00FEA64508D9BD
:100AD0001CEB040400F1FF3102D2A64500F2BB80FA
:100AE0000846A4EB0E0440EA03409CE7C6F1200749
:100AF000B34022FA07FC4CEA030C20FA07F401FA8F
:100B000006F31C43F9404FEA1C4900FA06F3B1FB17
:100B1000F9F8200C1FFA8CFE09FB181140EA01417C
:100B200008FB0EF0884202FA06F20BD91CEB010119
:100B300008F1FF3A80F08880884240F28580A8F171
:100B400002086144091AA4B2B1FBF9F009FB1011C3
:100B500044EA014100FB0EFE8E4508D91CEB010161
:100B600000F1FF346CD28E456AD90238614440EA04
:100B70000840A0FB0294A1EB0E01A142C846A64684
:100B800056D353D05DB1B3EB080261EB0E0101FA0D
:100B900007F722FA06F3F1401F43C5E9007100266A
:100BA0003146BDE8F087C2F12003D8400CFA02FCC0
:100BB00021FA03F3914001434FEA1C471FFA8CFED0
:100BC000B3FBF7F007FB10360B0C43EA064300FBC0
:100BD0000EF69E4204FA02F408D91CEB030300F15E
:100BE000FF382FD29E422DD9023863449B1B89B215
:100BF000B3FBF7F607FB163341EA034106FB0EF39E
:100C00008B4208D91CEB010106F1FF3816D28B424A
:100C100014D9023E6144C91A46EA004638E72E4616
:100C2000284605E70646E3E61846F8E64B45A9D20E
:100C3000B9EB020864EB0C0E0138A3E74646EAE77D
:100C4000204694E74046D1E7D0467BE7023B61442B
:100C500032E7304609E76444023842E7704700BF94
:100C600008B50268034B9A4200D008BD01F0D0FEDF
:100C7000FBE700BF0000014072B6FEE700B595B08B
:100C80003022002108A805F095F90023039304936E
:100C90000593069307930193234A116C41F0805109
:100CA0001164126C02F080520192019A02931F4B60
:100CB0001A6842F440421A601B6803F440430293EE
:100CC000029B012308934FF48033099302230E9370
:100CD0004FF480020F92192210924FF4B4721192C5
:100CE00012930423139308A800F036FFB0B901F063
:100CF000DFFDA8B90F230393022304930023059378
:100D00004FF4A05306934FF480530793052103A893
:100D100001F070F930B915B05DF804FBFFF7ACFFD6
:100D2000FFF7AAFFFFF7A8FF00380240007000405D
:100D300008B501F053FEFFF7A1FF00F021F800F025
:100D400095F800F08BF900F017F902F0E5FB0B4C79
:100D5000204600F039FB0021204600F033FE04213C
:100D6000204600F02FFE0821204600F02BFE05F063
:100D700009F803F0BBF805F017F8FEE79C00002027
:100D80002DE9F0418AB00024059406940794089454
:100D900009940094314B1A6B42F010021A631A6BDB
:100DA00002F010020092009A01941A6B42F00402C1
:100DB0001A631A6B02F004020192019A02941A6BF0
:100DC00042F080021A631A6B02F080020292029AC9
:100DD00003941A6B42F001021A631A6B02F00102CB
:100DE0000392039A04941A6B42F002021A631B6B7B
:100DF00003F002030493049BDFF86C802246182161
:100E0000404601F0E9FA164F22460821384601F023
:100E1000E3FA144E01220221304601F0DDFA1823D4
:100E20000593012506950794089505A9404601F00C
:100E3000D5F908230593069507940224089405A97B
:100E4000384601F0CBF9059406950795089505A954
:100E5000304601F0C3F90AB0BDE8F0810038024025
:100E6000001C0240000402400010024010B582B095
:100E700000240094164B1A6B42F480021A631A6B1A
:100E800002F480020092009A01941A6B42F400125C
:100E90001A631B6B03F400130193019B2246052187
:100EA000102001F055FD102001F08AFD2246052199
:100EB0003A2001F04DFD3A2001F082FD2246052145
:100EC000462001F045FD462001F07AFD02B010BD3C
:100ED00000380240014B01221A707047B80A002006
:100EE00002680E4B9A4200D0704700B583B00022D2
:100EF000019203F50C33196C41F0040119641B6C69
:100F000003F004030193019B05211E2001F020FD45
:100F10001E2001F055FD03B05DF804FB0008004001
:100F200000B587B0002301930293039304930593C4
:100F300002680E4B9A4202D007B05DF804FB002312
:100F400000930B4B1A6B42F002021A631B6B03F007
:100F500002030093009B4FF4E0730193022302937A
:100F6000059301A9034801F039F9E5E700080040BD
:100F7000003802400004024000B58FB000230A93FD
:100F80000B930C930D93089309930193029303938E
:100F900004930593069307932E482F4A0260592223
:100FA0004260836040F2E732C26003618023836164
:100FB00000F06EFB002837D14FF480530A930AA942
:100FC000244800F070FC002831D1224800F08CFB4E
:100FD00080BB00230893099308A91E4800F074FD04
:100FE00058BB602301934FF4FA73029302230393D7
:100FF0000423059300220DEB0301164800F0D8FBF3
:10100000F0B904220DEB0201124800F0D1FBD0B977
:10101000082201A90F4800F0CBFBB8B90D48FFF733
:101020007FFF0FB05DF804FBFFF726FEC4E7FFF774
:1010300023FECAE7FFF720FECBE7FFF71DFED0E750
:10104000FFF71AFEDDE7FFF717FEE1E7FFF714FEF3
:10105000E4E700BF9C0000200008004008B50A48F3
:101060000A4B03604FF4E133436000238360C360A5
:1010700003610C2242618361C36101F0D5FD00B9B7
:1010800008BDFFF7F9FDFBE7A401002000100140B7
:1010900030B589B000230393049305930693079317
:1010A000026803F1804303F588339A4201D009B006
:1010B00030BD04460025019503F594335A6C42F087
:1010C00010025A645A6C02F010020192019A0295C1
:1010D0001A6B42F001021A631B6B03F001030293C7
:1010E000029B4FF4C06303930223049303230693EC
:1010F0000723079303A9214801F070F82048214BEA
:1011000003604FF00063436040238360C5604FF489
:101110008063036145618561C5610562456201F0D7
:10112000E1F920BB164BA3639C631748174B036080
:101130004FF00063436000238360C3604FF480621C
:101140000261436183614FF48072C2610362436252
:1011500001F0C8F970B90C4BE3639C6300220521D0
:10116000252001F0F5FB252001F02AFC9FE7FFF781
:1011700083FDD7E7FFF780FDEDE700BF00000240E9
:1011800044010020B8640240E400002040640240B2
:10119000FEE7FEE7FEE7FEE7FEE7704708B5024818
:1011A00001F098FA08BD00BF000A002008B5024807
:1011B00000F053F908BD00BFBC0A002008B5024882
:1011C00000F04BF908BD00BF9C00002008B50248A4
:1011D00001F0E6FD08BD00BFA401002008B50248EB
:1011E00001F078FA08BD00BFE400002008B502480D
:1011F00001F070FA08BD00BF4401002000B583B0C3
:10120000002200920D4B596C41F480415964596C95
:1012100001F48041009100990192196C41F08051D4
:1012200019641B6C03F080530193019B0F216FF035
:10123000010001F08DFB03B05DF804FB00380240B3
:1012400030B4036A026A22F00102026242688469D1
:1012500024F073040D682C4323F0020C8B6843EADE
:101260000C03104DA84203D005F58065A84205D1B6
:1012700023F00803CD682B4323F00403094DA84253
:1012800003D005F58065A84205D122F440724D696E
:101290002A438D692A43426084614A68426303623B
:1012A00030BC70470000014030B4036A026A22F487
:1012B000807202624268C46924F0730C0C6844EACC
:1012C0000C0523F400738C6843EA0423114CA042FC
:1012D00003D004F58064A04206D123F40063CC68F7
:1012E00043EA042323F480630A4CA04203D004F5AC
:1012F0008064A04207D122F440524C6942EA0412B1
:101300008C6942EA04124260C5614A68C2630362A2
:1013100030BC70470000014030B4036A026A22F416
:10132000805202624468C26922F4E6420D6842EAD1
:10133000052223F400538D6843EA0533094DA84282
:1013400003D005F58065A84204D124F480444D699A
:1013500044EA85144460C2614A680264036230BC96
:10136000704700BF0000014010B4036A046A24F013
:1013700001040462846924F0F00C4CEA021223F0A8
:101380000A030B43826103625DF8044B704710B49B
:10139000036A046A24F010040462846924F4704C23
:1013A0004CEA023223F0A00343EA01138261036294
:1013B0005DF8044B7047836823F070030B4343F0E0
:1013C000070383607047000090F83D30DBB2012BCB
:1013D00037D1022380F83D300268D36843F001031F
:1013E000D3600368194A934220D0B3F1804F1DD0D7
:1013F000A2F57C42934219D002F58062934215D047
:1014000002F58062934211D002F5784293420DD0EA
:1014100002F57052934209D0A2F59432934205D05E
:101420001A6842F001021A60002070479A6802F0C0
:101430000702062A07D01A6842F001021A6000204B
:101440007047012070470020704700BF0000014036
:101450007047704770477047704770B5044603681F
:10146000DE681D6915F0020F10D016F0020F0DD0C6
:101470006FF002021A610123037703689B6913F07E
:10148000030F5ED0FFF7E6FF0023237715F0040F6C
:1014900012D016F0040F0FD023686FF004021A6107
:1014A0000223237723689B6913F4407F4FD02046A3
:1014B000FFF7D0FF0023237715F0080F12D016F0A6
:1014C000080F0FD023686FF008021A6104232377F6
:1014D0002368DB6913F0030F40D02046FFF7BAFF03
:1014E0000023237715F0100F12D016F0100F0FD035
:1014F00023686FF010021A61082323772368DB69E1
:1015000013F4407F31D02046FFF7A4FF0023237758
:1015100015F0010F02D016F0010F2DD115F0800F3C
:1015200002D016F0800F2FD115F0400F02D016F028
:10153000400F31D115F0200F02D016F0200F33D11B
:1015400070BDFFF786FF2046FFF785FF9CE720462A
:10155000FFF77FFF2046FFF77EFFABE72046FFF750
:1015600078FF2046FFF777FFBAE72046FFF771FFC5
:101570002046FFF770FFC9E723686FF001021A6188
:101580002046FFF76DFBC9E723686FF080021A6100
:10159000204600F0E0FAC7E723686FF040021A61C6
:1015A0002046FFF759FFC5E723686FF020021A6154
:1015B000204600F0CFFAC3E70368344A904212D0C5
:1015C000B0F1804F0FD0A2F57C4290420BD002F5D3
:1015D0008062904207D002F58062904203D002F50B
:1015E0007842904203D123F070034A681343274A9C
:1015F00090422AD0B0F1804F27D0A2F57C42904291
:1016000023D002F5806290421FD002F580629042A2
:101610001BD002F57842904217D002F570529042EA
:1016200013D002F5806290420FD002F580629042A2
:101630000BD0A2F59832904207D002F5806290421A
:1016400003D002F58062904203D123F44073CA684C
:10165000134323F080034A69134303608B68C3621A
:101660000B688362094B984203D003F5806398426C
:1016700001D10B69036301234361036913F0010F77
:1016800003D0036923F001030361704700000140A8
:1016900040B310B5044690F83D30F3B1022384F80E
:1016A0003D30214651F8040BFFF786FF012384F8F3
:1016B000463084F83E3084F83F3084F8403084F877
:1016C000413084F8423084F8433084F8443084F860
:1016D000453084F83D30002010BD80F83C30FFF7E5
:1016E000FFFBDBE70120704740B310B5044690F8DC
:1016F0003D30F3B1022384F83D30214651F8040B0C
:10170000FFF75AFF012384F8463084F83E3084F80E
:101710003F3084F8403084F8413084F8423084F817
:10172000433084F8443084F8453084F83D3000205C
:1017300010BD80F83C30FFF78BFEDBE701207047DF
:1017400030B4036A026A22F01002026244688269BD
:1017500022F4E6420D6842EA052223F020038D6858
:1017600043EA0513114DA84203D005F58065A84250
:1017700006D123F08003CD6843EA051323F040032C
:101780000A4DA84203D005F58065A84207D124F48C
:1017900040644D6944EA85048D6944EA85044460E7
:1017A00082614A688263036230BC70470000014076
:1017B00038B590F83C30012B66D004460D46012325
:1017C00080F83C300C2A5AD8DFE802F00759595902
:1017D0001B5959593059595944000068FFF730FDD9
:1017E0002268936943F0080393612268936923F0A8
:1017F000040393612268936929690B439361002074
:101800003EE00068FFF79CFF2268936943F40063A1
:1018100093612268936923F48063936122689369DA
:10182000296943EA01239361002029E00068FFF75A
:101830003BFD2268D36943F00803D3612268D36972
:1018400023F00403D3612268D36929690B43D36170
:10185000002015E00068FFF75FFD2268D36943F4BC
:101860000063D3612268D36923F48063D361226863
:10187000D369296943EA0123D361002000E00120F4
:10188000002384F83C3038BD0220FCE710B48468A3
:1018900024F47F4C42EA03220A4342EA0C028260AB
:1018A0005DF8044B704790F83C30012B78D010B5B0
:1018B0000446012380F83C30022380F83D30026862
:1018C000936823F47F4323F0770393600B68602BC6
:1018D0004CD029D8402B54D00CD9502B22D1CA68D7
:1018E00049680068FFF740FD50212068FFF763FD5D
:1018F000002005E0202B0DD009D9302B0AD0012083
:10190000012384F83D30002384F83C3010BD0BB136
:10191000102B05D119462068FFF74DFD0020EFE799
:101920000120EDE70120EBE7B3F5805F34D0B3F59C
:10193000005F0CD1CB684A6889680068FFF7A6FF92
:101940002268936843F4804393600020D8E7702BAB
:1019500024D1CB684A6889680068FFF797FF22683E
:10196000936843F0770393600020C9E7CA68496829
:101970000068FFF70CFD60212068FFF71CFD0020C8
:10198000BEE7CA6849680068FFF7EEFC402120689E
:10199000FFF711FD0020B3E70020B1E70120AFE71A
:1019A0000220704701F01F01012303FA01FC036AC2
:1019B00023EA0C030362036A02FA01F10B43036298
:1019C0007047000010B504460846002942D194F83B
:1019D0003E30DBB2013B18BF0123002B6ED1002843
:1019E00051D1022384F83E30012201462068FFF7DE
:1019F000D9FF2368334A934203D002F580629342B1
:101A000003D15A6C42F400425A6423682D4A93422F
:101A100049D0B3F1804F46D0A2F57C42934242D0E8
:101A200002F5806293423ED002F5806293423AD042
:101A300002F57842934236D002F57052934232D08A
:101A4000A2F5943293422ED01A6842F001021A6035
:101A5000002032E0042908D008290DD094F8413044
:101A6000DBB2013B18BF0123B7E794F83F30DBB28C
:101A7000013B18BF0123B0E794F84030DBB2013BD3
:101A800018BF0123A9E7042805D0082807D002239E
:101A900084F84130A8E7022384F83F30A4E702230A
:101AA00084F84030A0E79A6802F00702062A07D0BF
:101AB0001A6842F001021A60002010BD0120FCE704
:101AC0000020FAE70000014090F83C30012B3DD0A7
:101AD00010B4012380F83C30022380F83D300368C5
:101AE0005A689C6822F0700C0A6842EA0C025A603C
:101AF0000368174A93421AD0B3F1804F17D0A2F56A
:101B00007C42934213D002F5806293420FD002F5DB
:101B1000806293420BD002F57842934207D002F5DF
:101B20007052934203D0A2F59432934204D124F030
:101B300080044A6814439C60012380F83D300023F0
:101B400080F83C3018465DF8044B7047022070471F
:101B50000000014070477047002800F0E08170B538
:101B600082B00446036813F0010F3BD09F4B9B6883
:101B700003F00C03042B2CD09C4B9B6803F00C034C
:101B8000082B21D06368B3F5803F4FD0B3F5A02F69
:101B900052D0964B1A6822F480321A601A6822F4E6
:101BA00080221A606368002B50D000F03DFF05468C
:101BB0008E4B1B6813F4003F14D100F035FF401B1F
:101BC0006428F5D90320B1E1884B5B6813F4800FDA
:101BD000D8D0864B1B6813F4003F03D06368002BFA
:101BE00000F09F81236813F0020F54D07F4B9B6855
:101BF00013F00C0F3ED07D4B9B6803F00C03082BB9
:101C000033D0E368002B68D0794B01221A6000F0D2
:101C10000BFF0546754B1B6813F0020F54D100F003
:101C200003FF401B0228F5D903207FE16F4A1368A8
:101C300043F480331360B5E76C4B1A6842F480229A
:101C40001A601A6842F480321A60ABE700F0ECFECA
:101C50000546664B1B6813F4003FC3D000F0E4FE5A
:101C6000401B6428F5D9032060E1604B5B6813F4E6
:101C7000800FC6D15D4B1B6813F0020F03D0E368E1
:101C8000012B40F05081594A136823F0F803216971
:101C900043EAC1031360236813F0080F42D063695D
:101CA0006BB3534B0122C3F8802E00F0BDFE0546F6
:101CB0004E4B5B6F13F0020F34D100F0B5FE401BAA
:101CC0000228F5D9032031E1484A136823F0F803CC
:101CD000216943EAC1031360DDE7454B00221A6026
:101CE00000F0A2FE0546414B1B6813F0020FD2D054
:101CF00000F09AFE401B0228F5D9032016E13C4B68
:101D00000022C3F8802E00F08FFE0546374B5B6F34
:101D100013F0020F06D000F087FE401B0228F5D911
:101D2000032003E1236813F0040F77D02F4B1B6CC3
:101D300013F0805F33D1002301932C4B1A6C42F0D7
:101D400080521A641B6C03F080530193019B0125A0
:101D5000284B1B6813F4807F23D0A368012B34D059
:101D6000052B38D0214B1A6F22F001021A671A6F27
:101D700022F004021A67A368002B3DD000F054FE45
:101D800006461A4B1B6F13F0020F46D100F04CFEB3
:101D9000801B41F288339842F3D90320C6E0002526
:101DA000D6E7144A136843F48073136000F03CFED6
:101DB0000646104B1B6813F4807FCED100F034FE32
:101DC000801B0228F5D90320B0E0084A136F43F0C6
:101DD00001031367CFE7054B1A6F42F004021A673D
:101DE0001A6F42F001021A67C5E700BF00380240CF
:101DF000000047420070004000F016FE0646524BBD
:101E00001B6F13F0020F08D000F00EFE801B41F292
:101E100088339842F3D9032088E0EDB9A369002BF9
:101E200000F08380484A926802F00C02082A51D0E0
:101E3000022B17D0454B00221A6600F0F5FD044630
:101E4000414B1B6813F0007F42D000F0EDFD001BFA
:101E50000228F5D9032069E03B4A136C23F0805334
:101E60001364DBE7394B00221A6600F0DDFD0546FE
:101E7000354B1B6813F0007F06D000F0D5FD401BEA
:101E80000228F5D9032051E0E369226A1343626A0C
:101E900043EA8213A26A5208013A43EA0243E26A21
:101EA00043EA0263284A5360284B01221A6600F075
:101EB000BBFD0446244B1B6813F0007F06D100F0E5
:101EC000B3FD001B0228F5D903202FE000202DE0F0
:101ED00000202BE0012B2BD01B4B5B6803F480010F
:101EE000E269914226D103F03F02216A8A4223D15E
:101EF000616A47F6C0721A40B2EB811F1ED103F42B
:101F00004031A26A5208013AB1EB024F18D103F0F6
:101F10007063E26AB3EB026F14D1002006E0012087
:101F20007047012002E0012000E0002002B070BDF7
:101F30000120FBE70120F9E70120F7E70120F5E7A1
:101F40000120F3E70120F1E700380240000047429A
:101F500008B5254B9B6803F00C03042B3FD0082BDE
:101F60003FD1214B5A6802F03F025B6813F4800FA7
:101F700012D01D4B5968C1F388111C480023A1FBE6
:101F80000001FEF7EBFC184B5B68C3F30143013320
:101F90005B00B0FBF3F025E0134B5968C1F3881CDC
:101FA0004FEA4C11B1EB0C006EEB0E0E4FEA8E13A4
:101FB00043EA90638101091A63EB0E03DB0043EAF5
:101FC0005173C90011EB0C0C43F10003990200237B
:101FD0004FEA8C2041EA9C51FEF7C0FCD3E703484E
:101FE00000E0034808BD00BF0038024040787D0192
:101FF0000024F400002800F09B8070B50D460446D4
:102000004F4B1B6803F00F038B4208D2CBB24C4AF4
:102010001370136803F00F038B4240F08B8023682A
:1020200013F0020F17D013F0040F04D0454A936841
:1020300043F4E0539360236813F0080F04D0414A3F
:10204000936843F4604393603E4A936823F0F0033F
:10205000A1680B439360236813F0010F32D06368CB
:10206000012B21D09A1E012A25D9364A126812F076
:10207000020F61D033498A6822F0030213438B6058
:1020800000F0D2FC06462F4B9B6803F00C036268FD
:10209000B3EB820F16D000F0C7FC801B41F28833EF
:1020A0009842F0D9032042E0264A126812F4003F19
:1020B000E0D101203BE0234A126812F0007FD9D121
:1020C000012034E01E4B1B6803F00F03AB4207D91D
:1020D000EAB21B4B1A701B6803F00F03AB422DD101
:1020E000236813F0040F06D0164A936823F4E053D4
:1020F000E1680B439360236813F0080F07D0114A7F
:10210000936823F46043216943EAC1039360FFF7B6
:102110001FFF0C4B9B68C3F303130B4AD35CD840DF
:102120000A4B18600A4B186801F074FE002070BD5D
:10213000012070470120FAE70120F8E70120F6E7C7
:10214000003C02400038024070690008080000208E
:1021500004000020014B1868704700BF08000020F1
:1021600008B5FFF7F7FF044B9B68C3F38223034ACC
:10217000D35CD84008BD00BF003802408069000829
:1021800008B5FFF7E7FF044B9B68C3F34233034AEC
:10219000D35CD84008BD00BF003802408069000809
:1021A0000F2303600B4B9A6802F0030242609A68A7
:1021B00002F0F00282609A6802F4E052C2609B680A
:1021C000DB0803F4E0530361034B1B6803F00F03C8
:1021D0000B60704700380240003C024000230F2B88
:1021E00000F2F18070B582B061E085685E00032482
:1021F000B44025EA0405CC68B4402C4384604568AB
:1022000025EA02054C68C4F300129A402A43426052
:102210005BE0DC08083450F8246003F00702950006
:102220000F22AA4026EA020E0A69AA4042EA0E02DA
:1022300040F824205DE0092200E0002202FA0EF2BC
:102240002A430234604D45F82420604A94686FEABE
:102250000C0224EA0C054E6816F4801F01D04CEAEB
:1022600004055A4CA560E46802EA04054E6816F4B9
:10227000001F01D04CEA0405544CE560646802EA92
:1022800004054E6816F4003F01D04CEA04054F4C9B
:102290006560246822404D6815F4803F01D04CEA07
:1022A00004024A4C226001330F2B00F28A80012283
:1022B0009A400C6804EA020C32EA0404F3D14C6838
:1022C00004F00304013C012C8FD94A6802F0030298
:1022D000032A09D0C4685D000322AA4024EA02044C
:1022E0008A68AA402243C2604A6802F00302022AB6
:1022F0008FD004684FEA430E032202FA0EF224EA5A
:1023000002044A6802F0030202FA0EF2224302605B
:102310004A6812F4403FC6D0002201922C4A546C05
:1023200044F480445464526C02F480420192019A55
:102330009C08A51C244A52F8255003F003024FEADA
:10234000820E0F2202FA0EF225EA0205214A90427D
:102350003FF473AF02F58062904222D002F58062B2
:10236000904220D002F5806290421ED002F5806239
:1023700090421CD002F5806290421AD002F5806231
:10238000904218D002F58062904216D002F5806229
:10239000904214D002F5806290423FF44CAF0A2282
:1023A0004CE701224AE7022248E7032246E70422DB
:1023B00044E7052242E7062240E707223EE70822DB
:1023C0003CE702B070BD704700380140003C01405E
:1023D00000380240000002400AB1816170470904E0
:1023E0008161704730B405682C6824F480242C6027
:1023F000046863608368402B05D0036899600368B4
:10240000DA6030BC704703689A600368D960F8E707
:1024100010B40368D9B210390C4AA2FB0142120968
:102420000B4CA25CC2655F2909D923F47F7323F0AA
:10243000030304338365806D5DF8044B704723F418
:102440007F7323F003038365F5E700BFABAAAAAA55
:1024500068690008836A826992B9012B0AD0022B4D
:1024600002D00BB100207047C36A13F0807F28D1DF
:1024700000207047C36AB3F1C07F24D000207047AA
:10248000B2F5005F09D0022B25D9032B25D1C36AF1
:1024900013F0807F23D100207047032B03D8DFE89F
:1024A00003F01404140A00207047C36A13F0807FFD
:1024B0000DD100207047C36AB3F1C07F09D000205E
:1024C00070470120704701207047012070470120AC
:1024D000704701207047012070470020704701209D
:1024E0007047000070B5044600F09EFA002C5BD0E7
:1024F0000546022384F83530002384F834302268FE
:10250000136823F00103136023681A6812F0010FA7
:102510000AD000F089FA431B052BF5D92023636507
:10252000032084F8350070BD1A68204810406168A7
:10253000A2680A43E1680A4321690A4361690A43C0
:10254000A1690A43E1690A43216A0A430243616AB5
:1025500004291ED01A602668756925F00705636A8C
:102560001D43042B07D1A36A1D43E36A1BB1204618
:10257000FFF770FF90B975612046FFF749FFE26DE4
:102580003F239340836000206065012384F8353049
:10259000C9E7E16A206B01430A43DBE74023636537
:1025A000012084F83500BEE70120BCE73F8010F031
:1025B00038B50446856D90F8340001282BD00120F1
:1025C00084F8340094F83500C0B2012804D0002308
:1025D00084F83430022038BD022084F83500002011
:1025E00060652046FFF7FEFEE26D3F239340AB603F
:1025F0002268136843F016031360236C23B122682A
:10260000136843F0080313602268136843F0010362
:1026100013600020DFE70220DDE770B50446866D19
:1026200000F002FA94F83530DBB2022B06D080239A
:102630006365002384F83430012070BD05462268AC
:10264000136823F0160313602268536923F0800394
:102650005361236CE3B12268136823F0080313600D
:102660002268136823F00103136023681B6813F0CA
:10267000010F11D000F0D8F9431B052BF5D9202309
:102680006365032084F83500002384F83430D4E7F0
:10269000A36C002BDFD1E3E7E26D3F239340B360EF
:1026A000012384F83530002084F83400C5E790F821
:1026B0003530DBB2022B03D0802343650120704705
:1026C000052380F835300268136823F00103136096
:1026D00000207047F0B583B0044600230193724B8D
:1026E0001D68724BA3FB0535AD0A876D3E68C26D50
:1026F00008239340334210D003681A6812F0040F85
:102700000BD01A6822F004021A60C26D08239340AD
:10271000BB60436D43F001034365E26D01239340C9
:10272000334209D02268526912F0800F04D0BB6096
:10273000636D43F002036365E26D0423934033420B
:1027400009D02268126812F0020F04D0BB60636DDA
:1027500043F004036365E26D10239340334224D0B9
:102760002268126812F0080F1FD0BB6023681A6835
:1027700012F4802F0DD01B6813F4002F04D1236CAA
:102780009BB12046984710E0A36C73B12046984750
:102790000BE01A6812F4807F03D11A6822F0080255
:1027A0001A60236C0BB120469847E26D20239340BA
:1027B000334255D02268126812F0100F50D0BB601F
:1027C00094F83530DBB2052B0ED023681A6812F46A
:1027D000802F33D01B6813F4002F2AD1636C002B99
:1027E0003ED0204698473BE02268136823F016034A
:1027F00013602268536923F080035361236CA3B1F3
:102800002268136823F008031360E26D3F239340AE
:10281000BB60012384F83530002384F83430236D05
:10282000002B3FD0204698473CE0A36C002BE7D11B
:10283000EBE7E36BA3B12046984711E01A6812F466
:10284000807F09D11A6822F010021A60012384F8EF
:102850003530002384F83430E36B0BB120469847C1
:10286000636DFBB1636D13F0010F17D0052384F87E
:1028700035302268136823F001031360019B013394
:102880000193AB4204D823681B6813F0010FF5D104
:10289000012384F83530002384F83430E36C0BB125
:1028A0002046984703B0F0BD08000020B5814E1BBC
:1028B00010B582B000230193194B1A6C42F080527C
:1028C0001A641B6C03F080530193019B154B01228A
:1028D0001A6400F0A9F80446134B5B6813F4803FB8
:1028E00008D100F0A1F8001BB0F57A7FF4D90320DD
:1028F00002B010BD0B4B01225A6400F095F804465B
:10290000094B5B6813F4003F07D100F08DF8001B02
:10291000B0F57A7FF4D90320EAE70020E8E700BFAA
:102920000038024000000E4200700040074AD368A1
:1029300023F4E0631B041B0C000200F4E06003437B
:1029400043F0BF6343F40033D360704700ED00E011
:1029500000B5194BDB68C3F30223C3F1070CBCF1CC
:10296000040F28BF4FF0040C03F1040EBEF1060F54
:1029700018D9033B4FF0FF3E0EFA0CFC21EA0C0184
:1029800099400EFA03F322EA0303194300280BDBF4
:102990000901C9B200F1604000F5614080F8001300
:1029A0005DF804FB0023E5E700F00F000901C9B260
:1029B000024B1954F4E700BF00ED00E014ED00E015
:1029C000002807DB00F01F02400901239340024A60
:1029D00042F82030704700BF00E100E008B50B4B23
:1029E0001A6842F400721A601A6842F480621A602F
:1029F0001A6842F480721A600320FFF797FF0F20D5
:102A000001F008FAFEF7FAFB002008BD003C024086
:102A1000034A1168034B1B780B441360704700BFD7
:102A2000EC01002000000020014B1868704700BF37
:102A3000EC01002038B50446FFF7F6FF0546B4F177
:102A4000FF3F02D0044B1B781C44FFF7EDFF401BF7
:102A5000A042FAD338BD00BF00000020026802F196
:102A60000C0353E8003F23F490730C3242E800312A
:102A70000029F3D1026802F1140353E8003F23F068
:102A80000103143242E800310029F3D1036B012B1A
:102A900005D0202380F8423000230363704702688A
:102AA00002F10C0353E8003F23F010030C3242E81C
:102AB00000310029F3D1ECE790F84130DBB2212B53
:102AC00001D0022070478368B3F5805F17D0036A96
:102AD0005A1C02621A7803685A60C38C9BB2013B8D
:102AE0009BB2C3844BB90268D36823F08003D360E0
:102AF0000268D36843F04003D36000207047036945
:102B0000002BE4D1036A1B880268C3F308035360F7
:102B1000036A02330362E0E738B5044602681369CA
:102B200023F44053C1680B43136183680269134364
:102B300042691343C2691A430168CB6823F4164300
:102B400023F00C031343CB600268536923F44073F2
:102B500081690B4353610368314A934206D002F501
:102B60008062934202D0FFF7FBFA01E0FFF708FB17
:102B7000E369B3F5004F29D00021031849411B1820
:102B800041F10001C90041EA5371DB001818636884
:102B90004FEA83024FEA937341F10001FDF7DEFE35
:102BA000204DA5FB00325109642303FB11031B01D7
:102BB0003233A5FB03235B0903F0F00202EB0112A1
:102BC00003F00F03216813448B6038BD0023021803
:102BD00043EB0301121841F10001C90041EA5271AF
:102BE000D200101841F10001626892185B41FDF7B4
:102BF000B5FE0C4DA5FB00325109642303FB110304
:102C0000DB003233A5FB03235B095A0002F4F872A0
:102C100002EB011203F00703216813448B60D4E731
:102C2000001001401F85EB5160B310B5044690F8C9
:102C3000413013B3242384F841302268D36823F44D
:102C40000053D3602046FFF767FF2268136923F41F
:102C5000904313612268536923F02A035361226869
:102C6000D36843F40053D36000206064202384F8C9
:102C7000413084F84230606310BD80F84030FEF788
:102C800007FAD7E701207047704708B50168CA689E
:102C900022F04002CA60202280F84120FFF7F4FFB2
:102CA000002008BD7047704708B5806B0023C385BE
:102CB000C384FFF7F8FF08BD704790F84230DBB2DD
:102CC000222B69D18368B3F5805F4FD0826AB3F558
:102CD000805F04D0002B56D10369002B53D10368C9
:102CE0005B681370836A01338362C38D9BB2013BBF
:102CF0009BB2C385002B51D100B583B00268D36865
:102D000023F02003D3600268D36823F48073D36078
:102D10000268536923F001035361202380F8423095
:102D200000234363036B012B33D100230363026849
:102D300002F10C0353E8003F23F010030C3242E889
:102D400000310029F3D103681A6812F0100F06D081
:102D5000002201921A6801925B680193019B818DA8
:102D6000FFF7AAFF002003B05DF804FB0269002A08
:102D7000ACD1826A03685B68C3F308031380836A7B
:102D800002338362B1E703685B6803F07F0313706B
:102D9000A8E7FFF787FFE5E70220704700207047AC
:102DA00030B583B0044602681368D068516913F0E7
:102DB0000F0505D113F0200F02D010F0200F19D10C
:102DC0002DB111F0010119D110F4907F16D1216BB2
:102DD00001297DD013F0800F03D010F0800F40F058
:102DE000198113F0400F03D010F0400F40F016810E
:102DF00003B030BD2046FFF760FFF9E713F0010F85
:102E000006D010F4807F03D0626C42F0010262644D
:102E100013F0040F04D019B1626C42F00202626434
:102E200013F0020F04D019B1626C42F00402626424
:102E300013F0080F07D010F0200F00D119B1626C09
:102E400042F008026264626C002AD1D013F0200FB5
:102E500002D010F0200F29D123685B6903F04003F2
:102E6000626C12F0080F00D163B32046FFF7F6FD45
:102E700023685B6913F0400F20D0226802F114032D
:102E800053E8003F23F04003143242E800310029A8
:102E9000F3D1E36B73B1634A1A65E06BFFF707FC8C
:102EA0000028A5D0E06B036D9847A1E72046FFF707
:102EB00004FFD1E72046FFF7F6FE99E72046FFF72B
:102EC000F2FE95E72046FFF7EEFE002363648FE7EE
:102ED00013F0100F3FF47EAF10F0100F3FF47AAFF5
:102EE000002301931368019353680193019B536975
:102EF00013F0400F52D0E26B13685B689BB2002B5B
:102F00003FF476AFA18D99427FF672AFE385D36926
:102F1000B3F5807F37D0226802F10C0353E8003FFD
:102F200023F480730C3242E800310029F3D1226887
:102F300002F1140353E8003F23F00103143242E886
:102F400000310029F3D1226802F1140353E8003F55
:102F500023F04003143242E800310029F3D120234A
:102F600084F8423000232363226802F10C0353E803
:102F7000003F23F010030C3242E800310029F3D166
:102F8000E06BFFF74AFB02236363A18DE38D9BB2E5
:102F9000C91A89B22046FFF78FFE29E7A18DE38D7C
:102FA0009BB2C91A89B2E38D9BB2002B3FF420AFCC
:102FB00000293FF41DAF226802F10C0353E8003FE3
:102FC00023F490730C3242E800300028F3D12268D9
:102FD00002F1140353E8003F23F00103143242E8E6
:102FE00000300028F3D1202384F8423000232363EB
:102FF000226802F10C0353E8003F23F010030C3267
:1030000042E800300028F3D1022363632046FFF733
:1030100053FEEDE62046FFF74FFDE9E62046FFF7B9
:1030200034FEE5E6A92C0008034AD2F8883043F4C0
:103030007003C2F88830704700ED00E008B50D4815
:103040000D4B03604FF48273436000238360C360C1
:10305000036143614FF480228261C3610362436272
:1030600083620A23C36200F0DDFC00B908BDFDF7EE
:1030700003FEFBE7600A0020003C00402DE9F04120
:103080008AB0002305930693079308930993026877
:10309000434B9A4202D00AB0BDE8F08104460025B5
:1030A000009503F5FE331A6B42F010021A631A6B97
:1030B00002F010020092009A01951A6B42F0100281
:1030C0001A631A6B02F010020192019A02951A6CAF
:1030D00042F400421A641A6C02F400420292029A0C
:1030E00003951A6B42F001021A631A6B02F0010297
:1030F0000392039A04951A6B42F004021A631B6B45
:1031000003F004030493049B102305934FF002087B
:10311000CDF81880032708970626099605A92148A7
:10312000FFF75CF84FF4A0530593CDF8188007958E
:103130000897099605A91C48FFF750F81B481C4B37
:103140000360456040238360C5604FF48063036182
:1031500045618561C5614FF4803303624562FFF7C5
:10316000C1F9C8B9114BA3649C63082305930126D8
:10317000069602230793002408940E4D05A92846BD
:10318000FFF72CF81023059306960794089405A9D9
:103190002846FFF723F87EE7FDF76EFDE2E700BF64
:1031A000003C00400000024000080240000A0020ED
:1031B000886002400010024000B583B08DF807001F
:1031C000002210210648FFF707F94FF47A73012215
:1031D0000DF10701034800F084FC03B05DF804FB27
:1031E00000100240600A002000B583B08DF807008F
:1031F000012210210648FFF7EFF84FF47A730122FD
:103200000DF10701034800F06CFC03B05DF804FB0E
:1032100000100240600A002000B583B0030A8DF858
:1032200004308DF80500012210210948FFF7D4F879
:10323000022201A9074800F031FD074B1B78002B43
:10324000FBD0054B00221A7003B05DF804FB00BFF1
:1032500000100240600A0020B80A002038B5054678
:103260000C46012210210848FFF7B6F8620092B21E
:103270002946064800F012FD054B1B78002BFBD0B9
:10328000034B00221A7038BD00100240600A002073
:10329000B80A00202DE9F04180460E4617461D462B
:1032A0002A20FFF789FF0F4CA37A03EB080080B2B6
:1032B000FFF7B2FFA07A384480B2FFF7ADFF2B20B2
:1032C000FFF77AFFE07A304480B2FFF7A5FFE07A9B
:1032D000284480B2FFF7A0FF2C20FFF76DFFBDE868
:1032E000F08100BFF0010020014B1880704700BF43
:1032F000F0010020014B5880704700BFF001002012
:1033000008B5274B587130B1022815D0012824D0B8
:10331000032833D008BD3620FFF74EFF7020FFF79B
:1033200063FF1F4B14229A720022DA724FF4A072CC
:10333000DA80F0221A81EDE73620FFF73DFF00200A
:10334000FFF752FF164B00229A721422DA72F02213
:10335000DA804FF4A0721A81DCE73620FFF72CFFE9
:10336000A020FFF741FF0E4B14229A720022DA725E
:103370004FF4A072DA80F0221A81CBE73620FFF7F3
:103380001BFFC020FFF730FF054B00229A7214226A
:10339000DA72F022DA804FF4A0721A81BAE700BF25
:1033A000F0010020014B1860704700BFFC010020B5
:1033B00010B5002305E0164A5188164A22F813106A
:1033C0000133B3F5806FF6DB114BDA881B89013BC3
:1033D000013A9BB292B200210846FFF75BFF01223F
:1033E00010210D48FEF7F8FF00240DE04FF40062B5
:1033F00008490A4800F052FC094B1B78002BFBD00F
:10340000074B00221A7001344A2CEFDD10BD00BFBB
:10341000F00100200002002000100240600A00209D
:10342000B80A00202DE9F041A2F12007FFB20023E5
:103430009E461E4623E0244AB2F80280234A22F820
:103440001E8064080EF1010E1FFA8EFE01339BB23E
:10345000AA889A4210D00CF1010C1FFA8CFCBCF126
:10346000070F0AD814F0010FE5D0174AB2F8008010
:10347000164A22F81E80E4E700230136B6B2144A49
:1034800015682C89B44206D92A6804FB0764145DC8
:103490004FF0000CE3E7AA88024492B2EB880B4499
:1034A0009BB2013B013A9BB292B2FFF7F3FE084B8D
:1034B0001B689988DB8811FB03F189B20348FFF789
:1034C000CDFEBDE8F08100BFF00100200002002029
:1034D000FC01002070B504460E46154609E0314651
:1034E0002046FFF79FFF074B1B6898880444A4B24F
:1034F0000135054BDB88A34202D92A78002AEED198
:1035000070BD00BFFC010020F0010020014B1871CC
:10351000704700BFF001002008B5FFF78FFD0A20BB
:10352000FFF788FA3620FFF747FE0020FFF75CFE22
:103530003A20FFF741FE0520FFF756FEB220FFF7C5
:103540003BFE0C20FFF750FE0C20FFF74DFE002045
:10355000FFF74AFE3320FFF747FE3320FFF744FE14
:10356000B720FFF729FE3520FFF73EFEBB20FFF70F
:1035700023FE1920FFF738FEC020FFF71DFE2C2088
:10358000FFF732FEC220FFF717FE0120FFF72CFEE7
:10359000C320FFF711FE1220FFF726FEC420FFF71D
:1035A0000BFE2020FFF720FEC620FFF705FE0F20B0
:1035B000FFF71AFED020FFF7FFFDA420FFF714FE4F
:1035C000A120FFF711FEE020FFF7F6FDD020FFF766
:1035D0000BFE0420FFF708FE0D20FFF705FE11206B
:1035E000FFF702FE1320FFF7FFFD2B20FFF7FCFD86
:1035F0003F20FFF7F9FD5420FFF7F6FD4C20FFF7C1
:10360000F3FD1820FFF7F0FD0D20FFF7EDFD0B2077
:10361000FFF7EAFD1F20FFF7E7FD2320FFF7E4FD9A
:10362000E120FFF7C9FDD020FFF7DEFD0420FFF702
:10363000DBFD0C20FFF7D8FD1120FFF7D5FD13208F
:10364000FFF7D2FD2C20FFF7CFFD3F20FFF7CCFD89
:103650004420FFF7C9FD5120FFF7C6FD2F20FFF7DB
:10366000C3FD1F20FFF7C0FD1F20FFF7BDFD202079
:10367000FFF7BAFD2320FFF7B7FD2120FFF79CFDE0
:103680001120FFF799FD7820FFF7D4F92920FFF7E3
:1036900093FD0020FFF734FE0020FFF72BFE4FF6CE
:1036A000FF70FFF721FEFFF783FE0648FFF77AFE63
:1036B0000020FFF72BFF012208210348FEF78CFEB4
:1036C00008BD00BF0C0000200010024030B585B0DE
:1036D00004460D4611461A460A4B1B795BB90B4648
:1036E0000949684602F06EFC6A4629462046FFF703
:1036F000F1FE05B030BD0B460449684602F062FC9D
:10370000F2E700BFF0010020886900089069000816
:103710002DE9F0412DED028BA8B007468846B0EEAA
:10372000408A16461D464FF0000C0AE00CF1A0033B
:103730000DEB0304202304F8283C0CF1010C5FFA84
:103740008CFCBCF1130FF1D900238DF88C30B5EE51
:10375000C08AF1EE10FA0DD4F0EE487AFDEEE78A59
:10376000B8EEE87A77EEC77A17EE900AFDF726F8FA
:10377000002408E0F1EE487AF0E700224E4BFCF717
:103780008FFD0134E4B2AC42F7D341EC100B03F0EF
:1037900081F851EC100BFDF769F8044618EE902AF9
:1037A00046490FA802F00EFC23462A4644490AA8BF
:1037B00002F008FCCDB10AAB0FAA4249684602F0FC
:1037C00001FC414B1C79002C40D16846FCF710FDF0
:1037D000B5EEC08AF1EE10FA25D5301A00F1A0033B
:1037E0006B442D2203F8502C0CE00FA9684602F020
:1037F00009FCE6E704F1A0036B44302203F8502CE7
:103800000134E4B2A042F5DC6B4614AA2F491EA88D
:1038100002F0D8FB10E004F1A0036B44302203F85F
:10382000502C0134E4B2331A9C42F4DB6B4614AAE8
:1038300026491EA802F0C6FB1EAA41463846FFF7DD
:1038400049FE28B0BDEC028BBDE8F0816846FCF76C
:10385000CFFCB5EEC08AF1EE10FA01D4002321E0CE
:10386000301A00F1A0036B442D2203F8502C0023E2
:1038700007E003F1A0026A44202102F8501C013342
:10388000DBB29842F5DC6B4614AA10491EA802F080
:1038900099FBD1E703F1A0026A44202102F8501CF1
:1038A0000133DBB2321A9342F4DB6B4614AA0749A8
:1038B0001EA802F087FBBFE70000244094690008BF
:1038C00098690008A0690008F0010020A8690008B4
:1038D0002DE9F04782B00546884617461E46FFF799
:1038E000A3F80A9B1B1A03EB0609FFF79DF8824613
:1038F0002B4B1B68C3F3CB3309FB03F301932B68FA
:103900009C6838EA04030CBF4FF0010C4FF0000C28
:10391000BC4540D0B6F1FF3FF1D0FFF785F8A0EBF2
:103920000A0048450AD2B9F1000F07D0019A02B146
:103930004A46019B013B01939146E0E72A685368A0
:1039400023F0E00353606B68B3F5827F0BD0AB6A62
:10395000B3F5005F14D0012385F85130002385F8BA
:103960005030032018E0AB68B3F5004F02D0B3F538
:10397000806FECD12A68136823F040031360E6E7F8
:103980002A68136823F4005313602A68136843F409
:1039900000531360DFE7002002B0BDE8F08700BFEE
:1039A0000800002070B584B004460D46164600920B
:1039B0000B4601220221FFF78BFFD0B9174B1B6882
:1039C000174AA2FB03235B0D4FF47A7202FB03F349
:1039D00003936368B3F5827F11D0039B3BB1039BD4
:1039E000013B039323689B6813F0800FF5D104B06B
:1039F00070BD636D43F0200363650320F7E7009615
:103A00002B46002280212046FFF762FF0028EED0DF
:103A1000636D43F0200363650320E8E7080000209E
:103A2000819F5E1600285AD010B50446436A33B908
:103A30004368B3F5827F05D00023C36102E0002311
:103A4000036143610023A36294F85130002B40D0FE
:103A5000022384F851302268136823F04003136076
:103A6000636803F48273A26802F404421343E268B9
:103A700002F400621343226902F0020213436269F6
:103A800002F001021343A26902F400721343E269D7
:103A900002F038021343226A02F080021343A26A42
:103AA00002F40052216813430B60638B03F004039C
:103AB000626A02F01002216813434B602268D369E6
:103AC00023F40063D36100206065012384F8513042
:103AD00010BD84F850302046FFF7D0FAB8E7012037
:103AE00070472DE9F04383B01D4690F85030012B0C
:103AF00000F0D180044688469146012380F850307A
:103B0000FEF792FF074694F85160F6B2012E40F09E
:103B1000BA80B8F1000F00F0B780B9F1000F00F0E3
:103B2000B380032384F8513000236365C4F83080E8
:103B3000A4F83490A4F83690A363A387E387636462
:103B40002364A368B3F5004F1ED023681A6812F0EF
:103B5000400F03D11A6842F040021A60E368B3F5DF
:103B6000006F1CD0636813B1B9F1010F55D1226BFE
:103B7000236812781A73236B01332363E38E9BB29D
:103B8000013B9BB2E38648E02268136823F04003C0
:103B900013602268136843F480431360D5E76368B9
:103BA00013B1B9F1010F15D1226B23681288DA60C5
:103BB000236B02332363E38E9BB2013B9BB2E3860C
:103BC00008E0FEF731FFC01BA84202D3B5F1FF3F6A
:103BD00015D1A5B1E38E9BB2002B3CD023689A6827
:103BE00012F0020FEDD0226B1288DA60236B0233E1
:103BF0002363E38E9BB2013B9BB2E386EAE701239A
:103C000084F8513003263FE0FEF70EFFC01BA842A8
:103C100002D3B5F1FF3F19D1C5B1E38E9BB2D3B149
:103C200023689A6812F0020FEED0226B12781A7392
:103C3000236B01332363B4F836C01FFA8CFC0CF1FC
:103C4000FF3C1FFA8CFCA4F836C0E6E7012384F899
:103C50005130032618E03A4629462046FFF7A2FED7
:103C600008B120236365A36833B901932368DA6838
:103C700001929B680193019B636D2BB9012384F82A
:103C80005130002600E00226002384F850303046F0
:103C900003B0BDE8F0830226F9E7000038B590F8DC
:103CA0005030012B5ED00446012380F8503090F84C
:103CB0005150EDB29D424FD100294ED0002A4CD038
:103CC000032380F851300023436501638286C28656
:103CD0008363436403648387C3878368B3F5004FBA
:103CE0002AD0A36C204A1A64A36C204ADA63A36C1E
:103CF0001F4ADA64A36C00221A652268E38E9BB225
:103D00000C32216BA06CFEF753FC0146F8B9236816
:103D10001A6812F0400F03D11A6842F040021A608C
:103D20002268536843F0200353602268536843F0CD
:103D3000020353600D4610E00268136823F040034D
:103D400013600268136843F480431360C9E7636D2E
:103D500043F01003636500E00225002384F850302F
:103D6000284638BD0225FBE7773D0008A53D000841
:103D7000833D0008704708B5806BFFF7FBFF08BD67
:103D8000704708B5806B0268536823F003035360E3
:103D9000436D43F010034365012380F85130FFF772
:103DA000EFFF08BD30B583B00546846BFEF73CFEDF
:103DB0002B681B6813F4807F23D1024621684B686F
:103DC00023F020034B6021684B6823F002034B6013
:103DD00064212046FFF7E6FD18B1636D43F0200330
:103DE0006365A36833B901932368DA6801929B681D
:103DF0000193019B0023E386012384F85130636D16
:103E000023B92046FDF766F803B030BD2046FFF722
:103E1000B7FFF9E730B589B00546002401941E4B81
:103E20005A6C42F001025A645B6C03F00103019387
:103E3000019B02A903A8FEF7B3F9FEF7A1F943001D
:103E40001648A0FB03239B0C013B1548154A026052
:103E500040F2E732C2604360046184608461FDF730
:103E600017FC044610B1204609B030BD0C48FDF7E0
:103E7000ABFA04460028F6D11920FEF7A1FD0F2D5C
:103E800001D90124EFE7002229461920FEF760FD41
:103E9000054B1D60E7E700BF0038024083DE1B438F
:103EA000BC0A0020000001400400002000B583B0DF
:103EB00001F008FE094B01930223009300234FF405
:103EC00080720749074800F07AFE074B186801F036
:103ED000E5FF01F019FE03B05DF804FB040B0020C0
:103EE000807B0008F9400008080B002008B5044A50
:103EF0000021044801F074FF034B186008BD00BFA7
:103F0000C87B0008AD3E0008080B002010B500205B
:103F1000FFF7F6F90020FFF7E7F900240BE04FF474
:103F20007840FFF7E7F9FFF743FA4FF47A7001F0B2
:103F300083F80134E4B2042C21D8042CF3D801A373
:103F400053F824F01F3F0008593F0008633F000862
:103F50006B3F0008753F00084FF4FC60FFF7CAF99B
:103F6000E1E71F20FFF7C6F9DDE74EF65D70FFF7CA
:103F7000C1F9D8E74FF6FF70FFF7BCF9D3E710BDE2
:103F8000F8B50020FFF7B6F9FFF712FA1F20FFF788
:103F9000ABF9534A1E210020FFF79CFA514A3C21FD
:103FA0000020FFF797FA4FF4FC60FFF79DF94E4AA7
:103FB00064210020FFF78EFA4C4A82210020FFF78F
:103FC00089FA4FF47840FFF78FF9494AAA21002077
:103FD000FFF780FA474AC8210020FFF77BFA002448
:103FE0006AE01F20FFF780F90120FFF78FFA04EB4A
:103FF0008402042352001E215020FFF767FB042394
:104000006FF0090204FB02F23C215020FFF75EFB37
:104010004FF4FC60FFF768F90120FFF777FA962567
:1040200004FB05F508232A4664218220FFF74EFB96
:104030000020FFF76BFA08232A4682210846FFF783
:1040400045FB4FF47840FFF74FF90120FFF75EFA88
:104050002046FCF7A1FB06460F461BA3D3E900232D
:10406000FCF71EF91AA3D3E90023FCF749FAFCF781
:1040700025FC03230A2200EE100AAA216420FFF780
:1040800047FB15A3D3E9002330463946FCF708F96E
:104090000FA3D3E90023FCF731FAFCF70FFC04234C
:1040A0000A2200EE100AC8216420FFF731FB0F201E
:1040B00000F0C2FF0134A4B2632C92D940F6C410C0
:1040C00000F0BAFFF8BD00BF9A9999999999B93F44
:1040D0001D5A643BDFC75E407B14AE47E17A843FE4
:1040E0008C7B0008947B00089C7B0008A47B000864
:1040F000AC7B0008B47B000808B5FFF707FFFFF7AB
:104100003FFFFAE700F1080343604FF0FF3282609F
:10411000C36003610023036070470023036170479D
:1041200043684B609A688A605160996008610368CF
:1041300001330360704730B40D68B5F1FF3F11D013
:1041400000F108031C465B681A68AA42FAD9636842
:104150004B6099608C6061600861036801330360A3
:1041600030BC70470469F2E70369416882688A607D
:10417000416851605A68824206D0002202611A6882
:10418000013A1A601868704782685A60F5E710B5FE
:10419000044601F097FCA26BE36B9A4204D0002422
:1041A00001F0B2FC204610BD0124F9E710B5044629
:1041B00001F088FCA36B23B9012401F0A5FC204683
:1041C00010BD0024F9E770B504461546866B026CF5
:1041D0005AB903681BB100200136A66370BD806820
:1041E00001F078F80023A360F6E76DB9406801F0AC
:1041F000D3FE226C636813446360A268934219D3B0
:10420000236863602846E7E7C06801F0C5FE226CBA
:104210005142E3689B1AE3602268934202D2A3688A
:104220000B44E360022D01D00020D5E726B1013E0A
:104230000020D1E72846CFE70020CDE70346026CF7
:104240006AB110B50846D9681144D9609C68A1428A
:1042500001D31968D960D96801F09EFE10BD70477E
:1042600038B5054601F02EFC95F8454064B201E0F2
:10427000013C64B2002C0ADD6B6A43B105F12400F5
:1042800000F07EFF0028F3D001F00EF8F0E7FF23E6
:1042900085F8453001F038FC01F014FC95F84440F5
:1042A00064B201E0013C64B2002C0ADD2B6943B129
:1042B00005F1100000F064FF0028F3D000F0F4FFD7
:1042C000F0E7FF2385F8443001F01EFC38BD38B517
:1042D000E0B10D46044601F0F5FB2368E26B216C6A
:1042E00001FB0230A0600020A0636360013A02FB82
:1042F0000133E360FF2384F8443084F84530FDB98E
:10430000236963B901F000FC012038BD4FF0500370
:1043100083F31188BFF36F8FBFF34F8FFEE704F174
:10432000100000F02DFF0028ECD04FF0E0234FF0FC
:104330008052C3F8042DBFF34F8FBFF36F8FE1E7B7
:1043400004F11000FFF7DEFE04F12400FFF7DAFEAF
:10435000D8E738B51D46049C0B4649B92460E06394
:10436000236401212046FFF7B2FF84F84C5038BD8A
:104370002260F4E740B94FF0500383F31188BFF394
:104380006F8FBFF34F8FFEE710B584B01C46844695
:1043900053B192B189B94FF0500383F31188BFF341
:1043A0006F8FBFF34F8FFEE74FF0500383F31188F9
:1043B000BFF36F8FBFF34F8FFEE76AB150230393B4
:1043C000039B502B13D04FF0500383F31188BFF39E
:1043D0006F8FBFF34F8FFEE70029EFD04FF05003F0
:1043E00083F31188BFF36F8FBFF34F8FFEE7039BFB
:1043F000012384F8463000949DF818306046FFF79A
:10440000A8FF204604B010BDF0B585B0019288B178
:104410000F461D460446B1B1022D20D1E36B012B9E
:104420001DD04FF0500383F31188BFF36F8FBFF39C
:104430004F8FFEE74FF0500383F31188BFF36F8F68
:10444000BFF34F8FFEE7036C002BE5D04FF0500316
:1044500083F31188BFF36F8FBFF34F8FFEE700F038
:1044600029FF064658B9019B002B48D04FF0500356
:1044700083F31188BFF36F8FBFF34F8FFEE70026E2
:104480003DE02A4639462046FFF79DFE636A7BB928
:1044900048B14FF0E0234FF08052C3F8042DBFF332
:1044A0004F8FBFF36F8F01F02FFB012005B0F0BDE0
:1044B00004F1240000F064FE0028F4D04FF0E02363
:1044C0004FF08052C3F8042DBFF34F8FBFF36F8FAF
:1044D000E9E701F019FB0020E8E702A800F096FEEA
:1044E000012619E0002384F8443021E0002384F8F9
:1044F000453023E02046FFF7B3FE00F021FD01F038
:10450000E1FAA26BE36B9A42BBD3022DB9D0019BB7
:10451000002BDED0002EE0D001F0F6FA00F076FCA1
:1045200001F0D0FA94F8442052B2B2F1FF3FD9D052
:1045300094F8452052B2B2F1FF3FD7D001F0E4FA2F
:1045400001A902A800F06EFED8B92046FFF71FFEB1
:104550000028CFD0019904F1100000F0DDFD2046C5
:10456000FFF77EFE00F0ECFC0028C8D14FF0E023FE
:104570004FF08052C3F8042DBFF34F8FBFF36F8FFE
:10458000BDE72046FFF76CFE00F0DAFC00208DE767
:104590002DE9F84390B10F4616461C460546B1B1C9
:1045A000022C20D1EB6B012B1DD04FF0500383F375
:1045B0001188BFF36F8FBFF34F8FFEE74FF05003AB
:1045C00083F31188BFF36F8FBFF34F8FFEE7036C48
:1045D000002BE5D04FF0500383F31188BFF36F8FAA
:1045E000BFF34F8FFEE701F093FBEFF311894FF01C
:1045F000500383F31188BFF36F8FBFF34F8FAA6B04
:10460000EB6B9A4206D3022C04D0002089F3118868
:10461000BDE8F88395F845804FFA88F8AB6B2246E1
:1046200039462846FFF7CFFDB8F1FF3F06D008F125
:1046300001035BB285F845300120E7E76B6A0BB9EF
:104640000120E3E705F1240000F09AFD18B126B13E
:1046500001203060DAE70120D8E70120D6E7F0B585
:1046600085B0019290B10F460446C1B100F022FE20
:10467000064600BB019B002B5ED04FF0500383F336
:104680001188BFF36F8FBFF34F8FFEE74FF05003DA
:1046900083F31188BFF36F8FBFF34F8FFEE7036C77
:1046A000002BE3D04FF0500383F31188BFF36F8FDB
:1046B000BFF34F8FFEE700263EE039462046FFF766
:1046C000BDFD013DA563236923B901F01DFA012059
:1046D00005B0F0BD04F1100000F052FD0028F4D048
:1046E0004FF0E0234FF08052C3F8042DBFF34F8FFB
:1046F000BFF36F8FE9E701F007FA0020E8E702A8AF
:1047000000F084FD012621E0002384F8443029E0F4
:10471000002384F845302BE02046FFF7A1FD00F090
:104720000FFC09E02046FFF79BFD00F009FC204646
:10473000FFF73CFD00283FD101F0C4F9A56B002D27
:10474000BBD1019B002BD6D0002ED8D001F0DCF9D4
:1047500000F05CFB01F0B6F994F844305BB2B3F1C1
:10476000FF3FD1D094F845305BB2B3F1FF3FCFD0DB
:1047700001F0CAF901A902A800F054FD0028D1D126
:104780002046FFF713FD0028C6D0019904F124004C
:1047900000F0C2FC2046FFF763FD00F0D1FB0028CB
:1047A000CAD14FF0E0234FF08052C3F8042DBFF37D
:1047B0004F8FBFF36F8FBFE7002089E70023072BE0
:1047C0000CD8074A52F833200AB10133F7E7044AFC
:1047D00042F8331002EBC30358607047704700BFC4
:1047E0000C0B002070B504460D46164601F06AF920
:1047F00094F844305BB2B3F1FF3F0DD094F84530EC
:104800005BB2B3F1FF3F0BD001F07EF9A36B5BB15C
:104810002046FFF725FD70BD002384F84430EDE706
:10482000002384F84530EFE73246294604F124009E
:1048300000F08AFCECE70000084B1B681B6823B9FA
:10484000074B4FF0FF321A607047044B1B68DB6860
:10485000DB685A68024B1A60704700BF500B00209B
:10486000F80F00202DE9F04780460D46174699467F
:10487000089EDDF824A00A9C9200A521206B01F07F
:1048800099FB236B07F18042013A03EB820727F083
:104890000707B5B34FF0000CBCF10F0F0BD815F89C
:1048A0000C2004EB0C0383F8342015F80C3013B102
:1048B0000CF1010CF0E7002384F84330372E00D9C7
:1048C0003726E662E66400252565201DFFF725FCF6
:1048D00004F11800FFF721FC2461C6F13806A66137
:1048E0006462656584F858504A464146384601F08E
:1048F000C1F82060BAF1000F01D0CAF80040BDE84D
:10490000F087002384F83430D8E7000038B500245D
:1049100007E004EB840293000E481844FFF7F2FB13
:104920000134372CF5D90C4D2846FFF7EBFB0B4C27
:104930002046FFF7E7FB0A48FFF7E4FB0948FFF7CB
:10494000E1FB0948FFF7DEFB084B1D60084B1C60CC
:1049500038BD00BF580B0020CC0F0020E00F002016
:1049600004100020301000201C100020500B0020EC
:10497000540B002010B5044601F0A4F8224A136835
:1049800001331360214B1B685BB1214B1B686BB972
:104990001E4B1B68DA6AE36A9A4207D81B4B1C60FD
:1049A00004E01A4B1C601368012B29D0194A1368C4
:1049B000013313606364E06A174B1B68984201D9A6
:1049C000154B186000EB8000211D144B03EB800099
:1049D000FFF7A6FB01F098F80D4B1B687BB10B4B62
:1049E0001B68DA6AE36A9A4209D24FF0E0234FF07B
:1049F0008052C3F8042DBFF34F8FBFF36F8F10BDEC
:104A0000FFF784FFD2E700BFB80F00204C0B002057
:104A100018100020C40F0020C80F0020580B0020E1
:104A200010B5044690F8593063B1012B11D0022B18
:104A30000ED04FF0500383F31188BFF36F8FBFF395
:104A40004F8FFEE7006B00F099FF204600F096FFC5
:104A500010BD00F093FFFBE70F4B1B68D3B110B5FF
:104A600001F030F80D4BDB68DC68201DFFF77CFBA4
:104A70000B4A1368013B1360074A1368013B13603C
:104A800001F042F82046FFF7CBFF034B1B68002BD9
:104A9000E6D110BD704700BFBC0F002030100020D1
:104AA000B80F002008B5FFF7D7FF074B1B68012B95
:104AB000F9D94FF0E0234FF08052C3F8042DBFF333
:104AC0004F8FBFF36F8FEEE7580B002070B5044691
:104AD0000D46174B1E68174B18680430FFF744FB50
:104AE000B4F1FF3F0DD03444124B1B685C60A6420A
:104AF00010D9114B18680F4B19680431FFF71BFBD5
:104B000070BD002DEFD00B4B196804310B48FFF737
:104B100007FBF5E70A4B1868064B19680431FFF7E5
:104B20000AFB084B1B68A342EAD9064B1C60E7E767
:104B3000441000204C0B0020540B00201C100020BF
:104B4000500B0020F80F002030B587B00B9C7CB1D3
:104B50000C9DB5B15C250495049D5C2D1AD04FF0D9
:104B6000500383F31188BFF36F8FBFF34F8FFEE7BE
:104B70004FF0500383F31188BFF36F8FBFF34F8F54
:104B8000FEE74FF0500383F31188BFF36F8FBFF33D
:104B90004F8FFEE7049D0C9D2C63022485F859403D
:104BA00000240394029505AC01940A9C0094FFF73D
:104BB00059FE0C98FFF7DEFE059807B030BD2DE9D1
:104BC000F04385B00746884614461E46900000F024
:104BD00057FE00B381465C2000F052FE0546B0B19E
:104BE000C0F83090E5B1002385F859300393029561
:104BF0000D9B01930C9B0093334622464146384659
:104C0000FFF730FE2846FFF7B5FE012005E04846D5
:104C100000F0B4FEE6E74FF0FF3005B0BDE8F083EA
:104C20004FF0FF30F9E7000038B5044600F04AFFC6
:104C300024B3251D2846FFF797FAA36A1BB104F198
:104C40001800FFF791FA1F4A1368013313601E4BD7
:104C50001B68A34215D01D4A1368013B1360204610
:104C6000FFF7DEFEFFF7E8FD00F04EFF184B1B6874
:104C70001BB1154B1B68A3420CD038BD124B1C68EE
:104C8000D7E729461348FFF74BFA134A1368013355
:104C90001360E9E7114B1B6843B14FF0500383F3F6
:104CA0001188BFF36F8FBFF34F8FFEE74FF0E02304
:104CB0004FF08052C3F8042DBFF34F8FBFF36F8FB7
:104CC000DBE700BFC40F00204C0B0020B80F002012
:104CD0001810002030100020BC0F0020C00F002052
:104CE000F8B5D0B104461D4B1B6883422DD000F0AF
:104CF000E9FE65691A4B1E681A4B1F6800F004FF35
:104D0000B54224D0BD4224D0174B9D420ED0174B44
:104D10009D4220D0BDB1012018E04FF0500383F335
:104D20001188BFF36F8FBFF34F8FFEE7A36A0BB1FC
:104D300002200BE094F85830DBB2012B01D00320A5
:104D400004E0022002E0042000E00020F8BD022080
:104D5000FCE70220FAE70420F8E700BF4C0B002034
:104D6000500B0020540B00201C100020301000209D
:104D700010B588B000240594069407AA06A905A8D2
:104D800001F0A4F8059B0293069B0193009423462F
:104D9000079A18491848FFF7D7FE184B186040B11A
:104DA00000F04CFB012806D0B0F1FF3F18D008B04E
:104DB00010BD0020F6E74FF0500383F31188BFF3D6
:104DC0006F8FBFF34F8F0E4B4FF0FF321A600D4BBA
:104DD00001221A600C4B00221A6000F00DFFE6E77A
:104DE0004FF0500383F31188BFF36F8FBFF34F8FE2
:104DF000FEE700BFEC7B0008A54A0008F40F002086
:104E0000F80F00201810002044100020024A1368F8
:104E100001331360704700BFC00F0020014B1868BA
:104E2000704700BF44100020F8B53A4B1B68002BB8
:104E300069D1394B1D6801351D60C5B9374B1B68F9
:104E40001B6843B14FF0500383F31188BFF36F8F9A
:104E5000BFF34F8FFEE7314A1168314B186810607D
:104E60001960304A136801331360FFF7E5FC2E4BDD
:104E70001B68AB423DD900272C4B1B68DB6A03EB58
:104E800083039A002A4B9B58012B00D90127294BF9
:104E90001B68002B3CD001273AE001271F4B1B6801
:104EA0001B6843B31D4B1B68DB68DC6863689D426D
:104EB00026D3261D3046FFF757F9A36A1BB104F12C
:104EC0001800FFF751F9E36A1B4A1268934201D9AF
:104ED000194A136003EB83039A00314614481044C7
:104EE000FFF71EF9E26A114B1B68DB6A9A42D4D2C3
:104EF000D4E70027D2E70C4B4FF0FF321A60BBE734
:104F0000094A1360B8E70D4A13680133136000279C
:104F10003846F8BDC00F002044100020500B002080
:104F2000540B0020FC0F0020F80F00204C0B002039
:104F3000580B002048100020C80F0020001000204F
:104F400038B5354B1B6843B94FF0500383F31188D4
:104F5000BFF36F8FBFF34F8FFEE700F0B3FD2E4B13
:104F60001A68013A1A601B68002B4FD12B4B1B6843
:104F70000BB900244BE00024294B1B681BB3284BC2
:104F8000DB68DC6804F11800FFF7EEF8251D284601
:104F9000FFF7EAF8E06A234B1B68984201D9214BDE
:104FA000186000EB800029461F4B03EB8000FFF7E1
:104FB000B7F8E26A1D4B1B68DB6A9A42DCD31C4BD4
:104FC00001221A60D8E70CB1FFF736FC194B1C68B8
:104FD00084B9174B1C68D4B14FF0E0234FF08052D6
:104FE000C3F8042DBFF34F8FBFF36F8F01240EE082
:104FF000013C07D0FFF718FF0028F9D00C4B012225
:105000001A60F5E70B4B00221A60E2E7002400F07B
:105010007BFD204638BD00BFC00F0020B80F002028
:1050200004100020C80F0020580B00204C0B00205B
:10503000481000200010002010B5A8B10446104B05
:105040001B6843B14FF0500383F31188BFF36F8F98
:10505000BFF34F8FFEE7FFF7D9FE00212046FFF791
:1050600035FDFFF76DFF48B94FF0E0234FF0805258
:10507000C3F8042DBFF34F8FBFF36F8F10BD00BF78
:10508000C00F00201F4B1B681BB11F4B01221A6071
:1050900070471D4B00221A601C4B1B6803EB8301F9
:1050A0008A001B498A585AB90BB1013BF6E74FF009
:1050B000500383F31188BFF36F8FBFF34F8FFEE769
:1050C00003EB830082000A4450684068506003EBA1
:1050D000830C4FEA8C020832114488420BD003EB58
:1050E000830291000A4A0A445268D168094A116051
:1050F000064A13607047406862469100044A0A44B9
:105100005060ECE7C00F002048100020C80F0020BE
:10511000580B00204C0B002058B110B50C46094A22
:1051200011681831FFF707F801212046FFF7CEFC80
:1051300010BD4FF0500383F31188BFF36F8FBFF39F
:105140004F8FFEE74C0B002038B570B10D4614466A
:105150000A4A11681831FEF7E3FF0CB14FF0FF3532
:1051600021462846FFF7B2FC38BD4FF0500383F3C9
:105170001188BFF36F8FBFF34F8FFEE74C0B0020FA
:1051800038B5C368DC6824B304F118052846FEF777
:10519000EBFF184B1B682BBB251D2846FEF7E4FFD1
:1051A000E06A154B1B68984201D9134B186000EB5D
:1051B00080002946114B03EB8000FEF7B1FFE26A45
:1051C0000F4B1B68DB6A9A4211D901200D4B186006
:1051D00038BD4FF0500383F31188BFF36F8FBFF3D7
:1051E0004F8FFEE729460848FEF79AFFE7E70020C1
:1051F000EEE700BFC00F0020C80F0020580B0020B2
:105200004C0B00204810002004100020034B1B68AA
:105210000360034B1B684360704700BFFC0F002016
:1052200044100020F8B5C8B10C460546F9B100F0AD
:1052300049FC1B4B19686B68C81A2268B2F1FF3F22
:1052400026D0184E36682F68B74201D08B4224D939
:10525000824215D80023236001241AE04FF0500346
:1052600083F31188BFF36F8FBFF34F8FFEE74FF0CB
:10527000500383F31188BFF36F8FBFF34F8FFEE7A7
:105280005B1A134423602846FFF7C0FF002400E0A8
:10529000002400F039FC2046F8BD0124F9E700BFE6
:1052A00044100020FC0F0020014B01221A607047BF
:1052B00048100020054B1B6833B1054B1B680BB130
:1052C000002070470220704701207047181000200E
:1052D000C00F002000283BD038B504461E4B1B6889
:1052E000834208D04FF0500383F31188BFF36F8FD0
:1052F000BFF34F8FFEE7036D43B94FF0500383F3C5
:105300001188BFF36F8FBFF34F8FFEE7013B03653B
:10531000C16AC26C91421DD00BB1002038BD051D81
:105320002846FEF721FFE06CE062C0F13803A3617C
:105330000A4B1B68984201D9084B186000EB8000AB
:105340002946074B03EB8000FEF7EAFE0120E5E764
:10535000002070470020E1E74C0B0020C80F002020
:10536000580B0020064B1A6813682BB90123036001
:1053700023B9D368186870470023F8E70020704706
:105380004C10002008B54160006191420CD8D21A3F
:1053900083699A4201D3012008BD011D094B186899
:1053A000FEF7C9FE0020F7E79A4201D2994206D2E1
:1053B000011D054B1868FEF7BEFE0020ECE701203A
:1053C000EAE700BF501000204C10002030B583B039
:1053D00000F078FB114B1B681BB100F095FB03B08C
:1053E00030BD0F4D2846FEF78DFE0E4C2046FEF7D1
:1053F00089FE0D4B1D600D4B1C60002300930C4B70
:105400000C4A10210A20FEF7B5FF044B1860002853
:10541000E3D00949FFF7D2F9DFE700BF70110020A0
:10542000F4100020081100204C1000205010002023
:105430002011002054100020F47B000810B588B023
:10544000FFF7C4FF124B1B68CBB1002405940694F0
:1054500007AA06A905A800F045FD059B0293069B37
:105460000193022300932346079A0A490A48FFF74B
:105470006BFB0A4B186010B1012008B010BD4FF053
:10548000500383F31188BFF36F8FBFF34F8FFEE795
:1054900070110020FC7B0008A15700087411002047
:1054A000B8B19C4603461848006858B300B585B0AB
:1054B00000910192029305291CDCFFF7FBFE0228F4
:1054C00010D000231A4669460F480068FEF79CFF7B
:1054D00015E04FF0500383F31188BFF36F8FBFF3D4
:1054E0004F8FFEE70023069A694607480068FEF7DB
:1054F0008BFF04E0002362466946FFF749F805B0D8
:105500005DF804FB002070477011002070B582B078
:105510001B4B1B681A6862B3DB681E68DC68251DBC
:105520002846FEF721FE236A2046984794F8283043
:1055300013F0040FECD0A36933449E4207D263609A
:10554000246129460E4B1868FEF7F5FDE0E70021BF
:1055500000910B4632462046FFF7A2FF0028D7D124
:105560004FF0500383F31188BFF36F8FBFF34F8F5A
:10557000FEE7044A106802490860136002B070BD7B
:105580004C1000205010002038B50546FFF746FCAF
:105590000446074B1B68834205D800232B60044B4D
:1055A0001C60204638BDFFF7B1FF01232B60F6E7F2
:1055B0001C11002070B582B006460D4617490968D7
:1055C000C968CC68201DFEF7CFFD94F828C01CF0F8
:1055D000040F08D12CF0010C84F828C0236A20465F
:1055E000984702B070BDA16933462A46314420462F
:1055F000FFF7C8FE0028F1D0002100910B4632468B
:105600002046FFF74DFF0028E8D14FF0500383F309
:105610001188BFF36F8FBFF34F8FFEE74C10002050
:1056200070B582B006460C46FFF7F0FB01A8FFF705
:10563000ABFF019B33BB05460CB9B04219D224B174
:10564000124A12681268DAB901242246711B104B03
:105650001868FFF7C7F8FFF773FCA8B94FF0E0230D
:105660004FF08052C3F8042DBFF34F8FBFF36F8FFD
:105670000AE0FFF765FC29463046FFF79BFF03E091
:105680001C46E2E7FFF75CFC02B070BD5010002042
:105690007011002010B588B002E0049B002B0FDAD7
:1056A000002204A93D4B1868FEF7D9FF002873D0EB
:1056B000049B002BF1DA07990698059B9847ECE7C5
:1056C000069C636913B1201DFEF74EFD03A8FFF78A
:1056D0005BFF049B092BE3D8DFE803F005050530E9
:1056E00037500505303794F8283043F0010384F82B
:1056F0002830059BA169024619442046FFF742FE67
:105700000028CDD0236A2046984794F8283013F01B
:10571000040FC5D0A269002100910B4605980244F0
:105720002046FFF7BDFE0028BAD14FF0500383F3A7
:105730001188BFF36F8FBFF34F8FFEE794F82830C7
:1057400023F0010384F82830AAE794F8283043F0C6
:10575000010384F828300599A16131B1034602465E
:1057600001442046FFF70EFE9AE74FF0500383F303
:105770001188BFF36F8FBFF34F8FFEE794F8283087
:1057800013F0020F04D023F0010384F8283087E7D8
:10579000204600F0F3F883E708B010BD7011002038
:1057A00000B583B001A8FFF7DDFD0199FFF738FFD1
:1057B000FFF770FFF6E70000124A12F0070F1ED045
:1057C000D11D21F00701C1F5705313440A460E485C
:1057D0000260002141601344083B23F007030B489B
:1057E000036059601960991A51601360084B196081
:1057F000084B1960084B4FF000421A6070474FF495
:105800007053E4E77C110020904D002078110020B7
:10581000844D0020804D00207C4D0020164B1A4600
:105820001B688342FBD3516802EB010C844509D00D
:10583000416800EB010C634509D00360904219D028
:10584000106070474068014451601046F0E710B4A2
:105850000A4C2468A3420BD05B681944416013686A
:105860001B680360904200D010605DF8044B7047E5
:105870000460F7E7704700BF904D002078110020CA
:1058800070B50546FFF7C2FA364B1B68A3B1364B1D
:105890001B681D424ED135B1083515F0070F02D0F7
:1058A00025F007050835002D46D0304B1B68AB426C
:1058B00051D32F4A146804E0FFF77EFFE7E7224642
:1058C0001C466368AB4202D22368002BF7D1254BFC
:1058D0001B68A34241D016680836236813606368CA
:1058E0005B1B102B10D9601910F0070F08D04FF078
:1058F000500383F31188BFF36F8FBFF34F8FFEE721
:1059000043606560FFF78AFF626818490B689B1A5D
:105910000B60184909688B4201D216490B60124B83
:105920001B681343636000232360134A1368013329
:10593000136002E0002600E00026FFF701FB16F0EE
:10594000070F0CD04FF0500383F31188BFF36F8F14
:10595000BFF34F8FFEE70026EFE70026EDE7304666
:1059600070BD00BF781100207C4D0020804D0020CC
:10597000904D0020844D0020884D0020002834D018
:1059800038B50446A0F1080550F8043C174A1268DF
:10599000134208D14FF0500383F31188BFF36F8F88
:1059A000BFF34F8FFEE750F8081C41B14FF0500392
:1059B00083F31188BFF36F8FBFF34F8FFEE723EAA6
:1059C000020340F8043CFFF721FA54F8041C084A8B
:1059D00013680B4413602846FFF720FF054A13683D
:1059E00001331360FFF7ACFA38BD70477C4D0020DF
:1059F000804D00208C4D002082B0002301930D4B80
:105A00001B68B3F1FF3F08D04FF0500383F31188B8
:105A1000BFF36F8FBFF34F8FFEE74FF0500383F359
:105A20001188BFF36F8FBFF34F8F019B002BFCD00A
:105A300002B070471800002008480068006880F332
:105A400008884FF0000080F3148862B661B6BFF397
:105A50004F8FBFF36F8F00DF00BF000008ED00E045
:105A6000DFF80C00016841F470010160704700002C
:105A700088ED00E04FF0807340F8043C21F0010114
:105A800040F8081C054B40F80C3C40F8202C6FF007
:105A9000020340F8243C4438704700BFF95900081D
:105AA000074B19680868B0E8F04F80F30988BFF326
:105AB0006F8F4FF0000080F311887047AFF30080C4
:105AC0004C0B00204FF0500383F31188BFF36F8F0E
:105AD000BFF34F8F0B4A136801331360012B00D0C3
